:100000000C9419010C945B110C94D6050C943601D8
:100010000C945F030C9436010C9436010C94360159
:100020000C9436010C9436010C9436010C94360174
:100030000C9436010C9436010C9413110C94360177
:100040000C9436010C9436010C9436010C94360154
:100050000C9436010C9436010C9436010C94360144
:100060000C9436010C9436010FED032196979A9B60
:100070009D9E9FA6A7ABACADAEAFB2B3B4B5B6B7BD
:10008000B9BABBBCBDBEBFCBCDCECFD3D6D7D9DAE4
:10009000DBDCDDDEDFE5E6E7E9EAEBECEDEEEFF2F7
:1000A000F3F4F5F6F7F9FAFBFCFDFEFF00000000A3
:1000B0000000000000000000000000000000000040
:1000C0000000000000000000000000000000000030
:1000D0000000000000000000000000000000000020
:1000E0000000000000000000000000000000000010
:1000F0000000000000000000000000000000000000
:1001000000000000000000000000000000000000EF
:1001100000000000000000000000000000000000DF
:1001200000000000000000000000000000000000CF
:1001300000000000000000000000000000000000BF
:10014000000000010000020300040506000000009A
:1001500000000708000000090A0B0C0D00000E0F3C
:1001600010111213001415161718191A00000000A8
:10017000000000000000001B001C1D1E0000001FEE
:10018000000020210022232425262728000000002B
:1001900000292A2B002C2D2E2F3031320000333431
:1001A0003536373800393A3B3C3D3E3F000D0B09B0
:1001B000070503010E0C0A080604020F00020103E2
:1001C000000201030008040C0020103020205344DA
:1001D00049534B205D5B204C4344202000202046A7
:1001E0004150504C45322032303138202000202000
:1001F00020204E4F204449534B20202020200053E4
:10020000454C454354204E494320494D4147450004
:10021000204449534B20494E5345525445442020D5
:10022000002046494C45204E4F5420464F554E44E1
:10023000200011241FBECFEFD8E0DEBFCDBF11E0FC
:10024000A0E0B1E0ECE1F4E202C005900D92AC3127
:10025000B107D9F718E0ACE1B1E001C01D92AD36AD
:10026000B107E1F70E94370F0C940C120C940000B8
:1002700020E030E04EE551E0249FF001259FF00D95
:10028000349FF00D1124E55DFE4F80E090E0119267
:10029000019661E08E359607D1F72F5F3F4F2530ED
:1002A000310551F780E090E02FEFFC01E25EFE4F58
:1002B0002083FC01EB5DFE4F208301968530910584
:1002C000A1F7089520910508309106084CE02039E7
:1002D000340788F488E185B998E395B985B92F5F2B
:1002E0003F4F40E120313407C0F380E99CE0909318
:1002F00006088093050808958EBD0DB407FC06C05E
:100300004B9BFBCF45980DB407FEFACF08958FEFB6
:100310008EBD0DB407FC06C04B9BFBCF45980DB4BA
:1003200007FEFACF8EB508950E9487018F3FE1F74F
:100330000895DF92EF92FF920F931F93D82E7A01C8
:100340008B018FEF0E947C018D2D805C0E947C01CF
:10035000812F9927AA27BB270E947C01C801AA27C1
:10036000BB270E947C01BB27A12F902F8F2D0E94BD
:100370007C018E2D0E947C0185E90E947C018FEF1B
:100380000E947C011F910F91FF90EF90DF900895E4
:100390000E94870187FDFCCF0895DF92EF92FF92C4
:1003A0000F931F93D82E7A018B018D2DB801A701D1
:1003B0000E9499010E94C801882311F08F3FA9F77C
:1003C0001F910F91FF90EF90DF900895AB01BC015A
:1003D00081E10E94CD010E9487018E3FE1F70895DF
:1003E000EF92FF920F931F93CF93DF937C01EB016A
:1003F00080E148E050E060E070E00E94CD01EE0C4A
:10040000FF1CE294F29430EFF322FE24E322FE2458
:1004100000E010E080911F0890912008A091210831
:10042000B0912208E80EF91E0A1F1B1FC801B70170
:100430000E94E60110E00E94870189931F5F183037
:10044000D1F70E9487010E948701DF91CF911F9110
:100450000F91FF90EF9008956F927F928F929F92ED
:10046000AF92BF92CF92DF92EF92FF920F931F93C2
:10047000CF93DF936C013B014A01B22EA02E80E1A5
:1004800042E050E060E070E00E94CD0160911F0802
:10049000709120088091210890912208665E7F4F1C
:1004A0008F4F9F4FCC0CDD1CC294D294E0EFDE2224
:1004B000DC24CE22DC24EE24D7FCE094FE2C6C0D50
:1004C0007D1D8E1D9F1D0E94E6010E948701082F41
:1004D00010E00E948701382F20E0020F131F0E94B6
:1004E00087010E948701BB2019F4F3011183008367
:1004F000EE24FF2408C0FFEF073F1F0708F046C0A7
:10050000BC1408F443C0E814F90408F03FC0089490
:10051000E11CF11CC7016A2D70E00E94CD11C62EAE
:10052000B80180E090E0660F771F881F991F209127
:100530001008309111084091120850911308620F71
:10054000731F841F951F0E94E6010E948701082FD8
:1005500010E00E948701D82FC0E00C0F1D1F0E94E1
:1005600087010E948701CB1431F6C7016A2D70E024
:100570000E94CD11FC01EE0FFF1FE60DF71D118348
:100580000083FFEF073F1F0708F4BACF80E140E088
:1005900052E060E070E00E94CD01DF91CF911F91A9
:1005A0000F91FF90EF90DF90CF90BF90AF909F9012
:1005B0008F907F906F900895AF92BF92CF92DF920D
:1005C000EF92FF920F931F93CF93DF93C090100889
:1005D000D0901108E0901208F090130880E140E0FC
:1005E00052E060E070E00E94CD0180910708909198
:1005F0000808892B09F458C0AA24BB24C701B601F6
:100600000E94E6010BE211E0E8010E948701899354
:1006100083E0CB32D807C9F70E9487010E94870187
:100620002A9A2A98409107085091080860E070E0E3
:10063000F9E0440F551F661F771FFA95D1F74C0D4F
:100640005D1D6E1D7F1D88E10E94CD018FEF0E9410
:100650007C018EEF0E947C01D8018D918D010E945A
:100660007C01B3E00B321B07B9F78FEF0E947C01CE
:100670008FEF0E947C010E9487010E9494012A9AB8
:100680002A980894A11CB11C809107089091080831
:10069000A816B90648F480E092E0A0E0B0E0C80EE9
:1006A000D91EEA1EFB1EAACFDF91CF911F910F9199
:1006B000FF90EF90DF90CF90BF90AF9008951F9282
:1006C0000F920FB60F9211242F938F939F93EF9356
:1006D000FF934F9936C096B19F7080911D01981776
:1006E00081F190931D019830B1F1943009F43BC031
:1006F000923099F1913029F520E080911D08820F08
:100700008770E82FE695F0E0E859FF4F2491909329
:100710001D0180FF24C0922F9F7093FD986F8091E0
:100720001D08980F90931D0880911D08853C10F0BE
:1007300010921D0880911D088C3818F08BE880936A
:100740001D08FF91EF919F918F912F910F900FBEF8
:100750000F901F90189522E0D0CF26E0CECF922F99
:1007600092959F70DACF24E0C8CFBF92CF92DF92EC
:10077000EF92FF920F931F93CF93DF93B82ED62E55
:10078000C42EC42FD0E0C295D295D07FDC27C07F85
:10079000DC27C60FD11D309123017E01032E02C03C
:1007A000F694E7940A94E2F7C70163E270E00E94CE
:1007B000B911262F80916E008D7F80936E0080E5A9
:1007C0008CBD809109086817B9F0609309084091C1
:1007D000140850E0415D5D4F02C0559547953A952C
:1007E000E2F7809116089091170865E278E003E23D
:1007F0000E942C02309123012A9A2A98C70163E2B1
:1008000070E00E94B911FC01EE0FFF1FEB5DF74F86
:10081000408151814250504060E070E004C0440F7C
:10082000551F661F771F3A95D2F78091140890E004
:100830000197C823D923CE01A0E0B0E0480F591F8B
:100840006A1F7B1FA9E0440F551F661F771FAA95DB
:10085000D1F780910C0890910D08A0910E08B091ED
:100860000F08480F591F6A1F7B1F88E10E94CD01A6
:100870008FEF0E947C018EEF0E947C01C0E0D0E0EF
:100880008FEF0E947C012196C631D105C9F783E024
:100890000E947C018CEF0E947C018FEF0E947C0102
:1008A0008FE30E947C018FEC0E947C0183EF0E9409
:1008B0007C018CEF0E947C018FEF0E947C018FE312
:1008C0000E947C018FEC0E947C0183EF0E947C01DE
:1008D0008CEF0E947C0185ED0E947C018AEA0E94D7
:1008E0007C0186E90E947C018FEF0E947C018EEFE3
:1008F0000E947C018C2D86958A6A0E947C018C2D39
:100900008A6A0E947C018D2D86958A6A0E947C01EC
:100910008D2D8A6A0E947C011EEF1D251C25812FCA
:1009200086958A6A0E947C01812F8A6A0E947C01D6
:100930008EED0E947C018AEA0E947C018BEE0E946F
:100940007C018FEF0E947C018FEF0E947C018FEF72
:100950000E947C018FEF0E947C018FEF0E947C013E
:100960002B2D30E08EE591E0289FE001299FD00DEE
:10097000389FD00D1124C55DDE4F00E010E0899155
:100980000E947C010F5F1F4F81E00D351807B9F7FA
:10099000C0E0D0E08FEF0E947C012196CE30D105DF
:1009A000C9F700E010E080E00E947C010F5F1F4F5C
:1009B00000361105C1F78FEF0E947C018FEF0E9476
:1009C0007C010E9487010E9494012A9A2A981CBCEB
:1009D00080916E00826080936E00DF91CF911F91B5
:1009E0000F91FF90EF90DF90CF90BF900895AF925E
:1009F000BF92DF92EF92FF920F931F93DF93CF93FB
:100A00000F92CDB7DEB78EE1A82E81E0B82EF501AA
:100A100080818F3F81F4319681E0E332F807C1F79E
:100A20000F90CF91DF911F910F91FF90EF90DF908A
:100A3000BF90AF90089505E2E02E01E0F02E0DE2A8
:100A400011E090E0DD24DA94F50160816F3F39F028
:100A5000892FF701408199830E94B5039981F5019F
:100A6000D1925F01F701D1927F01F80110829F5F5F
:100A7000025A1E4F953041F7109224018BE291E00B
:100A80009093240880932308CBCF40912401A42F76
:100A9000B0E08FEA90E0A89FF001A99FF00DB89F09
:100AA000F00D1124EE0FFF1FE35DFE4F80818D3AA4
:100AB00061F150E08FEA90E0489FF001499FF00D0E
:100AC000589FF00D1124EE0FFF1FE35DFE4F808154
:100AD000863909F008958EE591E0489FF001499F1D
:100AE000F00D589FF00D1124E55DFE4F878190E0D9
:100AF00085759070880F991F20852575282B209368
:100B00001C0181E080932A01089580912A018823A5
:100B100071F590910A08FD01E25EFE4F908380918D
:100B20001D08AB5DBE4F869586958C939F3081F1F5
:100B30009D3071F1892F8F5F8F7080930A08443048
:100B400059F14F5F40932401242F30E08EE591E06E
:100B5000BC01269FC001279F900D369F900D112448
:100B6000855D9E4F9093240880932308A2CF8091A7
:100B70001C0180930A0810922A018F3009F099CF46
:100B80000E94620181E080931E084091240191CF70
:100B9000892F8E5F8F70D1CF0E9462010E94F7046F
:100BA00081E080931E084091240183CF1F920F9211
:100BB0000FB60F9211242F933F934F935F936F9330
:100BC0007F938F939F93AF93BF93EF93FF9380E0B7
:100BD00090E0A0E0B0E00BC00196A11DB11D8030F7
:100BE00020E0920728E0A20720E0B20799F04B9995
:100BF000F3CFFF91EF91BF91AF919F918F917F9133
:100C00006F915F914F913F912F910F900FBE0F9079
:100C10001F901895F999FECF60911D0881E090E032
:100C20000E94FE114598E5CF4F925F926F927F929E
:100C30008F929F92AF92BF92CF92DF92EF92FF92EC
:100C40000F931F93CF93DF936B017C01742E652E5E
:100C5000522E432E80E140E052E060E070E00E94BE
:100C6000CD01812C6EEF962E6FEFA62E6FEFB62E74
:100C70008C209D20AE20BF20C501B4010E94E6015A
:100C80000BE211E0E8010E948701899383E0CB32F7
:100C9000D807C9F70E9487010E9487019601317029
:100CA000255D3E4FC901672D762D452D542D0E949F
:100CB000ED112A9A2A9888E1B501A4010E94CD017C
:100CC0008FEF0E947C018EEF0E947C01F8018191E0
:100CD0008F010E947C01F3E00B321F07B9F78FEF01
:100CE0000E947C018FEF0E947C010E9487010E947C
:100CF00094012A9A2A98DF91CF911F910F91FF902A
:100D0000EF90DF90CF90BF90AF909F908F907F90AB
:100D10006F905F904F9008956F927F928F929F9205
:100D2000AF92BF92CF92DF92EF92FF920F931F93F9
:100D3000DF93CF93CDB7DEB7A4970FB6F894DEBF9D
:100D40000FBECDBF9C01F5E08F2E912C8C0E9D1E09
:100D5000F401CE0185961192E817F907E1F7D40165
:100D6000F90188E001900D928150E1F7DE011D96B6
:100D7000E0E0F1E083E001900D928150E1F780E046
:100D800090E6A4E0B0E0F401848F958FA68FB78F32
:100D9000CC24DD24EE24FF24870111C00894C11C5B
:100DA000D11C80E290E0A0E0B0E0E80EF91E0A1F3E
:100DB0001B1F90E0C91692E0D90609F40FC180E12B
:100DC00041E050E060E070E00E94CD0160911F08BA
:100DD0007091200880912108909122086E0D7F1D4E
:100DE000801F911F0E94E6010E948701A82E0E9489
:100DF00087010E94870160911F08709120088091EF
:100E0000210890912208655F7F4F8F4F9F4F6E0D95
:100E10007F1D801F911F0E94E6010E948701B82E4E
:100E20000E9487010E948701F5EEAF1619F0AA20F3
:100E300009F0B4CF8FE0B81609F4B0CF60911F0865
:100E40007091200880912108909122086E0D7F1DDD
:100E5000801F911FA40120E230E00E941406A090A0
:100E60001F08B0902008C0902108D09022088AE185
:100E700090E0A0E0B0E0A80EB91ECA1EDB1EAE0CCA
:100E8000BF1CC01ED11E82E090E0A0E0B0E08983CC
:100E90009A83AB83BC838091140890E0815D9D4F61
:100EA0000090230102C0959587950A94E2F7892B5B
:100EB00009F472C0882499243E010894611C711CB5
:100EC0001CC029813A814B815C812F5F3F4F4F4F7E
:100ED0005F4F29833A834B835C838091140890E0B1
:100EE000815D9D4F0090230102C0959587950A94DE
:100EF000E2F78816990608F04FC080E142E050E022
:100F000060E070E00E94CD0169817A818B819C81D3
:100F1000660F771F881F991F2091100830911108C4
:100F20004091120850911308620F731F841F951F80
:100F30000E94E6010E948701082F10E00E948701AD
:100F4000F82E0E9487010E948701EE240E0D1F1DBE
:100F5000012B09F0B6CF0894811C911CC601B50184
:100F6000A30122E030E00E94140629813A814B81DE
:100F70005C8159016A01AA0CBB1CCC1CDD1C809150
:100F8000100890911108A0911208B0911308A80EB2
:100F9000B91ECA1EDB1E99CFC601B50147E151E05B
:100FA00022E030E00E9414060E94DC0221E030E0E2
:100FB000C901A4960FB6F894DEBF0FBECDBFCF9186
:100FC000DF911F910F91FF90EF90DF90CF90BF9036
:100FD000AF909F908F907F906F90089520E030E0C9
:100FE000E7CF4F925F926F927F928F929F92AF92D4
:100FF000BF92CF92DF92EF92FF920F931F93DF93F6
:10100000CF93CDB7DEB7A4970FB6F894DEBF0FBE6F
:10101000CDBF9C013A014B9930C105E0802E912C47
:101020008C0E9D1EF401CE0185961192E817F907EA
:10103000E1F7D401F90188E001900D928150E1F7C8
:10104000DE011D96FB0183E001900D928150E1F7D6
:10105000C301A0E0B0E019E0880F991FAA1FBB1FD1
:101060001A95D1F7F401848F958FA68FB78FCC2472
:10107000DD24EE24FF24870111C00894C11CD11C7B
:1010800080E290E0A0E0B0E0E80EF91E0A1F1B1F0E
:1010900090E0C91692E0D90609F4EFC080E141E082
:1010A00050E060E070E00E94CD0160911F087091F7
:1010B000200880912108909122086E0D7F1D801FCD
:1010C000911F0E94E6010E948701A82E0E948701BD
:1010D0000E94870160911F0870912008809121086B
:1010E00090912208655F7F4F8F4F9F4F6E0D7F1D40
:1010F000801F911F0E94E6010E948701B82E0E9466
:1011000087010E948701F5EEAF1619F0AA2009F0B9
:10111000B4CF8FE0B81609F4B0CF60911F0870917A
:10112000200880912108909122086E0D7F1D801F5C
:10113000911FA40120E230E00E941406A0901F0835
:10114000B0902008C0902108D09022088AE190E059
:10115000A0E0B0E0A80EB91ECA1EDB1EAE0CBF1C7C
:10116000C01ED11E82E090E0A0E0B0E089839A83A7
:10117000AB83BC838091140890E00197860D971D86
:101180000090230102C0969587950A94E2F7892B77
:1011900009F48DC0882499242E010894411C511C07
:1011A0001DC029813A814B815C812F5F3F4F4F4F9A
:1011B0005F4F29833A834B835C838091140890E0CE
:1011C0000197860D971D0090230102C09695879583
:1011D0000A94E2F78816990608F069C080E142E0B7
:1011E00050E060E070E00E94CD0169817A818B81DE
:1011F0009C81660F771F881F991F209110083091DE
:1012000011084091120850911308620F731F841F38
:10121000951F0E94E6010E948701082F10E00E949E
:101220008701F82E0E9487010E948701EE240E0D8F
:101230001F1D012B09F0B5CF0894811C911CC6011C
:10124000B501A20122E030E00E94140629813A8112
:101250004B815C8159016A01AA0CBB1CCC1CDD1CB2
:101260008091100890911108A0911208B091130874
:10127000A80EB91ECA1EDB1E98CF20E030E0C901BF
:10128000A4960FB6F894DEBF0FBECDBFCF91DF910D
:101290001F910F91FF90EF90DF90CF90BF90AF9094
:1012A0009F908F907F906F905F904F900895C601B0
:1012B000B50149E151E022E030E00E9414060E94AD
:1012C000DC0221E030E0DBCF2F923F924F925F9221
:1012D0006F927F928F929F92AF92BF92CF92DF9246
:1012E000EF92FF920F931F93DF93CF93CDB7DEB7AB
:1012F00065970FB6F894DEBF0FBECDBF9D8B8C8B6C
:101300004B01AA24BB2444245524CC24DD2476019B
:101310003E010894611C711C4B99F4C080E141E0CE
:1013200050E060E070E00E94CD0160911F08709174
:10133000200880912108909122086C0D7D1D8E1D42
:101340009F1D0E94E6010E948701182F0E948701BD
:101350000E948701112309F469C0153009F466C0A1
:101360001E3209F463C0153E09F460C0812F815418
:101370008A3120F010531A3008F058C060911F08CD
:10138000709120088091210890912208655F7F4F1D
:101390008F4F9F4F6C0D7D1D8E1D9F1D0E94E6017E
:1013A0000E948701182F0E9487010E948701812FC8
:1013B0008E71E1F51F30D1F180E143E050E060E053
:1013C00070E00E94CD0160911F087091200880910B
:1013D000210890912208685F7F4F8F4F9F4F6C0DBF
:1013E0007D1D8E1D9F1D0E94E6010E94870189833D
:1013F0000E9487018A830E9487018B830E94870154
:101400000E948701C301B40143E050E00E94E01153
:10141000009761F4F201EE0FFF1F8C899D89E80FA0
:10142000F91FB182A0820894411C511C0894A11C90
:10143000B11C80E290E0A0E0B0E0C80ED91EEA1E28
:10144000FB1E90E0A91692E0B90609F065CFA2E074
:101450004A16510408F459C02EEF222E2FEF322ED7
:10146000240C351C62010894C108D1086624772435
:1014700094E0892E912C8C0E9D1E8CE0A82EB12C10
:10148000AC0EBD1EC114D10499F10C891D8941E037
:10149000E42EF12C08C00894E11CF11C0E5F1F4FD4
:1014A000CE14DF0428F1F80182819381B4010E94F7
:1014B000F001D8018D919C91B5010E94F001C40109
:1014C000B50148E050E00E94E01197FFE4CFF80139
:1014D0002281338180819181938382833183208330
:1014E0000894E11CF11C0E5F1F4FCE14DF04D8F6E8
:1014F0000894611C711C0894C108D1082614370493
:1015000008F603C0412C32E0532EC20165960FB697
:10151000F894DEBF0FBECDBFCF91DF911F910F9129
:10152000FF90EF90DF90CF90BF90AF909F908F9003
:101530007F906F905F904F903F902F9008952F92E3
:101540003F924F925F926F927F928F929F92AF9253
:10155000BF92CF92DF92EF92FF920F931F93DF9390
:10156000CF93CDB7DEB768970FB6F894DEBF0FBE46
:10157000CDBF9B8B8A8B7D8B6C8B5F8B4E8B288F2B
:10158000AA24BB24412CB2E05B2E198A188A662457
:101590007724CC24DD247601A8E02A2E312C2C0ED1
:1015A0003D1EF8E08F2E912C820C931C4B99EBC0C2
:1015B00080E141E050E060E070E00E94CD01609188
:1015C0001F087091200880912108909122086C0DCD
:1015D0007D1D8E1D9F1D0E94E6010E948701182F10
:1015E0000E9487010E948701112309F4ADC01530C4
:1015F00009F4AAC01E3209F4A7C0153E09F4A4C01C
:10160000812F81548A3120F010531A3008F09CC089
:1016100060911F0870912008809121089091220804
:10162000655F7F4F8F4F9F4F6C0D7D1D8E1D9F1DE2
:101630000E94E6010E948701182F0E9487010E94E4
:101640008701812F8E7109F07FC01F3009F47CC0A3
:1016500080E14CE050E060E070E00E94CD016091DC
:101660001F087091200880912108909122086C0D2C
:101670007D1D8E1D9F1D0E94E60181010E94870134
:10168000D8018D938D01A815B905C1F70E94870176
:101690008D830E9487018E830E9487018F83EC894E
:1016A000FD89EF2B09F4A1C00E9487018170880F8A
:1016B000880F880FAC89BD898C930E9487010E9496
:1016C000870180E144E050E060E070E00E94CD01DD
:1016D00060911F0870912008809121089091220844
:1016E0006A5E7F4F8F4F9F4F6C0D7D1D8E1D9F1D1E
:1016F0000E94E6010E94870189830E9487018A83F4
:101700000E9487018B830E9487018C830E9487013E
:101710000E948701CE0105966A897B8943E050E0EB
:101720000E94E011009781F4B88DBB2309F047C0F7
:1017300029813A818B819C816816790608F450C012
:101740008615970509F446C00894A11CB11C80E2D7
:1017500090E0A0E0B0E0C80ED91EEA1EFB1E90E0AB
:10176000A91692E0B90609F021CFA0E04A16A2E03E
:101770005A0639F0EE89FF89EF2B19F0F88DFF2317
:10178000B9F1B20102C060E072E0CB0168960FB619
:10179000F894DEBF0FBECDBFCF91DF911F910F91A7
:1017A000FF90EF90DF90CF90BF90AF909F908F9081
:1017B0007F906F905F904F903F902F900895C10160
:1017C0006E897F8948E050E00E94E011009709F09F
:1017D000BBCFAECFE889F9892E173F0708F4B4CF05
:1017E0002501398B288B3C01AFCF0E94870165CF43
:1017F00080E148E050E060E070E00E94CD01B2017D
:10180000660F771F62957295707F7627607F7627C7
:1018100080E090E020911F0830912008409121083D
:1018200050912208620F731F841F951F0E94E601CA
:1018300000E010E00E948701EE89FF89E00FF11FB0
:1018400080830F5F1F4F08301105A1F70E948701A9
:101850000E948701B20199CF2F923F924F925F92DF
:101860006F927F928F929F92AF92BF92CF92DF92B0
:10187000EF92FF920F931F93DF93CF93CDB7DEB715
:1018800069970FB6F894DEBF0FBECDBF182F092F92
:10189000F62E488F598FA82EB92EC50160E071E051
:1018A0000E9464099F8B8E8B39E0232E312C2C0EE5
:1018B0003D1ED101E5E0F1E08DE001900D928150F7
:1018C000E1F781E06FEF71E00E94D8108E899F8967
:1018D000892B09F4B2C0FF2009F4A6C0EE89FF8964
:1018E0003F0188249924611471048104910409F44E
:1018F0009BC0812F902F9C016901EE24FF2487015A
:101900002E010894411C511C0FC00894E11CF11CCD
:10191000011D111D82E090E0C80ED91EE614F704E7
:101920000805190508F084C0F60180819181B20193
:101930000E94F001C201688D798D48E050E00E945C
:10194000E011009711F78701F701EE0FFF1FEA0D75
:10195000FB1D80819181B1010E94F00182E0B10103
:101960000E94C210EE24EA94FE2CCE88DF880894F0
:10197000C108D10883E064E071E00E94C2100E94B7
:10198000EE108535E9F08434A9F08335F9F0E016DE
:10199000F10671F0F801EE0FFF1FEA0DFB1D8081CB
:1019A0009181B1010E94F00182E0B1010E94C21058
:1019B0007801E0CF1016110654F701501040E7CF20
:1019C0000C151D0520F70F5F1F4FE1CF000F111FF2
:1019D000A00EB11EF50180819181B2010E94F0013B
:1019E000888D998D9C01D901F20188E001900D92BA
:1019F0008150E1F781E069960FB6F894DEBF0FBE23
:101A0000CDBFCF91DF911F910F91FF90EF90DF90AD
:101A1000CF90BF90AF909F908F907F906F905F908E
:101A20004F903F902F9008952E010894411C511C17
:101A300000E010E0E0E0F0E08ACF82E061E272E0F6
:101A40000E94D81080E0D7CFCF92DF92EF92FF9222
:101A50000F931F93DF93CF93CDB7DEB766970FB683
:101A6000F894DEBF0FBECDBF5D9A83E58CBD2A9A88
:101A700000E010E08FEF0E947C010F5F1F4F0A30E3
:101A80001105C1F72A988FEF0E947C018FEF0E9409
:101A90007C0180E040E050E060E070E00E9499014D
:101AA0000E9487018130E1F72A9A6FEF71E00E946E
:101AB000D8102A9887E340E050E060E070E00E9490
:101AC00099010E94C8018F3F99F08E7F91F72A9A61
:101AD0002A9889E240E050E060E070E00E949901BD
:101AE0000E94C8018823B1F08F3F11F02A9AE1CFFC
:101AF00020E030E0C90166960FB6F894DEBF0FBE55
:101B0000CDBFCF91DF911F910F91FF90EF90DF90AC
:101B1000CF90089580E58CBD81E08DBD80E145E0EA
:101B200050E060E070E00E94CD0166E370E080E08C
:101B300090E00E94E6018E010E5F1F4FA7E0CA2EC3
:101B4000D12CCC0EDD1E0E948701F80181938F01FC
:101B5000EC15FD05C1F70E9487010E9487018A816B
:101B60008634A9F48B81813491F48C81843579F4A5
:101B70008D81813361F48E81863349F41092180887
:101B80001092190810921A0810921B0870C080E178
:101B900044E050E060E070E00E94CD0166EC71E04E
:101BA00080E090E00E94E6010E94870190E0A0E0C2
:101BB000B0E08093180890931908A0931A08B09386
:101BC0001B080E94870190E0A0E0B0E0BA2FA92F87
:101BD000982F8827209118083091190840911A08E9
:101BE00050911B08280F391F4A1F5B1F20931808AC
:101BF0003093190840931A0850931B080E948701DC
:101C000090E0A0E0B0E0DC01992788272091180837
:101C10003091190840911A0850911B08280F391F5C
:101C20004A1F5B1F209318083093190840931A0825
:101C300050931B080E948701809118089091190801
:101C4000A0911A08B0911B0879E0880F991FAA1F6C
:101C5000BB1F7A95D1F78093180890931908A09329
:101C60001A08B0931B080E9487010E94870180E137
:101C700043E050E060E070E00E94CD016091180800
:101C80007091190880911A0890911B08635F7F4F2B
:101C90008F4F9F4F0E94E6010E94870189838981AF
:101CA00080931408109223018981813051F090E0D3
:101CB0009F5F89818695898389818130C9F7909357
:101CC00023010E948701082F10E00E948701F82E4F
:101CD0000E9487010E9487019F2D80E0800F911F45
:101CE000A0E0B0E069E0880F991FAA1FBB1F6A95AA
:101CF000D1F7209118083091190840911A08509195
:101D00001B08820F931FA41FB51F80931008909388
:101D10001108A0931208B093130880E142E050E04C
:101D200060E070E00E94CD01609118087091190880
:101D300080911A0890911B086A5E7F4F8F4F9F4FCA
:101D40000E94E6010E94870180930708109208080C
:101D50000E948701382F20E08091070890910808A1
:101D6000820F931F90930808809307080E948701B1
:101D70000E9487018091070890910808A0E0B0E0D8
:101D80005AE0880F991FAA1FBB1F5A95D1F72091BF
:101D90001008309111084091120850911308820FD9
:101DA000931FA41FB51F80931F0890932008A09332
:101DB0002108B09322088050904CAF4FBF4F8093C2
:101DC0000C0890930D08A0930E08B0930F084FE0F5
:101DD000E42EF12CEC0EFD1E82E191E060E070E05B
:101DE000A70120E00E949F0A9093040880930308B3
:101DF00010E0F2E080309F0709F011E08BE291E003
:101E0000612FA7010E942C0C112341F5882349F072
:101E1000D601F70188E001900D928150E1F721E0B1
:101E200001C020E080E091E06BE678E0A6010E942E
:101E30009F0A90931708809316088FEF80930908E4
:101E40008093150880E140E052E060E070E00E947D
:101E5000CD011CBC5D9821E030E04CCED601F701ED
:101E600088E001900D928150E1F721E0DBCFEF9205
:101E7000FF920F931F93CF93DF938CE284B980E39B
:101E800087B98AB981E185B980E288B989E48BB9DB
:101E90007894F999FECF81E090E00E94F61180934A
:101EA0001D0880911D08853C10F010921D0880913E
:101EB0001D088C3818F08BE880931D088FE0809304
:101EC0006C0082E0809368000E94F51028EE33E0F9
:101ED00043EA52E0CA010197F1F721503040D1F7AF
:101EE00081E06CEC71E00E94D81082E06DED71E051
:101EF0000E94D81020E137E243EA52E0CA0101977C
:101F0000F1F721503040D1F780E064E071E00E94A9
:101F1000C21081E06EEE71E00E94D81080E090E087
:101F2000A0E0B0E09C01AD0181E090E0A0E0B0E075
:101F30004B99F8CFC901DA010196A11DB11D80307E
:101F400020E0920728E0A20720E0B20759F78CE6CC
:101F500087BD82E084BD11E015BD85BF8EE0809312
:101F6000690081E06FEF71E00E94D8100E94240D9B
:101F7000892B09F4FFCF10926C0810920B08109374
:101F80001E08109206081092050810920A08109276
:101F9000240110922A018BE291E09093240880930F
:101FA00023080E94380180916E00826080936E0049
:101FB000E89AE99A1CBC81E060E172E00E94D810C6
:101FC00010E54F99CEC05D9A4E99CDC080916B08B7
:101FD000882309F0C8C03199C6C05C9880911E085A
:101FE000882309F4B3C080916E008D7F80936E00CA
:101FF00030910A083F5F3F7030930A0800911D0836
:102000000695069520911F012327809126018027A0
:10201000282B90911E019327809125018027982BD2
:102020002923909120019327809127018027982BC5
:102030002923909121019327809128018027982BB3
:102040002923909122019327809129018027982BA1
:10205000292309F48AC01CBDC02FD0E0C295D295B7
:10206000D07FDC27C07FDC27C30FD11D3091230137
:102070007E01032E02C0F694E7940A94E2F7C701AA
:1020800063E270E00E94B911262F80910908681759
:10209000B9F0609309084091140850E0415D5D4F2C
:1020A00002C0559547953A95E2F7809116089091B0
:1020B000170865E278E003E20E942C0230912301C8
:1020C000C70163E270E00E94B911FC01EE0FFF1F2F
:1020D000EB5DF74F608171816250704080E090E06D
:1020E00004C0660F771F881F991F3A95D2F7209179
:1020F000140830E021503040C223D3239E0140E039
:1021000050E0620F731F841F951FB9E0660F771FA1
:10211000881F991FBA95D1F720910C0830910D08AE
:1021200040910E0850910F08620F731F841F951F76
:102130000E94E601109206081092050810921E08EF
:102140001CBC80916E00826080936E0080911C08A0
:10215000882309F436CF10921C080E9445054F9B36
:1021600032CF5D982ECF5C9A39CF0E94F704309120
:102170000A0871CF982F8091C00085FFFCCF909303
:10218000C6000895982FFB018091C00085FFFCCF09
:102190009093C6009081992351F08091C00085FFF3
:1021A000FCCF9093C600918131969923B1F70895A1
:1021B000982FFB018091C00085FFFCCF9093C60053
:1021C0009491992351F031968091C00085FFFCCF06
:1021D0009093C60094919923B1F708958091C0001F
:1021E00087FFFCCF8091C60008951092C5008EEA4B
:1021F0008093C40088E18093C1008EE08093C20088
:1022000080E06BE171E00E94C210089528E10000B7
:102210002A95E9F70197D1F7089500000000000022
:10222000000000000895AF93AFB7AF93A0916C0882
:10223000A062A8B9BF932F9320E0EFDFB0911E08F2
:10224000BB2351F0A0E2A8B920936C082F91BF9155
:10225000AF91AFBFAF911895A0E2A8B9A8E3A5B917
:10226000A3B1A0712A2FA8E1A5B9A0910508B0914A
:1022700006081196A0930508B0930608A03999F4B2
:10228000BC3089F4A1E0A0931E08CF93DF93C0E790
:10229000B8E3D8E1A8E0B5B9D5B9AA95E1F7CA95F0
:1022A000C9F7DF91CF9120936C082F91BF91AF9127
:1022B000AFBFAF9118952F932FB72F934F9955C05C
:1022C0003F9330910B0823B122702327E1F323B110
:1022D000227020930B0828E02A95F1F700004F9315
:1022E0005F936F937F938F93EF93FF9360E0E09101
:1022F0002308F09124083DE541E00DC050910B0802
:1023000073B172707527E1F373B1727070930B083B
:102310007EE07A95F1F727E081E079B17470D1F42D
:1023200000007EE17A95F1F773B1727050910B085D
:1023300070930B08752776950000880F872B2A95D8
:1023400061F7853D09F461E06030C1F2819331505D
:102350004040A1F651E050931C08FF91EF918F91FE
:102360007F916F915F914F913F912F912FBF2F914F
:102370001895AA1BBB1B51E107C0AA1FBB1FA617BC
:10238000B70710F0A61BB70B881F991F5A95A9F71E
:1023900080959095BC01CD01089597FB092E0726E5
:1023A0000AD077FD04D0E5DF06D000201AF470953E
:1023B00061957F4F0895F6F7909581959F4F089509
:1023C000FB01DC0104C08D910190801921F4415082
:1023D0005040C8F7881B990B0895FB01DC0102C02F
:1023E00001900D9241505040D8F70895F999FECFD1
:1023F00092BD81BDF89A992780B50895262FF99945
:10240000FECF1FBA92BD81BD20BD0FB6F894FA9AD7
:0C241000F99A0FBE01960895F894FFCFD2
:10241C004E4943000066696C656E616D652E4E49D0
:0C242C00430042544600FEFFFFFFFF008B
:00000001FF
