:100000000C94E6000C947A130C94FE070C940301F4
:100010000C9487050C9403010C9403010C940301C8
:100020000C9403010C9403010C9403010C94030140
:100030000C9403010C9403010C9432130C940301EF
:100040000C9403010C9403010C9403010C94030120
:100050000C9403010C9403010C9403010C94030110
:100060000C9403010C9403010FED032196979A9BC6
:100070009D9E9FA6A7ABACADAEAFB2B3B4B5B6B7BD
:10008000B9BABBBCBDBEBFCBCDCECFD3D6D7D9DAE4
:10009000DBDCDDDEDFE5E6E7E9EAEBECEDEEEFF2F7
:1000A000F3F4F5F6F7F9FAFBFCFDFEFF00000000A3
:1000B0000000000000000000000000000000000040
:1000C0000000000000000000000000000000000030
:1000D0000000000000000000000000000000000020
:1000E0000000000000000000000000000000000010
:1000F0000000000000000000000000000000000000
:1001000000000000000000000000000000000000EF
:1001100000000000000000000000000000000000DF
:1001200000000000000000000000000000000000CF
:1001300000000000000000000000000000000000BF
:10014000000000010000020300040506000000009A
:1001500000000708000000090A0B0C0D00000E0F3C
:1001600010111213001415161718191A00000000A8
:10017000000000000000001B001C1D1E0000001FEE
:10018000000020210022232425262728000000002B
:1001900000292A2B002C2D2E2F3031320000333431
:1001A0003536373800393A3B3C3D3E3F000D0B09B0
:1001B000070503010E0C0A080604020F00020103E2
:1001C000000201030008040C0020103011241FBE9F
:1001D000CFEFD8E0DEBFCDBF11E0A0E0B1E0EAE5AF
:1001E000F8E202C005900D92A235B107D9F718E0E8
:1001F000A2E5B1E001C01D92A33AB107E1F70E9468
:1002000096110C942B140C94000020E030E04EE585
:1002100051E0249FF001259FF00D349FF00D112433
:10022000EF59FE4F80E090E01192019661E08E352B
:100230009607D1F72F5F3F4F2530310551F780E00A
:1002400090E02FEFFC01EC5AFE4F2083FC01E55AB1
:10025000FE4F2083019685309105A1F708952091E6
:100260003B0830913C084CE02039340788F488E1A1
:1002700085B998E395B985B92F5F3F4F40E12031AB
:100280003407C0F380E99CE090933C0880933B08DE
:1002900008958EBD0DB407FC06C04B9BFBCF45985F
:1002A0000DB407FEFACF08958FEF8EBD0DB407FC95
:1002B00006C04B9BFBCF45980DB407FEFACF8EB519
:1002C00008950E9454018F3FE1F70895DF92EF9265
:1002D000FF920F931F93D82E7A018B018FEF0E940C
:1002E00049018D2D805C0E944901812F9927AA2701
:1002F000BB270E944901C801AA27BB270E944901C8
:10030000BB27A12F902F8F2D0E9449018E2D0E9477
:10031000490185E90E9449018FEF0E9449011F911F
:100320000F91FF90EF90DF9008950E94540187FD98
:10033000FCCF0895DF92EF92FF920F931F93D82E78
:100340007A018B018D2DB801A7010E9466010E94E0
:100350009501882311F08F3FA9F71F910F91FF900E
:10036000EF90DF900895AB01BC0181E10E949A01FA
:100370000E9454018E3FE1F70895EF92FF920F9390
:100380001F93CF93DF937C01EB0180E148E050E0C5
:1003900060E070E00E949A01EE0CFF1CE294F2947F
:1003A00030EFF322FE24E322FE2400E010E08091EF
:1003B000550890915608A0915708B0915808E80E3A
:1003C000F91E0A1F1B1FC801B7010E94B30110E0EC
:1003D0000E94540189931F5F1830D1F70E94540185
:1003E0000E945401DF91CF911F910F91FF90EF90E8
:1003F00008956F927F928F929F92AF92BF92CF9209
:10040000DF92EF92FF920F931F93CF93DF936C01D4
:100410003B014A01B22EA02E80E142E050E060E0B4
:1004200070E00E949A016091550870915608809181
:10043000570890915808665E7F4F8F4F9F4FCC0CA6
:10044000DD1CC294D294E0EFDE22DC24CE22DC2438
:10045000EE24D7FCE094FE2C6C0D7D1D8E1D9F1D9F
:100460000E94B3010E945401082F10E00E94540121
:10047000382F20E0020F131F0E9454010E945401E4
:10048000BB2019F4F30111830083EE24FF2408C07C
:10049000FFEF073F1F0708F046C0BC1408F443C035
:1004A000E814F90408F03FC00894E11CF11CC701EE
:1004B0006A2D70E00E94EC13C62EB80180E090E037
:1004C000660F771F881F991F2091460830914708B3
:1004D0004091480850914908620F731F841F951F6F
:1004E0000E94B3010E945401082F10E00E945401A1
:1004F000D82FC0E00C0F1D1F0E9454010E94540110
:10050000CB1431F6C7016A2D70E00E94EC13FC0198
:10051000EE0FFF1FE60DF71D11830083FFEF073F6E
:100520001F0708F4BACF80E140E052E060E070E0DD
:100530000E949A01DF91CF911F910F91FF90EF9050
:10054000DF90CF90BF90AF909F908F907F906F90F3
:100550000895AF92BF92CF92DF92EF92FF920F93E6
:100560001F93CF93DF93C0904608D0904708E09048
:100570004808F090490880E140E052E060E070E017
:100580000E949A0180913D0890913E08892B09F4C0
:1005900058C0AA24BB24C701B6010E94B30101E6DA
:1005A00011E0E8010E945401899383E0C136D80725
:1005B000C9F70E9454010E9454012A9A2A98409136
:1005C0003D0850913E0860E070E0F9E0440F551F8F
:1005D000661F771FFA95D1F74C0D5D1D6E1D7F1DAF
:1005E00088E10E949A018FEF0E9449018EEF0E94DC
:1005F0004901D8018D918D010E944901B3E0013676
:100600001B07B9F78FEF0E9449018FEF0E94490144
:100610000E9454010E9461012A9A2A980894A11C00
:10062000B11C80913D0890913E08A816B90648F487
:1006300080E092E0A0E0B0E0C80ED91EEA1EFB1EEA
:10064000AACFDF91CF911F910F91FF90EF90DF9094
:10065000CF90BF90AF9008952F923F924F925F92AC
:100660006F927F928F929F92AF92BF92CF92DF92C2
:10067000EF92FF920F931F93DF93CF9300D000D0A0
:1006800000D0CDB7DEB781E693E05D9A2FEF2093DF
:100690004B0820933F0889839A83FC014FEF4193D5
:1006A00053E0E737F507D9F783E0809377038CEFC2
:1006B00080937803409379033FE330937A039FEC70
:1006C00090937B0323EF20937C0380937D034093DF
:1006D0007E0330937F039093800320938103809364
:1006E000820385ED809383039AEA9093840386E9DD
:1006F000809385038EED80938E0390938F038BEE12
:10070000809390037A968FEF819393E0E639F9070F
:10071000D9F785ED809396039AEA909397038DEA33
:10072000809398038EED8093F0049093F1048BEE08
:100730008093F204E3EFF4E08FEF8193A5E0E130E2
:10074000FA07D9F77F01F70111927F01F1E6EF1661
:10075000F5E0FF06C1F780E140E052E060E070E0C4
:100760000E949A012224662477248BB140E28427D8
:100770008BB9322C36945AEA352A2301440C551C85
:10078000AA24BB24822D8A6A8B839EEF92259C83A8
:100790002A2DF501E455FE4F1491812E9924A0FCD9
:1007A000B3C12695D301A20FB11DBE83AD83309195
:1007B00059016D01032E02C0D694C7940A94E2F742
:1007C000C60162E170E00E94D813262F80914B0889
:1007D0006817B9F060934B0840914A0850E0495EB1
:1007E0005E4F02C0559547953A95E2F780913708DC
:1007F0009091380861E675E002E10E94F9013091BC
:100800005901C60162E170E00E94D813FC01EE0FAD
:10081000FF1FEF59FA4F608171816250704080E094
:1008200090E004C0660F771F881F991F3A95D2F792
:1008300020914A0830E021503040ED81FE81E223D2
:10084000F3239F0140E050E0620F731F841F951F48
:1008500029E0660F771F881F991F2A95D1F72091ED
:100860004208309143084091440850914508620F76
:10087000731F841F951F0E94B30181E6C82E81E07B
:10088000D82E0E945401D6018D936D01B1E6CB168E
:10089000B3E0DB06B1F70E9454010E94540161E607
:1008A00071E0EFEFE0938603FEEFF0938703309261
:1008B00088034B8140938903C401969587958A6A82
:1008C00080938A03812F8A6A80938B039C8191276E
:1008D000892F86958A6A80938C039A6A90938D03F8
:1008E0008B0120E030E040E015C090E0852B892BA3
:1008F0004827E42FF0E0E459FF4FE491D901A756CF
:10090000BC4FEC932F5F3F4F0F5F1F4F482F263593
:10091000310521F1D801EC91F0E0E370F070E05482
:10092000FE4F54910A5A1F4FD801EC9106551040C2
:10093000F0E0E370F070EC53FE4F84912435310504
:10094000A0F604551F4FD801EC910C5A1040F0E06E
:10095000E370F070E853FE4F9491C8CF982F20E0D9
:1009600030E0FB01E20FF31F808186958695982782
:10097000E92FF0E0E459FF4FE491D901A151BC4FB8
:10098000EC932F5F3F4F982FB1E020303B0749F7A2
:10099000E82FF0E0E459FF4FE491E093EF04840C7A
:1009A000951C309159016401032E02C0D694C7945E
:1009B0000A94E2F7C60163E270E00E94D813262F82
:1009C00080913F086817B9F060933F0840914A084A
:1009D00050E0415D5D4F02C0559547953A95E2F76D
:1009E00080914C0890914D086BE578E003E20E94FD
:1009F000F901309159012A9A2A98C60163E270E000
:100A00000E94D813FC01EE0FFF1FE55AF74F4081FB
:100A100051814250504060E070E004C0440F551FC7
:100A2000661F771F3A95D2F780914A0890E00197A8
:100A300088229922C401A0E0B0E0480F591F6A1F24
:100A40007B1FA9E0440F551F661F771FAA95D1F79A
:100A50008091420890914308A0914408B0914508C4
:100A6000480F591F6A1F7B1F88E10E949A018FEF70
:100A70000E9449018EEF0E94490129813A81C901F2
:100A80008C01F80181918F010E944901E016F10665
:100A9000C1F7F0E1F5B98FEF0E9449018FEF0E9495
:100AA00049010E9454010E9461012A9A2A980894DF
:100AB000A11CB11C40E1A416B10409F069CE239435
:100AC00088E090E0680E791E93E2291609F04DCE79
:100AD0000E9405015D9826960FB6F894DEBF0FBE02
:100AE000CDBFCF91DF911F910F91FF90EF90DF90DD
:100AF000CF90BF90AF909F908F907F906F905F90BE
:100B00004F903F902F90089561E672E0CACE1F92F9
:100B10000F920FB60F9211242F938F939F93EF9301
:100B2000FF934F9936C096B19F70809153019817EB
:100B300081F1909353019830B1F1943009F43BC0A6
:100B4000923099F1913029F520E080915308820F7D
:100B50008770E82FE695F0E0E859FF4F24919093D5
:100B6000530180FF24C0922F9F7093FD986F809156
:100B70005308980F9093530880915308853C10F0C8
:100B800010925308809153088C3818F08BE88093AA
:100B90005308FF91EF919F918F912F910F900FBE6E
:100BA0000F901F90189522E0D0CF26E0CECF922F45
:100BB00092959F70DACF24E0C8CFBF92CF92DF9298
:100BC000EF92FF920F931F93CF93DF93B82ED62E01
:100BD000C42EC42FD0E0C295D295D07FDC27C07F31
:100BE000DC27C60FD11D309159017E01032E02C0B2
:100BF000F694E7940A94E2F7C70163E270E00E947A
:100C0000D813262F80916E008D7F80936E0080E533
:100C10008CBD80913F086817B9F060933F08409100
:100C20004A0850E0415D5D4F02C0559547953A95A1
:100C3000E2F780914C0890914D086BE578E003E273
:100C40000E94F901309159012A9A2A98C70163E25A
:100C500070E00E94D813FC01EE0FFF1FE55AF74F1A
:100C6000408151814250504060E070E004C0440F28
:100C7000551F661F771F3A95D2F780914A0890E07A
:100C80000197C823D923CE01A0E0B0E0480F591F37
:100C90006A1F7B1FE9E0440F551F661F771FEA9507
:100CA000D1F78091420890914308A0914408B091F7
:100CB0004508480F591F6A1F7B1F88E10E949A014F
:100CC0008FEF0E9449018EEF0E944901C0E0D0E001
:100CD0008FEF0E9449012196C631D105C9F783E003
:100CE0000E9449018CEF0E9449018FEF0E94490147
:100CF0008FE30E9449018FEC0E94490183EF0E941B
:100D000049018CEF0E9449018FEF0E9449018FE356
:100D10000E9449018FEC0E94490183EF0E94490122
:100D20008CEF0E94490185ED0E9449018AEA0E94E8
:100D3000490186E90E9449018FEF0E9449018EEF27
:100D40000E9449018C2D86958A6A0E9449018C2D4A
:100D50008A6A0E9449018D2D86958A6A0E944901FE
:100D60008D2D8A6A0E9449011EEF1D251C25812FA9
:100D700086958A6A0E944901812F8A6A0E944901E8
:100D80008EED0E9449018AEA0E9449018BEE0E9481
:100D900049018FEF0E9449018FEF0E9449018FEFB7
:100DA0000E9449018FEF0E9449018FEF0E94490183
:100DB0002B2D30E08EE591E0289FE001299FD00D9A
:100DC000389FD00D1124CF59DE4F00E010E08991FB
:100DD0000E9449010F5F1F4F81E00D351807B9F7D9
:100DE000C0E0D0E08FEF0E9449012196CE30D105BE
:100DF000C9F700E010E080E00E9449010F5F1F4F3B
:100E000000361105C1F78FEF0E9449018FEF0E9454
:100E100049010E9454010E9461012A9A2A981CBC2F
:100E200080916E00826080936E00DF91CF911F9160
:100E30000F91FF90EF90DF90CF90BF900895AF9209
:100E4000BF92DF92EF92FF920F931F93DF93CF93A6
:100E50000F92CDB7DEB704E5A02E01E0B02EF5016C
:100E600080818F3F81F4319681E0E935F807C1F741
:100E70000F90CF91DF911F910F91FF90EF90DF9036
:100E8000BF90AF9008951BE5E12E11E0F12E03E62F
:100E900011E090E0DD24DA94F50160816F3F39F0D4
:100EA000892FF701408199830E94DD059981F50121
:100EB000D1925F01F701D1927F01F80110829F5F0B
:100EC000025A1E4F953041F710925A0181E691E087
:100ED00090935A0880935908CBCF40915A01A42F80
:100EE000B0E08FEA90E0A89FF001A99FF00DB89FB5
:100EF000F00D1124EE0FFF1FED59FE4F80818D3A4A
:100F000061F150E08FEA90E0489FF001499FF00DB9
:100F1000589FF00D1124EE0FFF1FED59FE4F8081F9
:100F2000863909F008958EE591E0489FF001499FC8
:100F3000F00D589FF00D1124EF59FE4F878190E07E
:100F400085759070880F991F20852575282B209313
:100F5000520181E0809360010895809160018823AF
:100F600071F590914008FD01EC5AFE4F90838091FD
:100F70005308A55ABE4F869586958C939F3081F174
:100F80009D3071F1892F8F5F8F70809340084430BE
:100F900059F14F5F40935A01242F30E08EE591E0E4
:100FA000BC01269FC001279F900D369F900D1124F4
:100FB0008F599E4F90935A0880935908A2CF8091E1
:100FC000520180934008109260018F3009F099CF50
:100FD0000E942F0181E08093540840915A0191CFE3
:100FE000892F8E5F8F70D1CF0E942F010E941F0723
:100FF00081E08093540840915A0183CF1F920F9251
:101000000FB60F9211242F933F934F935F936F93DB
:101010007F938F939F93AF93BF93EF93FF9380E062
:1010200090E0A0E0B0E00BC00196A11DB11D8030A2
:1010300020E0920728E0A20720E0B20799F04B9940
:10104000F3CFFF91EF91BF91AF919F918F917F91DE
:101050006F915F914F913F912F910F900FBE0F9025
:101060001F901895F999FECF6091530881E090E0A8
:101070000E941D144598E5CF4F925F926F927F9228
:101080008F929F92AF92BF92CF92DF92EF92FF9298
:101090000F931F93CF93DF936B017C01742E652E0A
:1010A000522E432E80E140E052E060E070E00E946A
:1010B0009A01812C6EEF962E6FEFA62E6FEFB62E53
:1010C0008C209D20AE20BF20C501B4010E94B30139
:1010D00001E611E0E8010E945401899383E0C136E2
:1010E000D807C9F70E9454010E945401960131703B
:1010F0002F593E4FC901672D762D452D542D0E9445
:101100000C142A9A2A9888E1B501A4010E949A0138
:101110008FEF0E9449018EEF0E944901F8018191F1
:101120008F010E944901F3E001361F07B9F78FEFE5
:101130000E9449018FEF0E9449010E9454010E94C0
:1011400061012A9A2A98DF91CF911F910F91FF9008
:10115000EF90DF90CF90BF90AF909F908F907F9057
:101160006F905F904F9008956F927F928F929F92B1
:10117000AF92BF92CF92DF92EF92FF920F931F93A5
:10118000DF93CF93CDB7DEB7A4970FB6F894DEBF49
:101190000FBECDBF9C01F5E08F2E912C8C0E9D1EB5
:1011A000F401CE0185961192E817F907E1F7D40111
:1011B000F90188E001900D928150E1F7DE011D9662
:1011C000E0E0F1E083E001900D928150E1F780E0F2
:1011D00090E6A4E0B0E0F401848F958FA68FB78FDE
:1011E000CC24DD24EE24FF24870111C00894C11C07
:1011F000D11C80E290E0A0E0B0E0E80EF91E0A1FEA
:101200001B1F90E0C91692E0D90609F40FC180E1D6
:1012100041E050E060E070E00E949A016091550862
:101220007091560880915708909158086E0D7F1D57
:10123000801F911F0E94B3010E945401A82E0E949A
:1012400054010E9454016091550870915608809194
:10125000570890915808655F7F4F8F4F9F4F6E0DD5
:101260007F1D801F911F0E94B3010E945401B82E60
:101270000E9454010E945401F5EEAF1619F0AA2005
:1012800009F0B4CF8FE0B81609F4B0CF60915508DB
:101290007091560880915708909158086E0D7F1DE7
:1012A000801F911FA40120E230E00E943C08A09022
:1012B0005508B0905608C0905708D09058088AE159
:1012C00090E0A0E0B0E0A80EB91ECA1EDB1EAE0C76
:1012D000BF1CC01ED11E82E090E0A0E0B0E0898378
:1012E0009A83AB83BC8380914A0890E0815D9D4FD7
:1012F0000090590102C0959587950A94E2F7892BD1
:1013000009F472C0882499243E010894611C711C60
:101310001CC029813A814B815C812F5F3F4F4F4F29
:101320005F4F29833A834B835C8380914A0890E026
:10133000815D9D4F0090590102C0959587950A9453
:10134000E2F78816990608F04FC080E142E050E0CD
:1013500060E070E00E949A0169817A818B819C81B2
:10136000660F771F881F991F209146083091470804
:101370004091480850914908620F731F841F951FC0
:101380000E94B3010E945401082F10E00E945401F2
:10139000F82E0E9454010E945401EE240E0D1F1DD0
:1013A000012B09F0B6CF0894811C911CC601B50130
:1013B000A30122E030E00E943C0829813A814B8160
:1013C0005C8159016A01AA0CBB1CCC1CDD1C8091FC
:1013D000460890914708A0914808B0914908A80E86
:1013E000B91ECA1EDB1E99CFC601B5014DE451E0FE
:1013F00022E030E00E943C080E94A90221E030E097
:10140000C901A4960FB6F894DEBF0FBECDBFCF9131
:10141000DF911F910F91FF90EF90DF90CF90BF90E1
:10142000AF909F908F907F906F90089520E030E074
:10143000E7CF4F925F926F927F928F929F92AF927F
:10144000BF92CF92DF92EF92FF920F931F93DF93A1
:10145000CF93CDB7DEB7A4970FB6F894DEBF0FBE1B
:10146000CDBF9C013A014B9930C105E0802E912CF3
:101470008C0E9D1EF401CE0185961192E817F90796
:10148000E1F7D401F90188E001900D928150E1F774
:10149000DE011D96FB0183E001900D928150E1F782
:1014A000C301A0E0B0E019E0880F991FAA1FBB1F7D
:1014B0001A95D1F7F401848F958FA68FB78FCC241E
:1014C000DD24EE24FF24870111C00894C11CD11C27
:1014D00080E290E0A0E0B0E0E80EF91E0A1F1B1FBA
:1014E00090E0C91692E0D90609F4EFC080E141E02E
:1014F00050E060E070E00E949A01609155087091A0
:10150000560880915708909158086E0D7F1D801FD6
:10151000911F0E94B3010E945401A82E0E94540101
:101520000E945401609155087091560880915708A7
:1015300090915808655F7F4F8F4F9F4F6E0D7F1DB5
:10154000801F911F0E94B3010E945401B82E0E9477
:1015500054010E945401F5EEAF1619F0AA2009F0CB
:10156000B4CF8FE0B81609F4B0CF609155087091F0
:10157000560880915708909158086E0D7F1D801F66
:10158000911FA40120E230E00E943C08A090550881
:10159000B0905608C0905708D09058088AE190E063
:1015A000A0E0B0E0A80EB91ECA1EDB1EAE0CBF1C28
:1015B000C01ED11E82E090E0A0E0B0E089839A8353
:1015C000AB83BC8380914A0890E00197860D971DFC
:1015D0000090590102C0969587950A94E2F7892BED
:1015E00009F48DC0882499242E010894411C511CB3
:1015F0001DC029813A814B815C812F5F3F4F4F4F46
:101600005F4F29833A834B835C8380914A0890E043
:101610000197860D971D0090590102C096958795F8
:101620000A94E2F78816990608F069C080E142E062
:1016300050E060E070E00E949A0169817A818B81BC
:101640009C81660F771F881F991F20914608309153
:1016500047084091480850914908620F731F841F42
:10166000951F0E94B3010E945401082F10E00E94B0
:101670005401F82E0E9454010E945401EE240E0DD4
:101680001F1D012B09F0B5CF0894811C911CC601C8
:10169000B501A20122E030E00E943C0829813A8194
:1016A0004B815C8159016A01AA0CBB1CCC1CDD1C5E
:1016B0008091460890914708A0914808B091490848
:1016C000A80EB91ECA1EDB1E98CF20E030E0C9016B
:1016D000A4960FB6F894DEBF0FBECDBFCF91DF91B9
:1016E0001F910F91FF90EF90DF90CF90BF90AF9040
:1016F0009F908F907F906F905F904F900895C6015C
:10170000B5014FE451E022E030E00E943C080E9425
:10171000A90221E030E0DBCF2F923F924F925F92FF
:101720006F927F928F929F92AF92BF92CF92DF92F1
:10173000EF92FF920F931F93DF93CF93CDB7DEB756
:1017400065970FB6F894DEBF0FBECDBF9D8B8C8B17
:101750004B01AA24BB2444245524CC24DD24760147
:101760003E010894611C711C4B99F4C080E141E07A
:1017700050E060E070E00E949A016091550870911D
:10178000560880915708909158086C0D7D1D8E1D4C
:101790009F1D0E94B3010E945401182F0E94540102
:1017A0000E945401112309F469C0153009F466C080
:1017B0001E3209F463C0153E09F460C0812F8154C4
:1017C0008A3120F010531A3008F058C06091550843
:1017D000709156088091570890915808655F7F4F27
:1017E0008F4F9F4F6C0D7D1D8E1D9F1D0E94B3015D
:1017F0000E945401182F0E9454010E945401812F0D
:101800008E71E1F51F30D1F180E143E050E060E0FE
:1018100070E00E949A01609155087091560880917D
:10182000570890915808685F7F4F8F4F9F4F6C0DFE
:101830007D1D8E1D9F1D0E94B3010E94540189834E
:101840000E9454018A830E9454018B830E94540198
:101850000E945401C301B40143E050E00E94FF1311
:10186000009761F4F201EE0FFF1F8C899D89E80F4C
:10187000F91FB182A0820894411C511C0894A11C3C
:10188000B11C80E290E0A0E0B0E0C80ED91EEA1ED4
:10189000FB1E90E0A91692E0B90609F065CFA2E020
:1018A0004A16510408F459C02EEF222E2FEF322E83
:1018B000240C351C62010894C108D10866247724E1
:1018C00094E0892E912C8C0E9D1E8CE0A82EB12CBC
:1018D000AC0EBD1EC114D10499F10C891D8941E0E3
:1018E000E42EF12C08C00894E11CF11C0E5F1F4F80
:1018F000CE14DF0428F1F80182819381B4010E94A3
:10190000BD01D8018D919C91B5010E94BD01C4011A
:10191000B50148E050E00E94FF1397FFE4CFF801C3
:1019200022813381808191819383828331832083DB
:101930000894E11CF11C0E5F1F4FCE14DF04D8F693
:101940000894611C711C0894C108D108261437043E
:1019500008F603C0412C32E0532EC20165960FB643
:10196000F894DEBF0FBECDBFCF91DF911F910F91D5
:10197000FF90EF90DF90CF90BF90AF909F908F90AF
:101980007F906F905F904F903F902F9008952F928F
:101990003F924F925F926F927F928F929F92AF92FF
:1019A000BF92CF92DF92EF92FF920F931F93DF933C
:1019B000CF93CDB7DEB769970FB6F894DEBF0FBEF1
:1019C000CDBF082FF92E162F488F598F682E792EEC
:1019D000C30160E071E00E948C0B9F8B8E8B892B82
:1019E00009F46EC0E9E02E2E312C2C0E3D1ED101E3
:1019F000E4E0F1E08DE001900D928150E1F71123D8
:101A000009F093C02E010894411C511C00E010E025
:101A10004FEF5FEFEE88FF880894E108F1084E99D8
:101A200016C021E080E090E04E9920E00196E3E0CE
:101A3000883E9E07C9F7222351F04E9903C000004B
:101A40004E9BFDCF0E151F0510F40F5F1F4F4899D9
:101A500016C021E080E090E0489920E00196F3E094
:101A6000883E9F07C9F7222351F0489903C0000020
:101A7000489BFDCF1016110614F401501040189920
:101A80000CC021E080E090E0189920E0019633E05E
:101A9000883E9307C9F7222369F54017510771F073
:101AA000F801EE0FFF1FE60DF71D80819181B10156
:101AB0000E94BD0182E0B1010E94FE12A801AFCFD9
:101AC00080E069960FB6F894DEBF0FBECDBFCF9110
:101AD000DF911F910F91FF90EF90DF90CF90BF901B
:101AE000AF909F908F907F906F905F904F903F90BE
:101AF0002F900895189903C00000189BFDCF000F88
:101B0000111F600E711EF30180819181B2010E944C
:101B1000BD01888D998D9C01D901F20188E0019069
:101B20000D928150E1F781E0CCCF8E899F894C01E5
:101B3000AA24BB2481149104A104B10409F462CF46
:101B4000802F9F2D9C016901EE24FF2487012E0127
:101B50000894411C511C0FC00894E11CF11C011D8C
:101B6000111D82E090E0C80ED91EE814F9040A05A0
:101B70001B0508F04BCFF60180819181B2010E94D4
:101B8000BD01C201688D798D48E050E00E94FF13CD
:101B9000009711F787013CCF2F923F924F925F92AF
:101BA0006F927F928F929F92AF92BF92CF92DF926D
:101BB000EF92FF920F931F93DF93CF93CDB7DEB7D2
:101BC00068970FB6F894DEBF0FBECDBF9B8B8A8B94
:101BD0007D8B6C8B5F8B4E8B288FAA24BB24412C72
:101BE00012E0512E198A188A66247724CC24DD2429
:101BF0007601B8E02B2E312C2C0E3D1EA8E08A2E4B
:101C0000912C820C931C4B99EBC080E141E050E099
:101C100060E070E00E949A0160915508709156084A
:101C200080915708909158086C0D7D1D8E1D9F1D49
:101C30000E94B3010E945401182F0E9454010E9477
:101C40005401112309F4ADC0153009F4AAC01E32A5
:101C500009F4A7C0153E09F4A4C0812F81548A312C
:101C600020F010531A3008F09CC060915508709114
:101C700056088091570890915808655F7F4F8F4FA5
:101C80009F4F6C0D7D1D8E1D9F1D0E94B3010E94F4
:101C90005401182F0E9454010E945401812F8E710B
:101CA00009F07FC01F3009F47CC080E14CE050E0B7
:101CB00060E070E00E949A016091550870915608AA
:101CC00080915708909158086C0D7D1D8E1D9F1DA9
:101CD0000E94B30181010E945401D8018D938D01AE
:101CE000A815B905C1F70E9454018D830E945401C3
:101CF0008E830E9454018F83EC89FD89EF2B09F4B8
:101D0000A1C00E9454018170880F880F880FAC8990
:101D1000BD898C930E9454010E94540180E144E0EB
:101D200050E060E070E00E949A0160915508709167
:101D3000560880915708909158086A5E7F4F8F4FE0
:101D40009F4F6C0D7D1D8E1D9F1D0E94B3010E9433
:101D5000540189830E9454018A830E9454018B8319
:101D60000E9454018C830E9454010E945401CE01B0
:101D700005966A897B8943E050E00E94FF13009733
:101D800081F4B88DBB2309F047C029813A818B814A
:101D90009C816816790608F450C08615970509F4E9
:101DA00046C00894A11CB11C80E290E0A0E0B0E025
:101DB000C80ED91EEA1EFB1E90E0A91692E0B906D5
:101DC00009F021CFA0E04A16A2E05A0639F0EE89C8
:101DD000FF89EF2B19F0F88DFF23B9F1B20102C092
:101DE00060E072E0CB0168960FB6F894DEBF0FBEDC
:101DF000CDBFCF91DF911F910F91FF90EF90DF90BA
:101E0000CF90BF90AF909F908F907F906F905F909A
:101E10004F903F902F900895C1016E897F8948E0CF
:101E200050E00E94FF13009709F0BBCFAECFE889C6
:101E3000F9892E173F0708F4B4CF2501398B288B79
:101E40003C01AFCF0E94540165CF80E148E050E0F3
:101E500060E070E00E949A01B201660F771F629500
:101E60007295707F7627607F762780E090E02091E2
:101E70005508309156084091570850915808620F04
:101E8000731F841F951F0E94B30100E010E00E94A1
:101E90005401EE89FF89E00FF11F80830F5F1F4F10
:101EA00008301105A1F70E9454010E945401B201AB
:101EB00099CFCF92DF92FF920F931F93DF93CF932F
:101EC000CDB7DEB766970FB6F894DEBF0FBECDBFB5
:101ED0005D9A83E58CBD2A9A00E010E08FEF0E94A6
:101EE00049010F5F1F4F0A301105C1F72A988FEF84
:101EF0000E9449018FEF0E94490180E040E050E0DC
:101F000060E070E00E9466010E9454018130E1F7B8
:101F10002A9A2A9887E340E050E060E070E00E944F
:101F200066010E9495018F3F89F08E7F91F72A9A72
:101F30002A9889E240E050E060E070E00E9466018B
:101F40000E949501882399F08F3F11F720E030E03F
:101F5000C90166960FB6F894DEBF0FBECDBFCF9114
:101F6000DF911F910F91FF90DF90CF90089580E552
:101F70008CBD81E08DBD80E145E050E060E070E027
:101F80000E949A0166E370E080E090E00E94B30155
:101F90008E010E5F1F4F67E0C62ED12CCC0EDD1ECA
:101FA0000E945401F80181938F01EC15FD05C1F7E2
:101FB0000E9454010E9454018A818634A9F48B81C5
:101FC000813491F48C81843579F48D81813361F48D
:101FD0008E81863349F410924E0810924F08109269
:101FE00050081092510870C080E144E050E060E079
:101FF00070E00E949A0166EC71E080E090E00E943F
:10200000B3010E94540190E0A0E0B0E080934E083C
:1020100090934F08A0935008B09351080E94540128
:1020200090E0A0E0B0E0BA2FA92F982F8827209148
:102030004E0830914F084091500850915108280F98
:10204000391F4A1F5B1F20934E0830934F0840935F
:102050005008509351080E94540190E0A0E0B0E075
:10206000DC019927882720914E0830914F08409134
:10207000500850915108280F391F4A1F5B1F2093A9
:102080004E0830934F0840935008509351080E94D7
:10209000540180914E0890914F08A0915008B09142
:1020A000510839E0880F991FAA1FBB1F3A95D1F735
:1020B00080934E0890934F08A0935008B093510816
:1020C0000E9454010E94540180E143E050E060E02E
:1020D00070E00E949A0160914E0870914F088091C3
:1020E000500890915108635F7F4F8F4F9F4F0E9420
:1020F000B3010E9454018983898180934A08109218
:1021000059018981813051F090E09F5F89818695E6
:10211000898389818130C9F7909359010E945401C4
:10212000082F10E00E945401F82E0E9454010E94D2
:1021300054019F2D80E0800F911FA0E0B0E029E0C6
:10214000880F991FAA1FBB1F2A95D1F720914E080F
:1021500030914F084091500850915108820F931FC1
:10216000A41FB51F8093460890934708A093480882
:10217000B093490880E142E050E060E070E00E94E6
:102180009A0160914E0870914F088091500890918B
:1021900051086A5E7F4F8F4F9F4F0E94B3010E948C
:1021A000540180933D0810923E080E945401382F3C
:1021B00020E080913D0890913E08820F931F9093FC
:1021C0003E0880933D080E9454010E945401809172
:1021D0003D0890913E08A0E0B0E00AE0880F991F0A
:1021E000AA1FBB1F0A95D1F72091460830914708D6
:1021F0004091480850914908820F931FA41FB51FB2
:102200008093550890935608A0935708B0935808A8
:102210008050904CAF4FBF4F80934208909343083B
:10222000A0934408B09345088E01015F1F4F81E1E0
:1022300091E060E070E0A80120E00E94CC0D909356
:102240003A0880933908FF24F2E080309F0711F0AC
:10225000FF24F39481E691E06F2DA8010E94C70C42
:10226000FF2061F5882309F520E080E091E061EA34
:1022700078E0A6010E94CC0D9C0190934D088093BC
:102280004C082050324019F18FEF80933F08809323
:102290004B0880E140E052E060E070E00E949A016B
:1022A0001CBC5D9821E030E053CED601F80188E0F7
:1022B00001900D928150E1F721E0D7CFD601F801CE
:1022C00088E001900D928150E1F721E0CECF85E1C9
:1022D00091E060E070E0A6012F2D0E94CC0D90935C
:1022E000380880933708E2E080309E0709F42ECE4C
:1022F000C60160E071E040E352E00E94190A892BB8
:1023000009F424CE80E091E061EA78E0A6012F2D67
:102310000E94CC0D90934D0880934C08F2E08030E1
:102320009F0709F413CE0E942C03AECFEF92FF92C9
:102330000F931F93CF93DF938CE284B980E387B927
:102340008AB981E185B980E288B989E48BB978944A
:10235000F999FECF81E090E00E9415148093530814
:1023600080915308853C10F01092530880915308D7
:102370008C3818F08BE8809353088FE080936C00C2
:1023800082E0809368000E94141381E069E171E0AB
:102390000E94FE1280E090E0A0E0B0E09C01AD0160
:1023A00081E090E0A0E0B0E04B99F8CFC901DA01FC
:1023B0000196A11DB11D803020E0920728E0A20700
:1023C00020E0B20759F78CE687BD82E084BD11E0BA
:1023D00015BD85BF8EE08093690081E06AE271E0FF
:1023E0000E94FE120E94590F892B09F4FFCF109210
:1023F000A208109241081093540810923C081092C1
:102400003B081092400810925A011092600181E638
:1024100091E090935A08809359080E940501809199
:102420006E00826080936E00E89AE99A1CBC81E09D
:102430006BE371E00E94FE1210E54F99CEC05D9AE9
:102440004E99CDC08091A108882309F0C8C0319968
:10245000C6C05C9880915408882309F4B3C0809169
:102460006E008D7F80936E00309140083F5F3F701B
:102470003093400800915308069506952091550128
:10248000232780915C018027282B9091540193276A
:1024900080915B018027982B2923909156019327E7
:1024A00080915D018027982B2923909157019327D4
:1024B00080915E018027982B2923909158019327C2
:1024C00080915F018027982B292309F48AC01CBDC5
:1024D000C02FD0E0C295D295D07FDC27C07FDC270B
:1024E000C30FD11D309159017E01032E02C0F69415
:1024F000E7940A94E2F7C70163E270E00E94D81300
:10250000262F80913F086817B9F060933F084091EB
:102510004A0850E0415D5D4F02C0559547953A9598
:10252000E2F780914C0890914D086BE578E003E26A
:102530000E94F90130915901C70163E270E00E94E5
:10254000D813FC01EE0FFF1FE55AF74F6081718130
:102550006250704080E090E004C0660F771F881FD3
:10256000991F3A95D2F720914A0830E02150304027
:10257000C223D3239E0140E050E0620F731F841FEB
:10258000951FE9E0660F771F881F991FEA95D1F71D
:1025900020914208309143084091440850914508E9
:1025A000620F731F841F951F0E94B30110923C0895
:1025B00010923B08109254081CBC80916E008260FF
:1025C00080936E0080915208882309F436CF1092D0
:1025D00052080E946D074F9B32CF5D982ECF5C9AB8
:1025E00039CF0E941F073091400871CF982F8091FA
:1025F000C00085FFFCCF9093C6000895982FFB0183
:102600008091C00085FFFCCF9093C60090819923F4
:1026100051F08091C00085FFFCCF9093C60091815E
:1026200031969923B1F708951092C5008EEA8093F0
:10263000C40088E08093C1008EE08093C20080E0F7
:1026400061E571E00E94FE12089528E100002A95DC
:10265000E9F70197D1F7089500000000000000009D
:1026600000000895AF93AFB7AF93A091A208A06206
:10267000A8B9BF932F9320E0EFDFB0915408BB239C
:1026800051F0A0E2A8B92093A2082F91BF91AF9179
:10269000AFBFAF911895A0E2A8B9A8E3A5B9A3B1BF
:1026A000A0712A2FA8E1A5B9A0913B08B0913C08E0
:1026B0001196A0933B08B0933C08A03999F4BC3024
:1026C00089F4A1E0A0935408CF93DF93C0E7B8E367
:1026D000D8E1A8E0B5B9D5B9AA95E1F7CA95C9F787
:1026E000DF91CF912093A2082F91BF91AF91AFBFFF
:1026F000AF9118952F932FB72F934F9955C03F93B4
:102700003091410823B122702327E1F323B12270D5
:102710002093410828E02A95F1F700004F935F933A
:102720006F937F938F93EF93FF9360E0E09159084D
:10273000F0915A083DE541E00DC05091410873B158
:1027400072707527E1F373B17270709341087EE087
:102750007A95F1F727E081E079B17470D1F4000047
:102760007EE17A95F1F773B17270509141087093E0
:102770004108752776950000880F872B2A9561F709
:10278000853D09F461E06030C1F2819331504040F1
:10279000A1F651E050935208FF91EF918F917F91F4
:1027A0006F915F914F913F912F912FBF2F9118956E
:1027B000AA1BBB1B51E107C0AA1FBB1FA617B70767
:1027C00010F0A61BB70B881F991F5A95A9F7809583
:1027D0009095BC01CD01089597FB092E07260AD0DC
:1027E00077FD04D0E5DF06D000201AF470956195DE
:1027F0007F4F0895F6F7909581959F4F0895FB01BF
:10280000DC0104C08D910190801921F441505040A9
:10281000C8F7881B990B0895FB01DC0102C00190E9
:102820000D9241505040D8F70895F999FECF92BDCE
:1028300081BDF89A992780B50895262FF999FECF82
:102840001FBA92BD81BD20BD0FB6F894FA9AF99ACD
:0A2850000FBE01960895F894FFCF23
:10285A004E49430066696C656E616D652E4E49434B
:10286A00004254460044534B00202020204E4F2063
:10287A004449534B202020202000202053454C451A
:10288A004354204449534B20202000204449534BB1
:10289A0020494E534552544544202000FEFFFFFF75
:0228AA00FF002D
:00000001FF
