:100000000C94E6000C948C130C94FE070C940301E2
:100010000C9487050C9403010C9403010C940301C8
:100020000C9403010C9403010C9403010C94030140
:100030000C9403010C9403010C9444130C940301DD
:100040000C9403010C9403010C9403010C94030120
:100050000C9403010C9403010C9403010C94030110
:100060000C9403010C9403010FED032196979A9BC6
:100070009D9E9FA6A7ABACADAEAFB2B3B4B5B6B7BD
:10008000B9BABBBCBDBEBFCBCDCECFD3D6D7D9DAE4
:10009000DBDCDDDEDFE5E6E7E9EAEBECEDEEEFF2F7
:1000A000F3F4F5F6F7F9FAFBFCFDFEFF00000000A3
:1000B0000000000000000000000000000000000040
:1000C0000000000000000000000000000000000030
:1000D0000000000000000000000000000000000020
:1000E0000000000000000000000000000000000010
:1000F0000000000000000000000000000000000000
:1001000000000000000000000000000000000000EF
:1001100000000000000000000000000000000000DF
:1001200000000000000000000000000000000000CF
:1001300000000000000000000000000000000000BF
:10014000000000010000020300040506000000009A
:1001500000000708000000090A0B0C0D00000E0F3C
:1001600010111213001415161718191A00000000A8
:10017000000000000000001B001C1D1E0000001FEE
:10018000000020210022232425262728000000002B
:1001900000292A2B002C2D2E2F3031320000333431
:1001A0003536373800393A3B3C3D3E3F000D0B09B0
:1001B000070503010E0C0A080604020F00020103E2
:1001C000000201030008040C0020103011241FBE9F
:1001D000CFEFD8E0DEBFCDBF11E0A0E0B1E0EEE7A9
:1001E000F8E202C005900D92AC3DB107D9F719E0D5
:1001F000ACEDB1E001C01D92AD32B107E1F70E9454
:10020000A1110C943D140C94000020E030E04EE568
:1002100051E0249FF001259FF00D349FF00D112433
:10022000E551FE4F80E090E01192019661E08E353D
:100230009607D1F72F5F3F4F2530310551F780E00A
:1002400090E02FEFFC01E252FE4F2083FC01EB51C6
:10025000FE4F2083019685309105A1F708952091E6
:10026000C5083091C6084CE02039340788F488E18D
:1002700085B998E395B985B92F5F3F4F40E12031AB
:100280003407C0F380E99CE09093C6088093C508CA
:1002900008958EBD0DB407FC06C04B9BFBCF45985F
:1002A0000DB407FEFACF08958FEF8EBD0DB407FC95
:1002B00006C04B9BFBCF45980DB407FEFACF8EB519
:1002C00008950E9454018F3FE1F70895DF92EF9265
:1002D000FF920F931F93D82E7A018B018FEF0E940C
:1002E00049018D2D805C0E944901812F9927AA2701
:1002F000BB270E944901C801AA27BB270E944901C8
:10030000BB27A12F902F8F2D0E9449018E2D0E9477
:10031000490185E90E9449018FEF0E9449011F911F
:100320000F91FF90EF90DF9008950E94540187FD98
:10033000FCCF0895DF92EF92FF920F931F93D82E78
:100340007A018B018D2DB801A7010E9466010E94E0
:100350009501882311F08F3FA9F71F910F91FF900E
:10036000EF90DF900895AB01BC0181E10E949A01FA
:100370000E9454018E3FE1F70895EF92FF920F9390
:100380001F93CF93DF937C01EB0180E148E050E0C5
:1003900060E070E00E949A01EE0CFF1CE294F2947F
:1003A00030EFF322FE24E322FE2400E010E08091EF
:1003B000DF089091E008A091E108B091E208E80E12
:1003C000F91E0A1F1B1FC801B7010E94B30110E0EC
:1003D0000E94540189931F5F1830D1F70E94540185
:1003E0000E945401DF91CF911F910F91FF90EF90E8
:1003F00008956F927F928F929F92AF92BF92CF9209
:10040000DF92EF92FF920F931F93CF93DF936C01D4
:100410003B014A01B22EA02E80E142E050E060E0B4
:1004200070E00E949A016091DF087091E00880916D
:10043000E1089091E208665E7F4F8F4F9F4FCC0C92
:10044000DD1CC294D294E0EFDE22DC24CE22DC2438
:10045000EE24D7FCE094FE2C6C0D7D1D8E1D9F1D9F
:100460000E94B3010E945401082F10E00E94540121
:10047000382F20E0020F131F0E9454010E945401E4
:10048000BB2019F4F30111830083EE24FF2408C07C
:10049000FFEF073F1F0708F046C0BC1408F443C035
:1004A000E814F90408F03FC00894E11CF11CC701EE
:1004B0006A2D70E00E94FE13C62EB80180E090E025
:1004C000660F771F881F991F2091D0083091D1089F
:1004D0004091D2085091D308620F731F841F951F5B
:1004E0000E94B3010E945401082F10E00E945401A1
:1004F000D82FC0E00C0F1D1F0E9454010E94540110
:10050000CB1431F6C7016A2D70E00E94FE13FC0186
:10051000EE0FFF1FE60DF71D11830083FFEF073F6E
:100520001F0708F4BACF80E140E052E060E070E0DD
:100530000E949A01DF91CF911F910F91FF90EF9050
:10054000DF90CF90BF90AF909F908F907F906F90F3
:100550000895AF92BF92CF92DF92EF92FF920F93E6
:100560001F93CF93DF93C090D008D090D108E09034
:10057000D208F090D30880E140E052E060E070E003
:100580000E949A018091C7089091C808892B09F4AC
:1005900058C0AA24BB24C701B6010E94B3010BEEC8
:1005A00011E0E8010E945401899383E0CB3ED80713
:1005B000C9F70E9454010E9454012A9A2A98409136
:1005C000C7085091C80860E070E0F9E0440F551F7B
:1005D000661F771FFA95D1F74C0D5D1D6E1D7F1DAF
:1005E00088E10E949A018FEF0E9449018EEF0E94DC
:1005F0004901D8018D918D010E944901B3E00B3E64
:100600001B07B9F78FEF0E9449018FEF0E94490144
:100610000E9454010E9461012A9A2A980894A11C00
:10062000B11C8091C7089091C808A816B90648F473
:1006300080E092E0A0E0B0E0C80ED91EEA1EFB1EEA
:10064000AACFDF91CF911F910F91FF90EF90DF9094
:10065000CF90BF90AF9008952F923F924F925F92AC
:100660006F927F928F929F92AF92BF92CF92DF92C2
:10067000EF92FF920F931F93DF93CF9300D000D0A0
:1006800000D0CDB7DEB78BEE93E05D9A2FEF2093CD
:10069000D5082093C90889839A83FC014FEF4193C1
:1006A00054E0E130F507D9F783E0809301048CEF43
:1006B00080930204409303043FE3309304049FECCF
:1006C0009093050423EF209306048093070440933E
:1006D00008043093090490930A0420930B04809338
:1006E0000C0485ED80930D049AEA90930E0486E93C
:1006F00080930F048EED80931804909319048BEE71
:1007000080931A047A968FEF819394E0E032F90790
:10071000D9F785ED809320049AEA909321048DEA1D
:10072000809322048EED80937A0590937B058BEE67
:1007300080937C05EDE7F5E08FEF8193A5E0EB3842
:10074000FA07D9F77F01F70111927F01FBEEEF164F
:10075000F5E0FF06C1F780E140E052E060E070E0C4
:100760000E949A012224662477248BB140E28427D8
:100770008BB9322C36945AEA352A2301440C551C85
:10078000AA24BB24822D8A6A8B839EEF92259C83A8
:100790002A2DF501E455FE4F1491812E9924A0FCD9
:1007A000B3C12695D301A20FB11DBE83AD83309195
:1007B000E3016D01032E02C0D694C7940A94E2F7B8
:1007C000C60162E170E00E94EA13262F8091D508ED
:1007D0006817B9F06093D5084091D40850E0495E9D
:1007E0005E4F02C0559547953A95E2F78091C10852
:1007F0009091C2086BEE75E002E10E94F901309120
:10080000E301C60162E170E00E94EA13FC01EE0F11
:10081000FF1FE551FA4F608171816250704080E0A6
:1008200090E004C0660F771F881F991F3A95D2F792
:100830002091D40830E021503040ED81FE81E22348
:10084000F3239F0140E050E0620F731F841F951F48
:1008500029E0660F771F881F991F2A95D1F72091ED
:10086000CC083091CD084091CE085091CF08620F4E
:10087000731F841F951F0E94B3018BEEC82E81E069
:10088000D82E0E945401D6018D936D01BBEECB167C
:10089000B3E0DB06B1F70E9454010E9454016BEEF5
:1008A00071E0EFEFE0931004FEEFF093110430924B
:1008B00012044B8140931304C401969587958A6A6C
:1008C00080931404812F8A6A809315049C81912758
:1008D000892F86958A6A809316049A6A90931704E2
:1008E0008B0120E030E040E015C090E0852B892BA3
:1008F0004827E42FF0E0E459FF4FE491D901AD5DC2
:10090000BB4FEC932F5F3F4F0F5F1F4F482F263594
:10091000310521F1D801EC91F0E0E370F070E05482
:10092000FE4F54910A5A1F4FD801EC9106551040C2
:10093000F0E0E370F070EC53FE4F84912435310504
:10094000A0F604551F4FD801EC910C5A1040F0E06E
:10095000E370F070E853FE4F9491C8CF982F20E0D9
:1009600030E0FB01E20FF31F808186958695982782
:10097000E92FF0E0E459FF4FE491D901A758BB4FAC
:10098000EC932F5F3F4F982FB1E020303B0749F7A2
:10099000E82FF0E0E459FF4FE491E0937905840CEF
:1009A000951C3091E3016401032E02C0D694C794D4
:1009B0000A94E2F7C60163E270E00E94EA13262F70
:1009C0008091C9086817B9F06093C9084091D408AC
:1009D00050E0415D5D4F02C0559547953A95E2F76D
:1009E0008091D6089091D70865EE78E003E20E94E6
:1009F000F9013091E3012A9A2A98C60163E270E076
:100A00000E94EA13FC01EE0FFF1FEB51F74F4081EC
:100A100051814250504060E070E004C0440F551FC7
:100A2000661F771F3A95D2F78091D40890E001971E
:100A300088229922C401A0E0B0E0480F591F6A1F24
:100A40007B1FA9E0440F551F661F771FAA95D1F79A
:100A50008091CC089091CD08A091CE08B091CF089C
:100A6000480F591F6A1F7B1F88E10E949A018FEF70
:100A70000E9449018EEF0E94490129813A81C901F2
:100A80008C01F80181918F010E944901E016F10665
:100A9000C1F7F0E1F5B98FEF0E9449018FEF0E9495
:100AA00049010E9454010E9461012A9A2A980894DF
:100AB000A11CB11C40E1A416B10409F069CE239435
:100AC00088E090E0680E791E93E2291609F04DCE79
:100AD0000E9405015D9826960FB6F894DEBF0FBE02
:100AE000CDBFCF91DF911F910F91FF90EF90DF90DD
:100AF000CF90BF90AF909F908F907F906F905F90BE
:100B00004F903F902F9008956BEE72E0CACE1F92E7
:100B10000F920FB60F9211242F938F939F93EF9301
:100B2000FF934F9936C096B19F708091DD01981761
:100B300081F19093DD019830B1F1943009F43BC01C
:100B4000923099F1913029F520E08091DD08820FF3
:100B50008770E82FE695F0E0E859FF4F24919093D5
:100B6000DD0180FF24C0922F9F7093FD986F8091CC
:100B7000DD08980F9093DD088091DD08853C10F02A
:100B80001092DD088091DD088C3818F08BE8809396
:100B9000DD08FF91EF919F918F912F910F900FBEE4
:100BA0000F901F90189522E0D0CF26E0CECF922F45
:100BB00092959F70DACF24E0C8CFBF92CF92DF9298
:100BC000EF92FF920F931F93CF93DF93B82ED62E01
:100BD000C42EC42FD0E0C295D295D07FDC27C07F31
:100BE000DC27C60FD11D3091E3017E01032E02C028
:100BF000F694E7940A94E2F7C70163E270E00E947A
:100C0000EA13262F80916E008D7F80936E0080E521
:100C10008CBD8091C9086817B9F06093C9084091EC
:100C2000D40850E0415D5D4F02C0559547953A9517
:100C3000E2F78091D6089091D70865EE78E003E25C
:100C40000E94F9013091E3012A9A2A98C70163E2D0
:100C500070E00E94EA13FC01EE0FFF1FEB51F74F0B
:100C6000408151814250504060E070E004C0440F28
:100C7000551F661F771F3A95D2F78091D40890E0F0
:100C80000197C823D923CE01A0E0B0E0480F591F37
:100C90006A1F7B1FE9E0440F551F661F771FEA9507
:100CA000D1F78091CC089091CD08A091CE08B09159
:100CB000CF08480F591F6A1F7B1F88E10E949A01C5
:100CC0008FEF0E9449018EEF0E944901C0E0D0E001
:100CD0008FEF0E9449012196C631D105C9F783E003
:100CE0000E9449018CEF0E9449018FEF0E94490147
:100CF0008FE30E9449018FEC0E94490183EF0E941B
:100D000049018CEF0E9449018FEF0E9449018FE356
:100D10000E9449018FEC0E94490183EF0E94490122
:100D20008CEF0E94490185ED0E9449018AEA0E94E8
:100D3000490186E90E9449018FEF0E9449018EEF27
:100D40000E9449018C2D86958A6A0E9449018C2D4A
:100D50008A6A0E9449018D2D86958A6A0E944901FE
:100D60008D2D8A6A0E9449011EEF1D251C25812FA9
:100D700086958A6A0E944901812F8A6A0E944901E8
:100D80008EED0E9449018AEA0E9449018BEE0E9481
:100D900049018FEF0E9449018FEF0E9449018FEFB7
:100DA0000E9449018FEF0E9449018FEF0E94490183
:100DB0002B2D30E08EE591E0289FE001299FD00D9A
:100DC000389FD00D1124C551DE4F00E010E089910D
:100DD0000E9449010F5F1F4F81E00D351807B9F7D9
:100DE000C0E0D0E08FEF0E9449012196CE30D105BE
:100DF000C9F700E010E080E00E9449010F5F1F4F3B
:100E000000361105C1F78FEF0E9449018FEF0E9454
:100E100049010E9454010E9461012A9A2A981CBC2F
:100E200080916E00826080936E00DF91CF911F9160
:100E30000F91FF90EF90DF90CF90BF900895AF9209
:100E4000BF92DF92EF92FF920F931F93DF93CF93A6
:100E50000F92CDB7DEB70EEDA02E01E0B02EF5015A
:100E600080818F3F81F4319681E0E33EF807C1F73E
:100E70000F90CF91DF911F910F91FF90EF90DF9036
:100E8000BF90AF90089515EEE12E11E0F12E0DEE1A
:100E900011E090E0DD24DA94F50160816F3F39F0D4
:100EA000892FF701408199830E94DD059981F50121
:100EB000D1925F01F701D1927F01F80110829F5F0B
:100EC000025A1E4F953041F71092E4018BEE91E0EB
:100ED0009093E4088093E308CBCF4091E401A42FE2
:100EE000B0E08FEA90E0A89FF001A99FF00DB89FB5
:100EF000F00D1124EE0FFF1FE351FE4F80818D3A5C
:100F000061F150E08FEA90E0489FF001499FF00DB9
:100F1000589FF00D1124EE0FFF1FE351FE4F80810B
:100F2000863909F008958EE591E0489FF001499FC8
:100F3000F00D589FF00D1124E551FE4F878190E090
:100F400085759070880F991F20852575282B209313
:100F5000DC0181E08093EA0108958091EA01882311
:100F600071F59091CA08FD01E252FE4F9083809185
:100F7000DD08AB51BE4F869586958C939F3081F1ED
:100F80009D3071F1892F8F5F8F708093CA08443034
:100F900059F14F5F4093E401242F30E08EE591E05A
:100FA000BC01269FC001279F900D369F900D1124F4
:100FB00085519E4F9093E4088093E308A2CF8091DF
:100FC000DC018093CA081092EA018F3009F099CFB2
:100FD0000E942F0181E08093DE084091E40191CFCF
:100FE000892F8E5F8F70D1CF0E942F010E941F0723
:100FF00081E08093DE084091E40183CF1F920F923D
:101000000FB60F9211242F933F934F935F936F93DB
:101010007F938F939F93AF93BF93EF93FF9380E062
:1010200090E0A0E0B0E00BC00196A11DB11D8030A2
:1010300020E0920728E0A20720E0B20799F04B9940
:10104000F3CFFF91EF91BF91AF919F918F917F91DE
:101050006F915F914F913F912F910F900FBE0F9025
:101060001F901895F999FECF6091DD0881E090E01E
:101070000E942F144598E5CF4F925F926F927F9216
:101080008F929F92AF92BF92CF92DF92EF92FF9298
:101090000F931F93CF93DF936B017C01742E652E0A
:1010A000522E432E80E140E052E060E070E00E946A
:1010B0009A01812C6EEF962E6FEFA62E6FEFB62E53
:1010C0008C209D20AE20BF20C501B4010E94B30139
:1010D0000BEE11E0E8010E945401899383E0CB3EBE
:1010E000D807C9F70E9454010E945401960131703B
:1010F00025513E4FC901672D762D452D542D0E9457
:101100001E142A9A2A9888E1B501A4010E949A0126
:101110008FEF0E9449018EEF0E944901F8018191F1
:101120008F010E944901F3E00B3E1F07B9F78FEFD3
:101130000E9449018FEF0E9449010E9454010E94C0
:1011400061012A9A2A98DF91CF911F910F91FF9008
:10115000EF90DF90CF90BF90AF909F908F907F9057
:101160006F905F904F9008956F927F928F929F92B1
:10117000AF92BF92CF92DF92EF92FF920F931F93A5
:10118000DF93CF93CDB7DEB7A4970FB6F894DEBF49
:101190000FBECDBF9C01F5E08F2E912C8C0E9D1EB5
:1011A000F401CE0185961192E817F907E1F7D40111
:1011B000F90188E001900D928150E1F7DE011D9662
:1011C000E0E0F1E083E001900D928150E1F780E0F2
:1011D00090E6A4E0B0E0F401848F958FA68FB78FDE
:1011E000CC24DD24EE24FF24870111C00894C11C07
:1011F000D11C80E290E0A0E0B0E0E80EF91E0A1FEA
:101200001B1F90E0C91692E0D90609F40FC180E1D6
:1012100041E050E060E070E00E949A016091DF08D8
:101220007091E0088091E1089091E2086E0D7F1DB9
:10123000801F911F0E94B3010E945401A82E0E949A
:1012400054010E9454016091DF087091E008809180
:10125000E1089091E208655F7F4F8F4F9F4F6E0DC1
:101260007F1D801F911F0E94B3010E945401B82E60
:101270000E9454010E945401F5EEAF1619F0AA2005
:1012800009F0B4CF8FE0B81609F4B0CF6091DF0851
:101290007091E0088091E1089091E2086E0D7F1D49
:1012A000801F911FA40120E230E00E943C08A09022
:1012B000DF08B090E008C090E108D090E2088AE131
:1012C00090E0A0E0B0E0A80EB91ECA1EDB1EAE0C76
:1012D000BF1CC01ED11E82E090E0A0E0B0E0898378
:1012E0009A83AB83BC838091D40890E0815D9D4F4D
:1012F0000090E30102C0959587950A94E2F7892B47
:1013000009F472C0882499243E010894611C711C60
:101310001CC029813A814B815C812F5F3F4F4F4F29
:101320005F4F29833A834B835C838091D40890E09C
:10133000815D9D4F0090E30102C0959587950A94C9
:10134000E2F78816990608F04FC080E142E050E0CD
:1013500060E070E00E949A0169817A818B819C81B2
:10136000660F771F881F991F2091D0083091D108F0
:101370004091D2085091D308620F731F841F951FAC
:101380000E94B3010E945401082F10E00E945401F2
:10139000F82E0E9454010E945401EE240E0D1F1DD0
:1013A000012B09F0B6CF0894811C911CC601B50130
:1013B000A30122E030E00E943C0829813A814B8160
:1013C0005C8159016A01AA0CBB1CCC1CDD1C8091FC
:1013D000D0089091D108A091D208B091D308A80E5E
:1013E000B91ECA1EDB1E99CFC601B50146ED51E0FC
:1013F00022E030E00E943C080E94A90221E030E097
:10140000C901A4960FB6F894DEBF0FBECDBFCF9131
:10141000DF911F910F91FF90EF90DF90CF90BF90E1
:10142000AF909F908F907F906F90089520E030E074
:10143000E7CF4F925F926F927F928F929F92AF927F
:10144000BF92CF92DF92EF92FF920F931F93DF93A1
:10145000CF93CDB7DEB7A4970FB6F894DEBF0FBE1B
:10146000CDBF9C013A014B9930C105E0802E912CF3
:101470008C0E9D1EF401CE0185961192E817F90796
:10148000E1F7D401F90188E001900D928150E1F774
:10149000DE011D96FB0183E001900D928150E1F782
:1014A000C301A0E0B0E019E0880F991FAA1FBB1F7D
:1014B0001A95D1F7F401848F958FA68FB78FCC241E
:1014C000DD24EE24FF24870111C00894C11CD11C27
:1014D00080E290E0A0E0B0E0E80EF91E0A1F1B1FBA
:1014E00090E0C91692E0D90609F4EFC080E141E02E
:1014F00050E060E070E00E949A016091DF08709116
:10150000E0088091E1089091E2086E0D7F1D801F38
:10151000911F0E94B3010E945401A82E0E94540101
:101520000E9454016091DF087091E0088091E10809
:101530009091E208655F7F4F8F4F9F4F6E0D7F1D2B
:10154000801F911F0E94B3010E945401B82E0E9477
:1015500054010E945401F5EEAF1619F0AA2009F0CB
:10156000B4CF8FE0B81609F4B0CF6091DF08709166
:10157000E0088091E1089091E2086E0D7F1D801FC8
:10158000911FA40120E230E00E943C08A090DF08F7
:10159000B090E008C090E108D090E2088AE190E0C5
:1015A000A0E0B0E0A80EB91ECA1EDB1EAE0CBF1C28
:1015B000C01ED11E82E090E0A0E0B0E089839A8353
:1015C000AB83BC838091D40890E00197860D971D72
:1015D0000090E30102C0969587950A94E2F7892B63
:1015E00009F48DC0882499242E010894411C511CB3
:1015F0001DC029813A814B815C812F5F3F4F4F4F46
:101600005F4F29833A834B835C838091D40890E0B9
:101610000197860D971D0090E30102C0969587956E
:101620000A94E2F78816990608F069C080E142E062
:1016300050E060E070E00E949A0169817A818B81BC
:101640009C81660F771F881F991F2091D0083091C9
:10165000D1084091D2085091D308620F731F841FA4
:10166000951F0E94B3010E945401082F10E00E94B0
:101670005401F82E0E9454010E945401EE240E0DD4
:101680001F1D012B09F0B5CF0894811C911CC601C8
:10169000B501A20122E030E00E943C0829813A8194
:1016A0004B815C8159016A01AA0CBB1CCC1CDD1C5E
:1016B0008091D0089091D108A091D208B091D30820
:1016C000A80EB91ECA1EDB1E98CF20E030E0C9016B
:1016D000A4960FB6F894DEBF0FBECDBFCF91DF91B9
:1016E0001F910F91FF90EF90DF90CF90BF90AF9040
:1016F0009F908F907F906F905F904F900895C6015C
:10170000B50148ED51E022E030E00E943C080E9423
:10171000A90221E030E0DBCF2F923F924F925F92FF
:101720006F927F928F929F92AF92BF92CF92DF92F1
:10173000EF92FF920F931F93DF93CF93CDB7DEB756
:1017400065970FB6F894DEBF0FBECDBF9D8B8C8B17
:101750004B01AA24BB2444245524CC24DD24760147
:101760003E010894611C711C4B99F4C080E141E07A
:1017700050E060E070E00E949A016091DF08709193
:10178000E0088091E1089091E2086C0D7D1D8E1DAE
:101790009F1D0E94B3010E945401182F0E94540102
:1017A0000E945401112309F469C0153009F466C080
:1017B0001E3209F463C0153E09F460C0812F8154C4
:1017C0008A3120F010531A3008F058C06091DF08B9
:1017D0007091E0088091E1089091E208655F7F4F89
:1017E0008F4F9F4F6C0D7D1D8E1D9F1D0E94B3015D
:1017F0000E945401182F0E9454010E945401812F0D
:101800008E71E1F51F30D1F180E143E050E060E0FE
:1018100070E00E949A016091DF087091E008809169
:10182000E1089091E208685F7F4F8F4F9F4F6C0DEA
:101830007D1D8E1D9F1D0E94B3010E94540189834E
:101840000E9454018A830E9454018B830E94540198
:101850000E945401C301B40143E050E00E941114FE
:10186000009761F4F201EE0FFF1F8C899D89E80F4C
:10187000F91FB182A0820894411C511C0894A11C3C
:10188000B11C80E290E0A0E0B0E0C80ED91EEA1ED4
:10189000FB1E90E0A91692E0B90609F065CFA2E020
:1018A0004A16510408F459C02EEF222E2FEF322E83
:1018B000240C351C62010894C108D10866247724E1
:1018C00094E0892E912C8C0E9D1E8CE0A82EB12CBC
:1018D000AC0EBD1EC114D10499F10C891D8941E0E3
:1018E000E42EF12C08C00894E11CF11C0E5F1F4F80
:1018F000CE14DF0428F1F80182819381B4010E94A3
:10190000BD01D8018D919C91B5010E94BD01C4011A
:10191000B50148E050E00E94111497FFE4CFF801B0
:1019200022813381808191819383828331832083DB
:101930000894E11CF11C0E5F1F4FCE14DF04D8F693
:101940000894611C711C0894C108D108261437043E
:1019500008F603C0412C32E0532EC20165960FB643
:10196000F894DEBF0FBECDBFCF91DF911F910F91D5
:10197000FF90EF90DF90CF90BF90AF909F908F90AF
:101980007F906F905F904F903F902F9008952F928F
:101990003F924F925F926F927F928F929F92AF92FF
:1019A000BF92CF92DF92EF92FF920F931F93DF933C
:1019B000CF93CDB7DEB768970FB6F894DEBF0FBEF2
:1019C000CDBF9B8B8A8B7D8B6C8B5F8B4E8B288FD7
:1019D000AA24BB24412CB2E05B2E198A188A662403
:1019E0007724CC24DD247601A8E02A2E312C2C0E7D
:1019F0003D1EF8E08F2E912C820C931C4B99EBC06E
:101A000080E141E050E060E070E00E949A01609166
:101A1000DF087091E0088091E1089091E2086C0D78
:101A20007D1D8E1D9F1D0E94B3010E945401182F21
:101A30000E9454010E945401112309F4ADC01530D5
:101A400009F4AAC01E3209F4A7C0153E09F4A4C0C7
:101A5000812F81548A3120F010531A3008F09CC035
:101A60006091DF087091E0088091E1089091E208B0
:101A7000655F7F4F8F4F9F4F6C0D7D1D8E1D9F1D8E
:101A80000E94B3010E945401182F0E9454010E9429
:101A90005401812F8E7109F07FC01F3009F47CC082
:101AA00080E14CE050E060E070E00E949A016091BB
:101AB000DF087091E0088091E1089091E2086C0DD8
:101AC0007D1D8E1D9F1D0E94B30181010E94540146
:101AD000D8018D938D01A815B905C1F70E94540155
:101AE0008D830E9454018E830E9454018F83EC8960
:101AF000FD89EF2B09F4A1C00E9454018170880F69
:101B0000880F880FAC89BD898C930E9454010E9474
:101B1000540180E144E050E060E070E00E949A01EE
:101B20006091DF087091E0088091E1089091E208EF
:101B30006A5E7F4F8F4F9F4F6C0D7D1D8E1D9F1DC9
:101B40000E94B3010E94540189830E9454018A8338
:101B50000E9454018B830E9454018C830E94540183
:101B60000E945401CE0105966A897B8943E050E0CA
:101B70000E941114009781F4B88DBB2309F047C06F
:101B800029813A818B819C816816790608F450C0BE
:101B90008615970509F446C00894A11CB11C80E283
:101BA00090E0A0E0B0E0C80ED91EEA1EFB1E90E057
:101BB000A91692E0B90609F021CFA0E04A16A2E0EA
:101BC0005A0639F0EE89FF89EF2B19F0F88DFF23C3
:101BD000B9F1B20102C060E072E0CB0168960FB6C5
:101BE000F894DEBF0FBECDBFCF91DF911F910F9153
:101BF000FF90EF90DF90CF90BF90AF909F908F902D
:101C00007F906F905F904F903F902F900895C1010B
:101C10006E897F8948E050E00E941114009709F016
:101C2000BBCFAECFE889F9892E173F0708F4B4CFB0
:101C30002501398B288B3C01AFCF0E94540165CF21
:101C400080E148E050E060E070E00E949A01B2015B
:101C5000660F771F62957295707F7627607F762773
:101C600080E090E02091DF083091E0084091E108A9
:101C70005091E208620F731F841F951F0E94B301E9
:101C800000E010E00E945401EE89FF89E00FF11F8F
:101C900080830F5F1F4F08301105A1F70E94540188
:101CA0000E945401B20199CF2F923F924F925F92BE
:101CB0006F927F928F929F92AF92BF92CF92DF925C
:101CC000EF92FF920F931F93DF93CF93CDB7DEB7C1
:101CD00067970FB6F894DEBF0FBECDBF182F092F40
:101CE000F62E4E8B5F8BA82EB92EC50160E071E0F9
:101CF0000E948C0B1C010097E9F1DE011996E5E0CA
:101D0000F1E08DE001900D928150E1F7FF2009F0A4
:101D10006DC02E010894411C511C00E010E0EE241F
:101D2000EA94FE2C61010894C108D10883E064E0C4
:101D300071E00E9409130E941F138535D9F1843484
:101D400099F18335E9F1E016F10691F0F801EE0F13
:101D5000FF1FEA0DFB1D80819181BE01675F7F4FF0
:101D60000E94BD0182E0BE01675F7F4F0E940913A0
:101D70007801DCCF80E067960FB6F894DEBF0FBE27
:101D8000CDBFCF91DF911F910F91FF90EF90DF902A
:101D9000CF90BF90AF909F908F907F906F905F900B
:101DA0004F903F902F9008951016110664F6015041
:101DB0001040C9CF0C151D0530F60F5F1F4FC3CF64
:101DC000000F111FA00EB11EF50180819181B2019B
:101DD0000E94BD018E899F899C01D901F20188E092
:101DE00001900D928150E1F781E0C5CF3101882447
:101DF0009924611471048104910409F48ACF812F1C
:101E0000902F9C016901EE24FF2487012E01089484
:101E1000411C511C0FC00894E11CF11C011D111D37
:101E200082E090E0C80ED91EE614F70408051905F3
:101E300008F073CFF60180819181B2010E94BD014B
:101E4000C2016E897F8948E050E00E94111400971A
:101E500011F7870164CFCF92DF92FF920F931F9308
:101E6000DF93CF93CDB7DEB766970FB6F894DEBF9A
:101E70000FBECDBF5D9A83E58CBD2A9A00E010E0CD
:101E80008FEF0E9449010F5F1F4F0A301105C1F704
:101E90002A988FEF0E9449018FEF0E94490180E04C
:101EA00040E050E060E070E00E9466010E94540152
:101EB0008130E1F72A9A62E171E00E9409132A98C1
:101EC00087E340E050E060E070E00E9466010E941D
:101ED00095018F3F99F08E7F91F72A9A2A9889E28F
:101EE00040E050E060E070E00E9466010E949501D1
:101EF0008823A9F08F3F11F02A9AE1CF20E030E04B
:101F0000C90166960FB6F894DEBF0FBECDBFCF9164
:101F1000DF911F910F91FF90DF90CF90089580E5A2
:101F20008CBD81E08DBD80E145E050E060E070E077
:101F30000E949A0166E370E080E090E00E94B301A5
:101F40008E010E5F1F4F77E0C72ED12CCC0EDD1E09
:101F50000E945401F80181938F01EC15FD05C1F732
:101F60000E9454010E9454018A818634A9F48B8115
:101F7000813491F48C81843579F48D81813361F4DD
:101F80008E81863349F41092D8081092D9081092A5
:101F9000DA081092DB0870C080E144E050E060E0B5
:101FA00070E00E949A0166EC71E080E090E00E948F
:101FB000B3010E94540190E0A0E0B0E08093D80803
:101FC0009093D908A093DA08B093DB080E945401DB
:101FD00090E0A0E0B0E0BA2FA92F982F8827209199
:101FE000D8083091D9084091DA085091DB08280FC1
:101FF000391F4A1F5B1F2093D8083093D90840939C
:10200000DA085093DB080E94540190E0A0E0B0E0B1
:10201000DC01992788272091D8083091D908409170
:10202000DA085091DB08280F391F4A1F5B1F2093E5
:10203000D8083093D9084093DA085093DB080E94FF
:1020400054018091D8089091D908A091DA08B091F4
:10205000DB0849E0880F991FAA1FBB1F4A95D1F7DB
:102060008093D8089093D908A093DA08B093DB083E
:102070000E9454010E94540180E143E050E060E07E
:1020800070E00E949A016091D8087091D9088091FF
:10209000DA089091DB08635F7F4F8F4F9F4F0E945C
:1020A000B3010E945401898389818093D4081092DE
:1020B000E3018981813051F090E09F5F89818695AD
:1020C000898389818130C9F79093E3010E9454018B
:1020D000082F10E00E945401F82E0E9454010E9423
:1020E00054019F2D80E0800F911FA0E0B0E039E007
:1020F000880F991FAA1FBB1F3A95D1F72091D808C6
:102100003091D9084091DA085091DB08820F931F73
:10211000A41FB51F8093D0089093D108A093D20834
:10212000B093D30880E142E050E060E070E00E94AC
:102130009A016091D8087091D9088091DA0890913D
:10214000DB086A5E7F4F8F4F9F4F0E94B3010E9452
:1021500054018093C7081092C8080E945401382F78
:1021600020E08091C7089091C808820F931F909338
:10217000C8088093C7080E9454010E9454018091AE
:10218000C7089091C808A0E0B0E02AE0880F991F26
:10219000AA1FBB1F2A95D1F72091D0083091D108F2
:1021A0004091D2085091D308820F931FA41FB51FEE
:1021B0008093DF089093E008A093E108B093E208D1
:1021C0008050904CAF4FBF4F8093CC089093CD0878
:1021D000A093CE08B093CF088E01015F1F4F83E21A
:1021E00091E060E070E0A80120E00E94C70C9093AD
:1021F000C4088093C308FF24F2E080309F0711F0E9
:10220000FF24F3948BEE91E06F2DA8010E94540EF1
:10221000FF2009F048C08823C1F581E067E271E042
:102220000E94091320E080E091E06BE279E0A601D2
:102230000E94C70C9093D7088093D60881E068E38A
:1022400071E00E9409138091D6089091D7088050C0
:10225000924089F181E061E971E00E9409138FEFFA
:102260008093C9088093D50880E140E052E060E0A7
:1022700070E00E949A011CBC5D9881E062EA71E006
:102280000E94091321E030E03BCED601F80188E03E
:1022900001900D928150E1F781E067E271E00E94C8
:1022A000091321E0C0CFD601F80188E001900D921A
:1022B0008150E1F7F1CF89E491E060E070E0A601A0
:1022C0002F2D0E94C70C9093C2088093C10881E013
:1022D0006DE471E00E9409138091C1089091C208D9
:1022E0008050924009F40ACE81E06EE571E00E94D0
:1022F0000913C60160E071E040E352E00E94190A50
:10230000892B09F4FBCD81E06FE671E00E9409138F
:1023100080E091E06BE279E0A6012F2D0E94C70CCE
:102320009093D7088093D608F2E080309F0709F495
:10233000E5CD81E060E871E00E9409130E942C0362
:1023400089CFEF92FF920F931F93CF93DF938CE28D
:1023500084B980E387B98AB981E185B980E288B917
:1023600089E48BB97894F999FECF81E090E00E94DE
:1023700027148093DD088091DD08853C10F01092D1
:10238000DD088091DD088C3818F08BE88093DD083B
:102390008FE080936C0082E0809368000E94261397
:1023A00081E063EB71E00E94091380E090E0A0E01F
:1023B000B0E09C01AD0181E090E0A0E0B0E04B997D
:1023C000F8CFC901DA010196A11DB11D803020E0CE
:1023D000920728E0A20720E0B20759F78CE687BDF4
:1023E00082E084BD11E015BD85BF8EE08093690059
:1023F00081E062E171E00E9409130E942B0F892B9A
:1024000009F4FFCF10922C091092CB081093DE082C
:102410001092C6081092C5081092CA081092E401E2
:102420001092EA018BEE91E09093E4088093E30828
:102430000E94050180916E00826080936E00E89A90
:10244000E99A1CBC81E064EC71E00E94091310E57C
:102450004F99CEC05D9A4E99CDC080912B098823AB
:1024600009F0C8C03199C6C05C988091DE08882305
:1024700009F4B3C080916E008D7F80936E0030911F
:10248000CA083F5F3F703093CA080091DD08069587
:1024900006952091DF0123278091E6018027282BD4
:1024A0009091DE0193278091E5018027982B2923C5
:1024B0009091E00193278091E7018027982B2923B1
:1024C0009091E10193278091E8018027982B29239F
:1024D0009091E20193278091E9018027982B29238D
:1024E00009F48AC01CBDC02FD0E0C295D295D07F20
:1024F000DC27C07FDC27C30FD11D3091E3017E01B3
:10250000032E02C0F694E7940A94E2F7C70163E24F
:1025100070E00E94EA13262F8091C9086817B9F06D
:102520006093C9084091D40850E0415D5D4F02C0FE
:10253000559547953A95E2F78091D6089091D7083E
:1025400065EE78E003E20E94F9013091E301C701F2
:1025500063E270E00E94EA13FC01EE0FFF1FEB51F3
:10256000F74F608171816250704080E090E004C05C
:10257000660F771F881F991F3A95D2F72091D408CC
:1025800030E021503040C223D3239E0140E050E090
:10259000620F731F841F951FE9E0660F771F881F66
:1025A000991FEA95D1F72091CC083091CD08409140
:1025B000CE085091CF08620F731F841F951F0E9491
:1025C000B3011092C6081092C5081092DE081CBC18
:1025D00080916E00826080936E008091DC08882379
:1025E00009F436CF1092DC080E946D074F9B32CF62
:1025F0005D982ECF5C9A39CF0E941F073091CA0890
:1026000071CF982F8091C00085FFFCCF9093C600BA
:102610000895982FFB018091C00085FFFCCF909317
:10262000C6009081992351F08091C00085FFFCCFB6
:102630009093C600918131969923B1F708958091C6
:10264000C00087FFFCCF8091C60008951092C5009E
:102650008EEA8093C40088E08093C1008EE080936E
:10266000C20080E06AED71E00E940913089528E13C
:1026700000002A95E9F70197D1F7089500000000BE
:102680000000000000000895AF93AFB7AF93A09192
:102690002C09A062A8B9BF932F9320E0EFDFB0917F
:1026A000DE08BB2351F0A0E2A8B920932C092F919A
:1026B000BF91AF91AFBFAF911895A0E2A8B9A8E3C1
:1026C000A5B9A3B1A0712A2FA8E1A5B9A091C50809
:1026D000B091C6081196A093C508B093C608A0395A
:1026E00099F4BC3089F4A1E0A093DE08CF93DF9386
:1026F000C0E7B8E3D8E1A8E0B5B9D5B9AA95E1F744
:10270000CA95C9F7DF91CF9120932C092F91BF91E2
:10271000AF91AFBFAF9118952F932FB72F934F99CC
:1027200055C03F933091CB0823B122702327E1F3AA
:1027300023B122702093CB0828E02A95F1F70000FE
:102740004F935F936F937F938F93EF93FF9360E02B
:10275000E091E308F091E4083DE541E00DC05091BF
:10276000CB0873B172707527E1F373B17270709317
:10277000CB087EE07A95F1F727E081E079B17470BB
:10278000D1F400007EE17A95F1F773B17270509147
:10279000CB087093CB08752776950000880F872BA0
:1027A0002A9561F7853D09F461E06030C1F28193BB
:1027B00031504040A1F651E05093DC08FF91EF9179
:1027C0008F917F916F915F914F913F912F912FBF8B
:1027D0002F911895AA1BBB1B51E107C0AA1FBB1F55
:1027E000A617B70710F0A61BB70B881F991F5A959D
:1027F000A9F780959095BC01CD01089597FB092E0E
:1028000007260AD077FD04D0E5DF06D000201AF4B1
:10281000709561957F4F0895F6F7909581959F4F3C
:102820000895FB01DC0104C08D910190801921F411
:1028300041505040C8F7881B990B0895FB01DC01FB
:1028400002C001900D9241505040D8F70895F99977
:10285000FECF92BD81BDF89A992780B50895262FA5
:10286000F999FECF1FBA92BD81BD20BD0FB6F89475
:0E287000FA9AF99A0FBE01960895F894FFCFD8
:10287E004E4943000066696C656E616D652E4E496A
:10288E004300202053454C454354204449534B208C
:10289E0020200042544600202053454C45435420EE
:1028AE004449534B36202000202053454C45435479
:1028BE00204449534B3631200044534B00202053C3
:1028CE00454C454354204449534B3632200020207A
:1028DE0053454C454354204449534B363320002036
:1028EE002053454C454354204449534B3634200025
:1028FE00202053454C454354204449534B363520F4
:10290E0000202053454C454354204449534B372017
:10291E002000202053454C454354204449534B3806
:10292E00202000202020204E4F204449534B2020B1
:10293E0020202000204449534B20494E53455254E9
:0C294E004544202000FEFFFFFFFF0000BA
:00000001FF
