:100000000C944C010C946E2F0C9423020C946901F7
:100010000C94CD010C9469010C9469010C94690154
:100020000C9469010C9469010C9469010C946901A8
:100030000C9469010C9469010C94262F0C946901AD
:100040000C9469010C9469010C9469010C94690188
:100050000C9469010C9469010C9469010C94690178
:100060000C9469010C9469010FED032196979A9BFA
:100070009D9E9FA6A7ABACADAEAFB2B3B4B5B6B7BD
:10008000B9BABBBCBDBEBFCBCDCECFD3D6D7D9DAE4
:10009000DBDCDDDEDFE5E6E7E9EAEBECEDEEEFF2F7
:1000A000F3F4F5F6F7F9FAFBFCFDFEFF00000000A3
:1000B0000000000000000000000000000000000040
:1000C0000000000000000000000000000000000030
:1000D0000000000000000000000000000000000020
:1000E0000000000000000000000000000000000010
:1000F0000000000000000000000000000000000000
:1001000000000000000000000000000000000000EF
:1001100000000000000000000000000000000000DF
:1001200000000000000000000000000000000000CF
:1001300000000000000000000000000000000000BF
:10014000000000010000020300040506000000009A
:1001500000000708000000090A0B0C0D00000E0F3C
:1001600010111213001415161718191A00000000A8
:10017000000000000000001B001C1D1E0000001FEE
:10018000000020210022232425262728000000002B
:1001900000292A2B002C2D2E2F3031320000333431
:1001A0003536373800393A3B3C3D3E3F000D0B09B0
:1001B000070503010E0C0A080604020F00020103E2
:1001C000000201030008040C0020103020205344DA
:1001D00049534B205D5B204C4344202000202046A7
:1001E0004170706C65322032303136202000202082
:1001F00020204E4F204449534B20202020200053E4
:10020000454C454354204E494320494D4147450004
:10021000204449534B20494E5345525445442020D5
:10022000002046494C45204E4F5420464F554E44E1
:10023000200053656C656374204E494320696D61ED
:10024000676500204E6F20696D6167652068657283
:10025000652120004E49433A2020202020202020E4
:1002600020202020006275696C64696E67206C69CB
:1002700073742E2E2E00736F7274696E67206C6912
:1002800073742E2E2E2000506172746974696F6E23
:100290003A2020202020200011241FBECFEFD8E0DC
:1002A000DEBFCDBF11E0A0E0B1E0E2E4F0E602C0C5
:1002B00005900D92AC31B107D9F718E0ACE1B1E08F
:1002C00001C01D92AD36B107E1F70E94B32B0C942B
:1002D0001F300C94000020E030E04EE551E0249FF8
:1002E000F001259FF00D349FF00D1124E55DFE4FC8
:1002F00080E090E01192019661E08E359607D1F78B
:100300002F5F3F4F2530310551F78FEF80931E014E
:100310008093250180931F01809326018093200103
:1003200080932701809321018093280180932201EB
:1003300080932901089520910508309106084CE02A
:100340002039340788F488E185B998E395B985B9EF
:100350002F5F3F4F40E120313407C0F380E99CE03C
:10036000909306088093050808958EBD0DB407FC90
:1003700006C04B9BFBCF45980DB407FEFACF0895FE
:100380008FEF8EBD0DB407FC06C04B9BFBCF45988D
:100390000DB407FEFACF8EB508951F920F920FB6D7
:1003A0000F9211242F938F939F93EF93FF934F9965
:1003B00036C096B19F7080911D01981781F190937E
:1003C0001D019830B1F1943009F43BC0923099F19D
:1003D000913029F520E080911D08820F8770E82F69
:1003E000E695F0E0E859FF4F249190931D0180FFBE
:1003F00024C0922F9F7093FD986F80911D08980FD5
:1004000090931D0880911D08853C10F010921D08E6
:1004100080911D088C3818F08BE880931D08FF919F
:10042000EF919F918F912F910F900FBE0F901F9082
:10043000189522E0D0CF26E0CECF922F92959F70D4
:10044000DACF24E0C8CF1F920F920FB60F9211247B
:100450002F933F934F935F936F937F938F939F93CC
:10046000AF93BF93EF93FF9380E090E0A8E0B0E0FC
:1004700004C00197A109B10999F04B99FACFFF91F6
:10048000EF91BF91AF919F918F917F916F915F910C
:100490004F913F912F910F900FBE0F901F90189585
:1004A000F999FECF60911D0881E090E00E94113023
:1004B0004598E5CF982F8FEF8EBD0DB407FC06C091
:1004C0004B9BFBCF45980DB407FEFACF905C9EBDC9
:1004D0000DB407FC06C04B9BFBCF45980DB407FE3F
:1004E000FACF872F9927AA27BB278EBD0DB407FC0B
:1004F00006C04B9BFBCF45980DB407FEFACFCB014E
:10050000AA27BB278EBD0DB407FC06C04B9BFBCFB3
:1005100045980DB407FEFACFBB27A72F962F852F3E
:100520008EBD0DB407FC06C04B9BFBCF45980DB4A8
:1005300007FEFACF4EBD0DB407FC06C04B9BFBCFA8
:1005400045980DB407FEFACF85E98EBD0DB407FCC2
:1005500006C04B9BFBCF45980DB407FEFACF8FEF3B
:100560008EBD0DB407FC06C04B9BFBCF45980DB468
:1005700007FEFACF08959FEF9EBD0DB407FC06C09D
:100580004B9BFBCF45980DB407FEFACF8EB58F3F3E
:1005900099F708959FEF9EBD0DB407FC06C04B9BD5
:1005A000FBCF45980DB407FEFACF8EB587FDF3CF8C
:1005B00008951F93182F105C872F9927AA27BB2710
:1005C000F82FCB01AA27BB27E82FBB27A72F962FF1
:1005D000852F3FEF95E93EBD0DB407FC06C04B9B50
:1005E000FBCF45980DB407FEFACF1EBD0DB407FC36
:1005F00006C04B9BFBCF45980DB407FEFACFFEBD5E
:100600000DB407FC06C04B9BFBCF45980DB407FE0D
:10061000FACFEEBD0DB407FC06C04B9BFBCF45984F
:100620000DB407FEFACF8EBD0DB407FC06C04B9B80
:10063000FBCF45980DB407FEFACF4EBD0DB407FCB5
:1006400006C04B9BFBCF45980DB407FEFACF9EBD6D
:100650000DB407FC06C04B9BFBCF45980DB407FEBD
:10066000FACF3EBD0DB407FC06C04B9BFBCF4598AF
:100670000DB407FEFACF3EBD0DB407FC06C04B9B80
:10068000FBCF45980DB407FEFACF2EB527FDF3CF6B
:10069000222319F02F3F09F09ECF1F910895292F93
:1006A000332744275527B22F9C0144275527A22FD3
:1006B000272F382F492F5527FFEF81E595E9FEBDFC
:1006C0000DB407FC06C04B9BFBCF45980DB407FE4D
:1006D000FACF8EBD0DB407FC06C04B9BFBCF4598EF
:1006E0000DB407FEFACFBEBD0DB407FC06C04B9B90
:1006F000FBCF45980DB407FEFACFAEBD0DB407FC95
:1007000006C04B9BFBCF45980DB407FEFACF2EBD1C
:100710000DB407FC06C04B9BFBCF45980DB407FEFC
:10072000FACF6EBD0DB407FC06C04B9BFBCF4598BE
:100730000DB407FEFACF9EBD0DB407FC06C04B9B5F
:10074000FBCF45980DB407FEFACFFEBD0DB407FCF4
:1007500006C04B9BFBCF45980DB407FEFACFFEBDFC
:100760000DB407FC06C04B9BFBCF45980DB407FEAC
:10077000FACFEEB5E7FDF3CFEE2319F0EF3F09F026
:100780009ECF9FEF9EBD0DB407FC06C04B9BFBCFD9
:1007900045980DB407FEFACF8EB58E3F99F70895B0
:1007A0002F923F924F925F926F927F928F929F9281
:1007B000AF92BF92CF92DF92EF92FF920F931F936F
:1007C000CF93DF93E0901008F09011080091120889
:1007D000109113089FEF20E532E045E99EBD0DB46E
:1007E00007FC06C04B9BFBCF45980DB407FEFACF24
:1007F0002EBD0DB407FC06C04B9BFBCF45980DB436
:1008000007FEFACF1EBC0DB407FC06C04B9BFBCF06
:1008100045980DB407FEFACF1EBC0DB407FC06C008
:100820004B9BFBCF45980DB407FEFACF3EBD0DB4F0
:1008300007FC06C04B9BFBCF45980DB407FEFACFD3
:100840001EBC0DB407FC06C04B9BFBCF45980DB4F6
:1008500007FEFACF4EBD0DB407FC06C04B9BFBCF85
:1008600045980DB407FEFACF9EBD0DB407FC06C037
:100870004B9BFBCF45980DB407FEFACF9EBD0DB440
:1008800007FC06C04B9BFBCF45980DB407FEFACF83
:100890008EB587FDF3CF882319F08F3F09F09ECFE7
:1008A00060900708709008086114710409F493C1FE
:1008B000882499243FEFE1E55E2E75E9472E332425
:1008C0003A945301CC24DD2469E0AA0CBB1CCC1C57
:1008D000DD1C6A95D1F758E5252E812F9927AA2787
:1008E000BB27582FC801AA27BB27482FBB27A12FFA
:1008F000902F8F2D3EBC0DB407FC06C04B9BFBCF49
:1009000045980DB407FEFACF5EBC0DB407FC06C0D7
:100910004B9BFBCF45980DB407FEFACF5EBD0DB4DF
:1009200007FC06C04B9BFBCF45980DB407FEFACFE2
:100930004EBD0DB407FC06C04B9BFBCF45980DB4D4
:1009400007FEFACF8EBD0DB407FC06C04B9BFBCF54
:1009500045980DB407FEFACFEEBC0DB407FC06C0F7
:100960004B9BFBCF45980DB407FEFACF4EBC0DB4A0
:1009700007FC06C04B9BFBCF45980DB407FEFACF92
:100980003EBD0DB407FC06C04B9BFBCF45980DB494
:1009900007FEFACF3EBD0DB407FC06C04B9BFBCF54
:1009A00045980DB407FEFACF2EB527FDF3CF2223CD
:1009B00019F02F3F09F09ECF3EBD0DB407FC06C0D5
:1009C0004B9BFBCF45980DB407FEFACF8EB58E3FFB
:1009D00099F7CBE2D1E0FE013EBD0DB407FC06C0A5
:1009E0004B9BFBCF45980DB407FEFACF8EB5819394
:1009F00083E0EB32F80781F73EBD0DB407FC06C07B
:100A00004B9BFBCF45980DB407FEFACF8EB53EBD8C
:100A10000DB407FC06C04B9BFBCF45980DB407FEF9
:100A2000FACF8EB52A9A2A98B801A7014A0D5B1D04
:100A30006C1D7D1D872F9927AA27BB27F82FCB0177
:100A4000AA27BB27E82FBB27A72F962F852F3EBDB0
:100A50000DB407FC06C04B9BFBCF45980DB407FEB9
:100A6000FACF2EBC0DB407FC06C04B9BFBCF4598BC
:100A70000DB407FEFACFFEBD0DB407FC06C04B9BBC
:100A8000FBCF45980DB407FEFACFEEBD0DB407FCC1
:100A900006C04B9BFBCF45980DB407FEFACF8EBD29
:100AA0000DB407FC06C04B9BFBCF45980DB407FE69
:100AB000FACF4EBD0DB407FC06C04B9BFBCF45984B
:100AC0000DB407FEFACF4EBC0DB407FC06C04B9B1D
:100AD000FBCF45980DB407FEFACF3EBD0DB407FC21
:100AE00006C04B9BFBCF45980DB407FEFACF3EBD29
:100AF0000DB407FC06C04B9BFBCF45980DB407FE19
:100B0000FACF2EB527FDF3CF222319F02F3F09F09E
:100B10009ECF3EBD0DB407FC06C04B9BFBCF459856
:100B20000DB407FEFACF9EEF9EBD0DB407FC06C0C4
:100B30004B9BFBCF45980DB407FEFACF88818EBD45
:100B40000DB407FC06C04B9BFBCF45980DB407FEC8
:100B5000FACF2196A3E0CB32DA0781F73EBD0DB480
:100B600007FC06C04B9BFBCF45980DB407FEFACFA0
:100B70003EBD0DB407FC06C04B9BFBCF45980DB4A2
:100B800007FEFACF3EBD0DB407FC06C04B9BFBCF62
:100B900045980DB407FEFACF8EB53EBD0DB407FCE7
:100BA00006C04B9BFBCF45980DB407FEFACF8EB520
:100BB0008F3F99F72A9A2A980894811C911C8614D1
:100BC000970448F480E092E0A0E0B0E0E80EF91E5F
:100BD0000A1F1B1F82CEDF91CF911F910F91FF90B3
:100BE000EF90DF90CF90BF90AF909F908F907F90CD
:100BF0006F905F904F903F902F9008952F923F926B
:100C00004F925F926F927F928F929F92AF92BF921C
:100C1000CF92DF92EF92FF920F931F93CF93DF93C8
:100C2000FC013B012A01C22E302E9FEF20E532E06D
:100C300045E99EBD0DB407FC06C04B9BFBCF459814
:100C40000DB407FEFACF2EBD0DB407FC06C04B9BBA
:100C5000FBCF45980DB407FEFACF1EBC0DB407FCC0
:100C600006C04B9BFBCF45980DB407FEFACF1EBCC8
:100C70000DB407FC06C04B9BFBCF45980DB407FE97
:100C8000FACF1EBC0DB407FC06C04B9BFBCF4598AA
:100C90000DB407FEFACF3EBD0DB407FC06C04B9B5A
:100CA000FBCF45980DB407FEFACF4EBD0DB407FC3F
:100CB00006C04B9BFBCF45980DB407FEFACF9EBDF7
:100CC0000DB407FC06C04B9BFBCF45980DB407FE47
:100CD000FACF9EBD0DB407FC06C04B9BFBCF4598D9
:100CE0000DB407FEFACF8EB587FDF3CF882319F038
:100CF0008F3F09F09ECF40911F08509120086091CE
:100D0000210870912208465E5F4F6F4F7F4FEE0FB4
:100D1000FF1FE295F295F07FFE27E07FFE27CF01CF
:100D2000AA2797FDA095BA2F480F591F6A1F7B1F4E
:100D3000872F9927AA27BB27F82FCB01AA27BB27E4
:100D4000E82FBB27A72F962F852F3FEF91E5A5E929
:100D50003EBD0DB407FC06C04B9BFBCF45980DB4C0
:100D600007FEFACF9EBD0DB407FC06C04B9BFBCF20
:100D700045980DB407FEFACFFEBD0DB407FC06C0C2
:100D80004B9BFBCF45980DB407FEFACFEEBD0DB4DB
:100D900007FC06C04B9BFBCF45980DB407FEFACF6E
:100DA0008EBD0DB407FC06C04B9BFBCF45980DB420
:100DB00007FEFACF4EBD0DB407FC06C04B9BFBCF20
:100DC00045980DB407FEFACFAEBD0DB407FC06C0C2
:100DD0004B9BFBCF45980DB407FEFACF3EBD0DB43B
:100DE00007FC06C04B9BFBCF45980DB407FEFACF1E
:100DF0003EBD0DB407FC06C04B9BFBCF45980DB420
:100E000007FEFACF2EB527FDF3CF222319F02F3F8F
:100E100009F09ECF9FEF9EBD0DB407FC06C04B9B13
:100E2000FBCF45980DB407FEFACF8EB58E3F99F7EC
:100E30008FEF8EBD0DB407FC06C04B9BFBCF4598D2
:100E40000DB407FEFACF9EB58FEF8EBD0DB407FC33
:100E500006C04B9BFBCF45980DB407FEFACF8EB56D
:100E6000382F20E0E901C90FD11D8FEF8EBD0DB4E1
:100E700007FC06C04B9BFBCF45980DB407FEFACF8D
:100E80008EB58FEF8EBD0DB407FC06C04B9BFBCF1C
:100E900045980DB407FEFACF8EB5CC2019F4F301B6
:100EA000D183C0838090100890901108A090120800
:100EB000B090130800E010E03FEF41E5242E041548
:100EC000150508F0CBC00F5F1F4FC801632D70E000
:100ED0000E94E02FD62EAE0160E070E0440F551F57
:100EE000661F771F480D591D6A1D7B1D872F992787
:100EF000AA27BB27F82FCB01AA27BB27E82FBB27A0
:100F0000A72F962F852F3EBD0DB407FC06C04B9B27
:100F1000FBCF45980DB407FEFACF2EBC0DB407FCED
:100F200006C04B9BFBCF45980DB407FEFACFFEBD24
:100F30000DB407FC06C04B9BFBCF45980DB407FED4
:100F4000FACFEEBD0DB407FC06C04B9BFBCF459816
:100F50000DB407FEFACF8EBD0DB407FC06C04B9B47
:100F6000FBCF45980DB407FEFACF4EBD0DB407FC7C
:100F700006C04B9BFBCF45980DB407FEFACF95E911
:100F80009EBD0DB407FC06C04B9BFBCF45980DB42E
:100F900007FEFACF3EBD0DB407FC06C04B9BFBCF4E
:100FA00045980DB407FEFACF3EBD0DB407FC06C050
:100FB0004B9BFBCF45980DB407FEFACF2EB527FD0E
:100FC000F3CF222319F02F3F09F09DCF3EBD0DB482
:100FD00007FC06C04B9BFBCF45980DB407FEFACF2C
:100FE0008EB58E3F99F73EBD0DB407FC06C04B9BF6
:100FF000FBCF45980DB407FEFACF9EB53EBD0DB4AC
:1010000007FC06C04B9BFBCF45980DB407FEFACFFB
:101010008EB5F82EEE24E701C90FD11D3EBD0DB4EB
:1010200007FC06C04B9BFBCF45980DB407FEFACFDB
:101030008EB53EBD0DB407FC06C04B9BFBCF45985B
:101040000DB407FEFACF8EB5DC1409F480C0EFEFC3
:10105000C73FDE0718F4CD1408F031CF9FEF20E52D
:1010600032E045E99EBD0DB407FC06C04B9BFBCFAB
:1010700045980DB407FEFACF2EBD0DB407FC06C08F
:101080004B9BFBCF45980DB407FEFACF1EBC0DB4A9
:1010900007FC06C04B9BFBCF45980DB407FEFACF6B
:1010A0001EBC0DB407FC06C04B9BFBCF45980DB48E
:1010B00007FEFACF3EBD0DB407FC06C04B9BFBCF2D
:1010C00045980DB407FEFACF1EBC0DB407FC06C050
:1010D0004B9BFBCF45980DB407FEFACF4EBD0DB428
:1010E00007FC06C04B9BFBCF45980DB407FEFACF1B
:1010F0009EBD0DB407FC06C04B9BFBCF45980DB4BD
:1011000007FEFACF9EBD0DB407FC06C04B9BFBCF7C
:1011100045980DB407FEFACF8EB587FDF3CF88232F
:1011200019F08F3F09F09ECFDF91CF911F910F9162
:10113000FF90EF90DF90CF90BF90AF909F908F90F7
:101140007F906F905F904F903F902F900895C801CF
:10115000632D70E00E94E02FFC01EE0FFF1FE60DF3
:10116000F71DD183C08373CFCF92DF92EF92FF92AE
:101170000F931F93CF93DF93182FD62EC42EC42F17
:10118000D0E0C295D295D07FDC27C07FDC27C60F88
:10119000D11D309123017E01032E02C0F694E79405
:1011A0000A94E2F7C70163E270E00E94CC2F262F79
:1011B00080916E008D7F80936E0080E58CBD809164
:1011C00009086817B9F0609309084091140850E0C5
:1011D000415D5D4F02C0559547953A95E2F7809184
:1011E00016089091170865E278E003E20E94FE0578
:1011F000309123012A9A2A98C70163E270E00E9485
:10120000CC2FFC01EE0FFF1FEB5DF74F808191812A
:101210000297AC0160E070E004C0440F551F661FE8
:10122000771F3A95D2F78091140890E00197C82370
:10123000D923CE01A0E0B0E0480F591F6A1F7B1FE1
:1012400039E0440F551F661F771F3A95D1F78091FB
:101250000C0890910D08A0910E08B0910F08480F4E
:10126000591F6A1F7B1F872F9927AA27BB27F82F93
:10127000CB01AA27BB27E82FBB27A72F962F852FA7
:101280003FEF98E5A5E93EBD0DB407FC06C04B9BBA
:10129000FBCF45980DB407FEFACF9EBD0DB407FCF9
:1012A00006C04B9BFBCF45980DB407FEFACFFEBDA1
:1012B0000DB407FC06C04B9BFBCF45980DB407FE51
:1012C000FACFEEBD0DB407FC06C04B9BFBCF459893
:1012D0000DB407FEFACF8EBD0DB407FC06C04B9BC4
:1012E000FBCF45980DB407FEFACF4EBD0DB407FCF9
:1012F00006C04B9BFBCF45980DB407FEFACFAEBDA1
:101300000DB407FC06C04B9BFBCF45980DB407FE00
:10131000FACF3EBD0DB407FC06C04B9BFBCF4598F2
:101320000DB407FEFACF3EBD0DB407FC06C04B9BC3
:10133000FBCF45980DB407FEFACF2EB527FDF3CFAE
:10134000222319F02F3F09F09ECF8FEF8EBD0DB4F1
:1013500007FC06C04B9BFBCF45980DB407FEFACFA8
:101360008EEF8EBD0DB407FC06C04B9BFBCF45989E
:101370000DB407FEFACF80E090E02FEF2EBD0DB444
:1013800007FC06C04B9BFBCF45980DB407FEFACF78
:1013900001968631910591F783E08EBD0DB407FC6F
:1013A00006C04B9BFBCF45980DB407FEFACF8CEFE0
:1013B0008EBD0DB407FC06C04B9BFBCF45980DB40A
:1013C00007FEFACF8FEF8EBD0DB407FC06C04B9B16
:1013D000FBCF45980DB407FEFACF8FE38EBD0DB459
:1013E00007FC06C04B9BFBCF45980DB407FEFACF18
:1013F0008FEC8EBD0DB407FC06C04B9BFBCF459810
:101400000DB407FEFACF83EF8EBD0DB407FC06C006
:101410004B9BFBCF45980DB407FEFACF8CEF8EBDEA
:101420000DB407FC06C04B9BFBCF45980DB407FEDF
:10143000FACF8FEF8EBD0DB407FC06C04B9BFBCFE0
:1014400045980DB407FEFACF8FE38EBD0DB407FCAF
:1014500006C04B9BFBCF45980DB407FEFACF8FEC2F
:101460008EBD0DB407FC06C04B9BFBCF45980DB459
:1014700007FEFACF83EF8EBD0DB407FC06C04B9B71
:10148000FBCF45980DB407FEFACF8CEF8EBD0DB49F
:1014900007FC06C04B9BFBCF45980DB407FEFACF67
:1014A00085ED8EBD0DB407FC06C04B9BFBCF459868
:1014B0000DB407FEFACF8AEA8EBD0DB407FC06C054
:1014C0004B9BFBCF45980DB407FEFACF86E98EBD46
:1014D0000DB407FC06C04B9BFBCF45980DB407FE2F
:1014E000FACF8FEF8EBD0DB407FC06C04B9BFBCF30
:1014F00045980DB407FEFACF8EEF8EBD0DB407FCF4
:1015000006C04B9BFBCF45980DB407FEFACF8C2D40
:1015100086958A6A8EBD0DB407FC06C04B9BFBCF37
:1015200045980DB407FEFACF8C2D8A6A8EBD0DB496
:1015300007FC06C04B9BFBCF45980DB407FEFACFC6
:101540008D2D86958A6A8EBD0DB407FC06C04B9B17
:10155000FBCF45980DB407FEFACF8D2D8A6A8EBD5C
:101560000DB407FC06C04B9BFBCF45980DB407FE9E
:10157000FACF9EEF9D259C25892F86958A6A8EBD80
:101580000DB407FC06C04B9BFBCF45980DB407FE7E
:10159000FACF9A6A9EBD0DB407FC06C04B9BFBCFE9
:1015A00045980DB407FEFACF8EED8EBD0DB407FC45
:1015B00006C04B9BFBCF45980DB407FEFACF8AEAD5
:1015C0008EBD0DB407FC06C04B9BFBCF45980DB4F8
:1015D00007FEFACF8BEE8EBD0DB407FC06C04B9B09
:1015E000FBCF45980DB407FEFACF8FEF8EBD0DB43B
:1015F00007FC06C04B9BFBCF45980DB407FEFACF06
:101600008FEF8EBD0DB407FC06C04B9BFBCF4598FA
:101610000DB407FEFACF8FEF8EBD0DB407FC06C0E8
:101620004B9BFBCF45980DB407FEFACF8FEF8EBDD5
:101630000DB407FC06C04B9BFBCF45980DB407FECD
:10164000FACF8FEF8EBD0DB407FC06C04B9BFBCFCE
:1016500045980DB407FEFACF212F30E08EE591E0DA
:10166000289FF001299FF00D389FF00D1124E55DB2
:10167000FE4F20E030E080818EBD0DB407FC06C037
:101680004B9BFBCF45980DB407FEFACF2F5F3F4F22
:10169000319681E02D35380771F780E090E02FEF2B
:1016A0002EBD0DB407FC06C04B9BFBCF45980DB477
:1016B00007FEFACF01968E30910591F780E090E019
:1016C0001EBC0DB407FC06C04B9BFBCF45980DB468
:1016D00007FEFACF01968036910591F78FEF8EBD08
:1016E0000DB407FC06C04B9BFBCF45980DB407FE1D
:1016F000FACF8FEF8EBD0DB407FC06C04B9BFBCF1E
:1017000045980DB407FEFACF8FEF8EBD0DB407FCE0
:1017100006C04B9BFBCF45980DB407FEFACF8EB5A4
:101720009FEF9EBD0DB407FC06C04B9BFBCF4598B9
:101730000DB407FEFACF8EB58F3F99F72A9A2A98F3
:101740001CBC80916E00826080936E00DF91CF910F
:101750001F910F91FF90EF90DF90CF9008956091CF
:101760001E016F3F89F480911F018F3F91F480919A
:1017700020018F3F71F4809121018F3F51F48091BE
:1017800022018F3F31F4089580E0409125010E94AD
:10179000B4088FEF80931E018093250110922D01D4
:1017A00060911F016F3F29F081E0409126010E9466
:1017B000B4088FEF80931F018093260110928B0253
:1017C000609120016F3F29F082E0409127010E9443
:1017D000B4088FEF80932001809327011092E903D2
:1017E000609121016F3F29F083E0409128010E9420
:1017F000B4088FEF80932101809328011092470550
:10180000609122016F3F29F084E0409129010E94FC
:10181000B4088FEF80932201809329011092A506CE
:10182000109224018BE291E0909324088093230886
:10183000089540912401A42FB0E08FEA90E0A89F82
:10184000F001A99FF00DB89FF00D1124EE0FFF1FBE
:10185000E35DFE4F80818D3A61F150E08FEA90E0C8
:10186000489FF001499FF00D589FF00D1124EE0F95
:10187000FF1FE35DFE4F8081863909F008958EE5F4
:1018800091E0489FF001499FF00D589FF00D112401
:10189000E55DFE4F878190E085759070880F991FF8
:1018A00020852575282B20931C0181E080932A0137
:1018B000089580912A01882371F590910A08FD010D
:1018C000E25EFE4F908380911D08AB5DBE4F869512
:1018D00086958C939F3081F19D3071F1892F8F5FB8
:1018E0008F7080930A08443059F14F5F4093240170
:1018F000242F30E08EE591E0BC01269FC001279F98
:10190000900D369F900D1124855D9E4F9093240875
:1019100080932308A2CF80911C0180930A08109223
:101920002A018F3009F099CF0E949B0181E08093BA
:101930001E084091240191CF892F8E5F8F70D1CFE7
:101940000E949B010E94AF0B81E080931E08409192
:10195000240183CF0F931F93FB013FEF40E558E035
:1019600065E93EBD0DB407FC06C04B9BFBCF459817
:101970000DB407FEFACF4EBD0DB407FC06C04B9B5D
:10198000FBCF45980DB407FEFACF1EBC0DB407FC83
:1019900006C04B9BFBCF45980DB407FEFACF1EBC8B
:1019A0000DB407FC06C04B9BFBCF45980DB407FE5A
:1019B000FACF1EBC0DB407FC06C04B9BFBCF45986D
:1019C0000DB407FEFACF5EBD0DB407FC06C04B9BFD
:1019D000FBCF45980DB407FEFACF6EBD0DB407FCE2
:1019E00006C04B9BFBCF45980DB407FEFACF3EBD1A
:1019F0000DB407FC06C04B9BFBCF45980DB407FE0A
:101A0000FACF3EBD0DB407FC06C04B9BFBCF4598FB
:101A10000DB407FEFACF2EB527FDF3CF222319F020
:101A20002F3F09F09ECF880F991F82959295907F46
:101A30009827807F9827AC0160E070E080911F08B4
:101A400090912008A0912108B0912208480F591FB9
:101A50006A1F7B1F872F9927AA27BB27082FCB0137
:101A6000AA27BB27182FBB27A72F962F852F3FEF1D
:101A700091E5A5E93EBD0DB407FC06C04B9BFBCF2D
:101A800045980DB407FEFACF9EBD0DB407FC06C005
:101A90004B9BFBCF45980DB407FEFACF0EBD0DB49E
:101AA00007FC06C04B9BFBCF45980DB407FEFACF51
:101AB0001EBD0DB407FC06C04B9BFBCF45980DB473
:101AC00007FEFACF8EBD0DB407FC06C04B9BFBCFC3
:101AD00045980DB407FEFACF4EBD0DB407FC06C005
:101AE0004B9BFBCF45980DB407FEFACFAEBD0DB4AE
:101AF00007FC06C04B9BFBCF45980DB407FEFACF01
:101B00003EBD0DB407FC06C04B9BFBCF45980DB402
:101B100007FEFACF3EBD0DB407FC06C04B9BFBCFC2
:101B200045980DB407FEFACF2EB527FDF3CF22233B
:101B300019F02F3F09F09ECF9FEF9EBD0DB407FC1B
:101B400006C04B9BFBCF45980DB407FEFACF8EB570
:101B50008E3F99F797E02FEF2EBD0DB407FC06C01E
:101B60004B9BFBCF45980DB407FEFACF8EB5808313
:101B700091509F3F11F03196EFCF9EBD0DB407FC01
:101B800006C04B9BFBCF45980DB407FEFACF8EB530
:101B90008FEF8EBD0DB407FC06C04B9BFBCF459865
:101BA0000DB407FEFACF8EB51F910F9108959F9245
:101BB000AF92BF92CF92DF92EF92FF920F931F935B
:101BC000CF93DF935B016C01BA01E22E932E9FEF5E
:101BD00020E532E045E99EBD0DB407FC06C04B9BF5
:101BE000FBCF45980DB407FEFACF2EBD0DB407FC10
:101BF00006C04B9BFBCF45980DB407FEFACF1EBC29
:101C00000DB407FC06C04B9BFBCF45980DB407FEF7
:101C1000FACF1EBC0DB407FC06C04B9BFBCF45980A
:101C20000DB407FEFACF3EBD0DB407FC06C04B9BBA
:101C3000FBCF45980DB407FEFACF1EBC0DB407FCD0
:101C400006C04B9BFBCF45980DB407FEFACF4EBDA7
:101C50000DB407FC06C04B9BFBCF45980DB407FEA7
:101C6000FACF9EBD0DB407FC06C04B9BFBCF459839
:101C70000DB407FEFACF9EBD0DB407FC06C04B9B0A
:101C8000FBCF45980DB407FEFACF8EB587FDF3CF95
:101C9000882319F08F3F09F09ECFD601C5018070CF
:101CA0009E7F2B2F332744275527F22E9D01442753
:101CB0005527022F892F9A2FAB2FBB27182F9FEF65
:101CC00021E535E99EBD0DB407FC06C04B9BFBCF5B
:101CD00045980DB407FEFACF2EBD0DB407FC06C023
:101CE0004B9BFBCF45980DB407FEFACFFEBC0DB45D
:101CF00007FC06C04B9BFBCF45980DB407FEFACFFF
:101D00000EBD0DB407FC06C04B9BFBCF45980DB430
:101D100007FEFACF1EBD0DB407FC06C04B9BFBCFE0
:101D200045980DB407FEFACF1EBC0DB407FC06C0E3
:101D30004B9BFBCF45980DB407FEFACF3EBD0DB4CB
:101D400007FC06C04B9BFBCF45980DB407FEFACFAE
:101D50009EBD0DB407FC06C04B9BFBCF45980DB450
:101D600007FEFACF9EBD0DB407FC06C04B9BFBCF10
:101D700045980DB407FEFACF8EB587FDF3CF8823C3
:101D800019F08F3F09F09ECF9FEF9EBD0DB407FC69
:101D900006C04B9BFBCF45980DB407FEFACF8EB51E
:101DA0008E3F99F7CBE2D1E0FE019FEF9EBD0DB4CF
:101DB00007FC06C04B9BFBCF45980DB407FEFACF3E
:101DC0008EB5819383E0EB32F80781F78FEF8EBDFC
:101DD0000DB407FC06C04B9BFBCF45980DB407FE26
:101DE000FACF8EB58FEF8EBD0DB407FC06C04B9BAE
:101DF000FBCF45980DB407FEFACF8EB59501317033
:101E0000255D3E4FC9014E2D592D0E9400302A9A62
:101E10002A989FEF28E535E99EBD0DB407FC06C062
:101E20004B9BFBCF45980DB407FEFACF2EBD0DB4EA
:101E300007FC06C04B9BFBCF45980DB407FEFACFBD
:101E4000FEBC0DB407FC06C04B9BFBCF45980DB400
:101E500007FEFACF0EBD0DB407FC06C04B9BFBCFAF
:101E600045980DB407FEFACF1EBD0DB407FC06C0A1
:101E70004B9BFBCF45980DB407FEFACF1EBC0DB4AB
:101E800007FC06C04B9BFBCF45980DB407FEFACF6D
:101E90003EBD0DB407FC06C04B9BFBCF45980DB46F
:101EA00007FEFACF9EBD0DB407FC06C04B9BFBCFCF
:101EB00045980DB407FEFACF9EBD0DB407FC06C0D1
:101EC0004B9BFBCF45980DB407FEFACF8EB587FD2F
:101ED000F3CF882319F08F3F09F09ECF8FEF8EBD8F
:101EE0000DB407FC06C04B9BFBCF45980DB407FE15
:101EF000FACF8EEF8EBD0DB407FC06C04B9BFBCF17
:101F000045980DB407FEFACF88818EBD0DB407FC4D
:101F100006C04B9BFBCF45980DB407FEFACF219628
:101F200083E0CB32D80781F78FEF8EBD0DB407FC6D
:101F300006C04B9BFBCF45980DB407FEFACF8FEF41
:101F40008EBD0DB407FC06C04B9BFBCF45980DB46E
:101F500007FEFACF8FEF8EBD0DB407FC06C04B9B7A
:101F6000FBCF45980DB407FEFACF8EB59FEF9EBD0F
:101F70000DB407FC06C04B9BFBCF45980DB407FE84
:101F8000FACF8EB58F3F99F72A9A2A98DF91CF9191
:101F90001F910F91FF90EF90DF90CF90BF90AF9087
:101FA0009F9008952F923F924F925F926F927F92EF
:101FB0008F929F92AF92BF92CF92DF92EF92FF9259
:101FC0000F931F93DF93CF93CDB7DEB7A4970FB6D0
:101FD000F894DEBF0FBECDBF9C01FE013596CE0149
:101FE00085961192E817F907E1F7DE011596F901D8
:101FF00088E001900D928150E1F7DE011D96E0E04E
:10200000F1E083E001900D928150E1F780E090E6ED
:10201000A4E0B0E089A39AA3ABA3BCA320901F08BF
:10202000309020084090210850902208E0E0F0E035
:102030003FEF60E5662E3EBD0DB407FC06C04B9B2E
:10204000FBCF45980DB407FEFACF6EBC0DB407FC6C
:1020500006C04B9BFBCF45980DB407FEFACF1EBCC4
:102060000DB407FC06C04B9BFBCF45980DB407FE93
:10207000FACF1EBC0DB407FC06C04B9BFBCF4598A6
:102080000DB407FEFACF1EBC0DB407FC06C04B9B77
:10209000FBCF45980DB407FEFACF21E02EBD0DB45D
:1020A00007FC06C04B9BFBCF45980DB407FEFACF4B
:1020B00085E98EBD0DB407FC06C04B9BFBCF459850
:1020C0000DB407FEFACF3EBD0DB407FC06C04B9B16
:1020D000FBCF45980DB407FEFACF3EBD0DB407FC0B
:1020E00006C04B9BFBCF45980DB407FEFACF8EB5CB
:1020F00087FDF3CF882319F08F3F09F09CCFCF01E4
:10210000880F991F82959295907F9827807F9827B6
:102110005C01CC24DD2486017501E20CF31C041D56
:10212000151D812F9927AA27BB27582FC801AA2739
:10213000BB27482FBB27A12F902F8F2D3EBD0DB45D
:1021400007FC06C04B9BFBCF45980DB407FEFACFAA
:1021500091E59EBD0DB407FC06C04B9BFBCF459897
:102160000DB407FEFACF5EBD0DB407FC06C04B9B55
:10217000FBCF45980DB407FEFACF4EBD0DB407FC5A
:1021800006C04B9BFBCF45980DB407FEFACF8EBD22
:102190000DB407FC06C04B9BFBCF45980DB407FE62
:1021A000FACFEEBC0DB407FC06C04B9BFBCF4598A5
:1021B0000DB407FEFACFA5E9AEBD0DB407FC06C00D
:1021C0004B9BFBCF45980DB407FEFACF3EBD0DB437
:1021D00007FC06C04B9BFBCF45980DB407FEFACF1A
:1021E0003EBD0DB407FC06C04B9BFBCF45980DB41C
:1021F00007FEFACF2EB527FDF3CF222319F02F3F8C
:1022000009F09CCF3EBD0DB407FC06C04B9BFBCF35
:1022100045980DB407FEFACF8EB58E3F99F73EBDB7
:102220000DB407FC06C04B9BFBCF45980DB407FED1
:10223000FACF7EB43EBD0DB407FC06C04B9BFBCF6E
:1022400045980DB407FEFACF8EB53EBD0DB407FC20
:1022500006C04B9BFBCF45980DB407FEFACF8EB559
:10226000B801A701455F5F4F6F4F7F4F872F9927B9
:10227000AA27BB27882ECB01AA27BB27982EBB27CE
:10228000A72F962F852F3EBD0DB407FC06C04B9B94
:10229000FBCF45980DB407FEFACFB1E5BEBD0DB436
:1022A00007FC06C04B9BFBCF45980DB407FEFACF49
:1022B0008EBC0DB407FC06C04B9BFBCF45980DB4FC
:1022C00007FEFACF9EBC0DB407FC06C04B9BFBCFAC
:1022D00045980DB407FEFACF8EBD0DB407FC06C0BD
:1022E0004B9BFBCF45980DB407FEFACF4EBD0DB406
:1022F00007FC06C04B9BFBCF45980DB407FEFACFF9
:1023000025E92EBD0DB407FC06C04B9BFBCF4598BD
:102310000DB407FEFACF3EBD0DB407FC06C04B9BC3
:10232000FBCF45980DB407FEFACF3EBD0DB407FCB8
:1023300006C04B9BFBCF45980DB407FEFACF2EB5D8
:1023400027FDF3CF222319F02F3F09F09CCF3EBD8C
:102350000DB407FC06C04B9BFBCF45980DB407FEA0
:10236000FACF8EB58E3F99F73EBD0DB407FC06C07F
:102370004B9BFBCF45980DB407FEFACF8EB53EBD03
:102380000DB407FC06C04B9BFBCF45980DB407FE70
:10239000FACF9EB53EBD0DB407FC06C04B9BFBCFEC
:1023A00045980DB407FEFACF9EB595EE791611F05B
:1023B000772011F48F30E1F43196A2E0E030FA0793
:1023C00008F439CEB2E0E030FB0709F4DFC1EE0FCC
:1023D000FF1FE295F295F07FFE27E07FFE275F0169
:1023E000CC24DD2482017101EA0CFB1C0C1D1D1D97
:1023F000C801B701AE014B5F5F4F20E230E00E94A1
:10240000D70DE0901F08F09020080091210810914E
:1024100022088AE190E0A0E0B0E0E80EF91E0A1F71
:102420001B1FEA0CFB1C0C1D1D1D82E090E0A0E0B0
:10243000B0E089839A83AB83BC83F09114088F2F1B
:1024400090E0815D9D4FC09023010C2C02C09595BA
:1024500087950A94E2F7892B09F44BC1442455244B
:1024600060901008709011088090120890901308E6
:10247000DD24DA9430E5332E22E0222EDEBC0DB4CA
:1024800007FC06C04B9BFBCF45980DB407FEFACF67
:102490003EBC0DB407FC06C04B9BFBCF45980DB46A
:1024A00007FEFACF1EBC0DB407FC06C04B9BFBCF4A
:1024B00045980DB407FEFACF1EBC0DB407FC06C04C
:1024C0004B9BFBCF45980DB407FEFACF1EBC0DB455
:1024D00007FC06C04B9BFBCF45980DB407FEFACF17
:1024E0002EBC0DB407FC06C04B9BFBCF45980DB42A
:1024F00007FEFACF95E99EBD0DB407FC06C04B9BC5
:10250000FBCF45980DB407FEFACFDEBC0DB407FC37
:1025100006C04B9BFBCF45980DB407FEFACFDEBC3F
:102520000DB407FC06C04B9BFBCF45980DB407FECE
:10253000FACF8EB587FDF3CF882319F08F3F09F0CE
:102540009DCF49815A816B817C81440F551F661F45
:10255000771F460D571D681D791D872F9927AA27BC
:10256000BB27E82FCB01AA27BB27382FBB27A72FD4
:10257000962F852FDEBC0DB407FC06C04B9BFBCF0E
:1025800045980DB407FEFACFA1E5AEBD0DB407FC2A
:1025900006C04B9BFBCF45980DB407FEFACFEEBDAE
:1025A0000DB407FC06C04B9BFBCF45980DB407FE4E
:1025B000FACF3EBD0DB407FC06C04B9BFBCF459840
:1025C0000DB407FEFACF8EBD0DB407FC06C04B9BC1
:1025D000FBCF45980DB407FEFACF4EBD0DB407FCF6
:1025E00006C04B9BFBCF45980DB407FEFACFB5E96B
:1025F000BEBD0DB407FC06C04B9BFBCF45980DB488
:1026000007FEFACFDEBC0DB407FC06C04B9BFBCF28
:1026100045980DB407FEFACFDEBC0DB407FC06C02A
:102620004B9BFBCF45980DB407FEFACF2EB527FD87
:10263000F3CF222319F02F3F09F09CCFDEBC0DB45D
:1026400007FC06C04B9BFBCF45980DB407FEFACFA5
:102650008EB58E3F99F7DEBC0DB407FC06C04B9BD0
:10266000FBCF45980DB407FEFACF9EB5DEBC0DB486
:1026700007FC06C04B9BFBCF45980DB407FEFACF75
:102680008EB5DEBC0DB407FC06C04B9BFBCF459856
:102690000DB407FEFACF2EB5DEBC0DB407FC06C0A4
:1026A0004B9BFBCF45980DB407FEFACF2EB5B82E45
:1026B000AA249501290F311D2115310509F43FC0C8
:1026C00089819A81AB81BC810196A11DB11D89834D
:1026D0009A83AB83BC838F2F90E0815D9D4F0C2C40
:1026E00002C0959587950A94E2F74816590608F4B2
:1026F000C5CEC801B70147E151E022E030E00E94B9
:10270000D70D0E94D00321E030E0C901A4960FB696
:10271000F894DEBF0FBECDBFCF91DF911F910F9117
:10272000FF90EF90DF90CF90BF90AF909F908F90F1
:102730007F906F905F904F903F902F9008950894F6
:10274000411C511CC801B701AE014F5F5F4F22E031
:1027500030E00E94D70D89819A81AB81BC817C01D8
:102760008D01EE0CFF1C001F111F6090100870906F
:1027700011088090120890901308E60CF71C081DB1
:10278000191DF0911408C09023019ECF20E030E085
:10279000BCCF2F923F924F925F926F927F928F9217
:1027A0009F92AF92BF92CF92DF92EF92FF920F93E0
:1027B0001F93DF93CF93CDB7DEB7A6970FB6F894EC
:1027C000DEBF0FBECDBF9C015EA34DA34B99A5C339
:1027D000FE013596CE0185961192E817F907E1F7CB
:1027E000DE011596F90188E001900D928150E1F724
:1027F000DE011D96FB0183E001900D928150E1F70F
:102800002DA13EA1C901A0E0B0E079E0880F991F99
:10281000AA1FBB1F7A95D1F789A39AA3ABA3BCA328
:1028200020901F08309020084090210850902208E6
:10283000E0E0F0E03FEF60E5662E3EBD0DB407FC42
:1028400006C04B9BFBCF45980DB407FEFACF6EBC7C
:102850000DB407FC06C04B9BFBCF45980DB407FE9B
:10286000FACF1EBC0DB407FC06C04B9BFBCF4598AE
:102870000DB407FEFACF1EBC0DB407FC06C04B9B7F
:10288000FBCF45980DB407FEFACF1EBC0DB407FC74
:1028900006C04B9BFBCF45980DB407FEFACF81E0F5
:1028A0008EBD0DB407FC06C04B9BFBCF45980DB405
:1028B00007FEFACF95E99EBD0DB407FC06C04B9B01
:1028C000FBCF45980DB407FEFACF3EBD0DB407FC13
:1028D00006C04B9BFBCF45980DB407FEFACF3EBD1B
:1028E0000DB407FC06C04B9BFBCF45980DB407FE0B
:1028F000FACF8EB587FDF3CF882319F08F3F09F00B
:102900009CCFCF01880F991F82959295907F982731
:10291000807F98275C01CC24DD2486017501E20CC0
:10292000F31C041D151D812F9927AA27BB27582F9B
:10293000C801AA27BB27482FBB27A12F902F8F2D77
:102940003EBD0DB407FC06C04B9BFBCF45980DB4B4
:1029500007FEFACFA1E5AEBD0DB407FC06C04B9B48
:10296000FBCF45980DB407FEFACF5EBD0DB407FC52
:1029700006C04B9BFBCF45980DB407FEFACF4EBD6A
:102980000DB407FC06C04B9BFBCF45980DB407FE6A
:10299000FACF8EBD0DB407FC06C04B9BFBCF45980C
:1029A0000DB407FEFACFEEBC0DB407FC06C04B9B7E
:1029B000FBCF45980DB407FEFACFB5E9BEBD0DB407
:1029C00007FC06C04B9BFBCF45980DB407FEFACF22
:1029D0003EBD0DB407FC06C04B9BFBCF45980DB424
:1029E00007FEFACF3EBD0DB407FC06C04B9BFBCFE4
:1029F00045980DB407FEFACF2EB527FDF3CF22235D
:102A000019F02F3F09F09CCF3EBD0DB407FC06C066
:102A10004B9BFBCF45980DB407FEFACF8EB58E3F8A
:102A200099F73EBD0DB407FC06C04B9BFBCF459804
:102A30000DB407FEFACF7EB43EBD0DB407FC06C050
:102A40004B9BFBCF45980DB407FEFACF8EB53EBD2C
:102A50000DB407FC06C04B9BFBCF45980DB407FE99
:102A6000FACF8EB5B801A701455F5F4F6F4F7F4F1B
:102A7000872F9927AA27BB27882ECB01AA27BB27F8
:102A8000982EBB27A72F962F852F3EBD0DB407FC90
:102A900006C04B9BFBCF45980DB407FEFACF21E54E
:102AA0002EBD0DB407FC06C04B9BFBCF45980DB463
:102AB00007FEFACF8EBC0DB407FC06C04B9BFBCFC4
:102AC00045980DB407FEFACF9EBC0DB407FC06C0B6
:102AD0004B9BFBCF45980DB407FEFACF8EBD0DB4CE
:102AE00007FC06C04B9BFBCF45980DB407FEFACF01
:102AF0004EBD0DB407FC06C04B9BFBCF45980DB4F3
:102B000007FEFACF95E99EBD0DB407FC06C04B9BAE
:102B1000FBCF45980DB407FEFACF3EBD0DB407FCC0
:102B200006C04B9BFBCF45980DB407FEFACF3EBDC8
:102B30000DB407FC06C04B9BFBCF45980DB407FEB8
:102B4000FACF2EB527FDF3CF222319F02F3F09F03E
:102B50009CCF3EBD0DB407FC06C04B9BFBCF4598F8
:102B60000DB407FEFACF8EB58E3F99F73EBD0DB47A
:102B700007FC06C04B9BFBCF45980DB407FEFACF70
:102B80008EB53EBD0DB407FC06C04B9BFBCF4598F0
:102B90000DB407FEFACF9EB53EBD0DB407FC06C0CE
:102BA0004B9BFBCF45980DB407FEFACF9EB5A5EE23
:102BB0007A1611F0772011F48F30E1F43196B2E0FB
:102BC000E030FB0708F439CE22E0E030F20709F4E8
:102BD000A4C1EE0FFF1FE295F295F07FFE27E07F84
:102BE000FE275F01CC24DD2482017101EA0CFB1C6D
:102BF0000C1D1D1DC801B701AE014B5F5F4F20E2E8
:102C000030E00E94D70DE0901F08F090200800915E
:102C10002108109122088AE190E0A0E0B0E0E80EDF
:102C2000F91E0A1F1B1FEA0CFB1C0C1D1D1D82E058
:102C300090E0A0E0B0E089839A83AB83BC83F091FD
:102C400014088F2F90E00197ADA1BEA18A0F9B1FA2
:102C5000C09023010C2C02C0969587950A94E2F748
:102C6000892B09F44DC144245524609010087090BC
:102C700011088090120890901308DD24DA9430E552
:102C8000332E22E0222EDEBC0DB407FC06C04B9B87
:102C9000FBCF45980DB407FEFACF3EBC0DB407FC40
:102CA00006C04B9BFBCF45980DB407FEFACF1EBC68
:102CB0000DB407FC06C04B9BFBCF45980DB407FE37
:102CC000FACF1EBC0DB407FC06C04B9BFBCF45984A
:102CD0000DB407FEFACF1EBC0DB407FC06C04B9B1B
:102CE000FBCF45980DB407FEFACF2EBC0DB407FC00
:102CF00006C04B9BFBCF45980DB407FEFACFB5E954
:102D0000BEBD0DB407FC06C04B9BFBCF45980DB470
:102D100007FEFACFDEBC0DB407FC06C04B9BFBCF11
:102D200045980DB407FEFACFDEBC0DB407FC06C013
:102D30004B9BFBCF45980DB407FEFACF8EB587FDB0
:102D4000F3CF882319F08F3F09F09DCF49815A8135
:102D50006B817C81440F551F661F771F460D571DE1
:102D6000681D791D872F9927AA27BB27E82FCB013C
:102D7000AA27BB27382FBB27A72F962F852FDEBC6E
:102D80000DB407FC06C04B9BFBCF45980DB407FE66
:102D9000FACF21E52EBD0DB407FC06C04B9BFBCF3F
:102DA00045980DB407FEFACFEEBD0DB407FC06C082
:102DB0004B9BFBCF45980DB407FEFACF3EBD0DB43B
:102DC00007FC06C04B9BFBCF45980DB407FEFACF1E
:102DD0008EBD0DB407FC06C04B9BFBCF45980DB4D0
:102DE00007FEFACF4EBD0DB407FC06C04B9BFBCFD0
:102DF00045980DB407FEFACF95E99EBD0DB407FCCA
:102E000006C04B9BFBCF45980DB407FEFACFDEBC46
:102E10000DB407FC06C04B9BFBCF45980DB407FED5
:102E2000FACFDEBC0DB407FC06C04B9BFBCF459828
:102E30000DB407FEFACF2EB527FDF3CF222319F0EC
:102E40002F3F09F09CCFDEBC0DB407FC06C04B9BA6
:102E5000FBCF45980DB407FEFACF8EB58E3F99F79C
:102E6000DEBC0DB407FC06C04B9BFBCF45980DB4F0
:102E700007FEFACF9EB5DEBC0DB407FC06C04B9B27
:102E8000FBCF45980DB407FEFACF8EB5DEBC0DB46E
:102E900007FC06C04B9BFBCF45980DB407FEFACF4D
:102EA0002EB5DEBC0DB407FC06C04B9BFBCF45988E
:102EB0000DB407FEFACF2EB5B82EAA24D501A90F5E
:102EC000B11D109709F445C089819A81AB81BC81FD
:102ED0000196A11DB11D89839A83AB83BC838F2F7B
:102EE00090E001972DA13EA1820F931F0C2C02C0F0
:102EF000969587950A94E2F74816590608F4C3CECA
:102F0000C801B70149E151E022E030E00E94D70D4D
:102F10000E94D00321E030E002C020E030E0C9018F
:102F2000A6960FB6F894DEBF0FBECDBFCF91DF914E
:102F30001F910F91FF90EF90DF90CF90BF90AF90D7
:102F40009F908F907F906F905F904F903F902F90C9
:102F500008950894411C511CC801B701AE014F5F90
:102F60005F4F22E030E00E94D70D89819A81AB81CA
:102F7000BC817C018D01EE0CFF1C001F111F6090B5
:102F80001008709011088090120890901308E60CB9
:102F9000F71C081D191DF0911408C090230198CF4B
:102FA0002F923F924F925F926F927F928F929F9259
:102FB000AF92BF92CF92DF92EF92FF920F931F9347
:102FC000DF93CF93CDB7DEB7A3970FB6F894DEBFEC
:102FD0000FBECDBF9B8F8A8F7D8F6C8F80911F0816
:102FE00090912008A0912108B09122088C8B9D8B94
:102FF000AE8BBF8B2C013D0188E090E0A0E0B0E0FB
:10300000480E591E6A1E7B1E8C889D88AE88BF881C
:103010008BE090E0A0E0B0E0880E991EAA1EBB1ED7
:10302000CC88DD88EE88FF88198E188E2224332400
:103030001FEF00E5DE011496BF8FAE8F4B99BAC229
:103040001EBD0DB407FC06C04B9BFBCF45980DB4CD
:1030500007FEFACF0EBD0DB407FC06C04B9BFBCF9D
:1030600045980DB407FEFACF1EBC0DB407FC06C090
:103070004B9BFBCF45980DB407FEFACF1EBC0DB499
:1030800007FC06C04B9BFBCF45980DB407FEFACF5B
:103090001EBC0DB407FC06C04B9BFBCF45980DB47E
:1030A00007FEFACFB1E0BEBD0DB407FC06C04B9BD6
:1030B000FBCF45980DB407FEFACFE5E9EEBD0DB4A0
:1030C00007FC06C04B9BFBCF45980DB407FEFACF1B
:1030D0001EBD0DB407FC06C04B9BFBCF45980DB43D
:1030E00007FEFACF1EBD0DB407FC06C04B9BFBCFFD
:1030F00045980DB407FEFACF8EB587FDF3CF882330
:1031000019F08F3F09F09CCF8F2D9927AA27BB2755
:10311000482FC701AA27BB27382FBB27AF2D9E2DCD
:103120008D2D1EBD0DB407FC06C04B9BFBCF4598F3
:103130000DB407FEFACFF1E5FEBD0DB407FC06C0E5
:103140004B9BFBCF45980DB407FEFACF4EBD0DB497
:1031500007FC06C04B9BFBCF45980DB407FEFACF8A
:103160003EBD0DB407FC06C04B9BFBCF45980DB48C
:1031700007FEFACF8EBD0DB407FC06C04B9BFBCFFC
:1031800045980DB407FEFACFCEBC0DB407FC06C0BF
:103190004B9BFBCF45980DB407FEFACF25E92EBD1A
:1031A0000DB407FC06C04B9BFBCF45980DB407FE42
:1031B000FACF1EBD0DB407FC06C04B9BFBCF459854
:1031C0000DB407FEFACF1EBD0DB407FC06C04B9B25
:1031D000FBCF45980DB407FEFACF2EB527FDF3CFF0
:1031E000222319F02F3F09F09CCF1EBD0DB407FC20
:1031F00006C04B9BFBCF45980DB407FEFACF8EB5AA
:103200008E3F99F71EBD0DB407FC06C04B9BFBCF4C
:1032100045980DB407FEFACF9EB51EBD0DB407FC50
:1032200006C04B9BFBCF45980DB407FEFACF8EB579
:103230001EBD0DB407FC06C04B9BFBCF45980DB4DB
:1032400007FEFACF8EB5992309F4EAC1953009F447
:10325000E7C19E3209F4E4C1953E09F4E1C1892F2A
:1032600081548A3120F090539A3008F0D9C18B2DC7
:103270009927AA27BB27482FC501AA27BB27382F84
:10328000BB27AB2D9A2D892D1EBD0DB407FC06C0A2
:103290004B9BFBCF45980DB407FEFACF91E59EBD41
:1032A0000DB407FC06C04B9BFBCF45980DB407FE41
:1032B000FACF4EBD0DB407FC06C04B9BFBCF459823
:1032C0000DB407FEFACF3EBD0DB407FC06C04B9B04
:1032D000FBCF45980DB407FEFACF8EBD0DB407FCA9
:1032E00006C04B9BFBCF45980DB407FEFACF8EBCB2
:1032F0000DB407FC06C04B9BFBCF45980DB407FEF1
:10330000FACFA5E9AEBD0DB407FC06C04B9BFBCFC1
:1033100045980DB407FEFACF1EBD0DB407FC06C0DC
:103320004B9BFBCF45980DB407FEFACF1EBD0DB4E5
:1033300007FC06C04B9BFBCF45980DB407FEFACFA8
:103340002EB527FDF3CF222319F02F3F09F09CCF94
:103350001EBD0DB407FC06C04B9BFBCF45980DB4BA
:1033600007FEFACF8EB58E3F99F71EBD0DB407FC50
:1033700006C04B9BFBCF45980DB407FEFACF9EB518
:103380001EBD0DB407FC06C04B9BFBCF45980DB48A
:1033900007FEFACF8EB51EBD0DB407FC06C04B9BD1
:1033A000FBCF45980DB407FEFACF8EB5892F8E71ED
:1033B00009F036C19F3009F433C11EBD0DB407FCBE
:1033C00006C04B9BFBCF45980DB407FEFACF0EBD50
:1033D0000DB407FC06C04B9BFBCF45980DB407FE10
:1033E000FACF1EBC0DB407FC06C04B9BFBCF459823
:1033F0000DB407FEFACF1EBC0DB407FC06C04B9BF4
:10340000FBCF45980DB407FEFACF1EBC0DB407FCE8
:1034100006C04B9BFBCF45980DB407FEFACFB3E037
:10342000BEBD0DB407FC06C04B9BFBCF45980DB449
:1034300007FEFACFE5E9EEBD0DB407FC06C04B9BD5
:10344000FBCF45980DB407FEFACF1EBD0DB407FCA7
:1034500006C04B9BFBCF45980DB407FEFACF1EBDAF
:103460000DB407FC06C04B9BFBCF45980DB407FE7F
:10347000FACF8EB587FDF3CF882319F08F3F09F07F
:103480009CCF872D9927AA27BB27482FC301AA279E
:10349000BB27382FBB27A72D962D852D1EBD0DB41C
:1034A00007FC06C04B9BFBCF45980DB407FEFACF37
:1034B000F1E5FEBD0DB407FC06C04B9BFBCF459864
:1034C0000DB407FEFACF4EBD0DB407FC06C04B9BF2
:1034D000FBCF45980DB407FEFACF3EBD0DB407FCF7
:1034E00006C04B9BFBCF45980DB407FEFACF8EBDAF
:1034F0000DB407FC06C04B9BFBCF45980DB407FEEF
:10350000FACF4EBC0DB407FC06C04B9BFBCF4598D1
:103510000DB407FEFACF25E92EBD0DB407FC06C099
:103520004B9BFBCF45980DB407FEFACF1EBD0DB4E3
:1035300007FC06C04B9BFBCF45980DB407FEFACFA6
:103540001EBD0DB407FC06C04B9BFBCF45980DB4C8
:1035500007FEFACF2EB527FDF3CF222319F02F3F18
:1035600009F09CCF1EBD0DB407FC06C04B9BFBCFE2
:1035700045980DB407FEFACF8EB58E3F99F7FE0140
:1035800031961EBD0DB407FC06C04B9BFBCF459882
:103590000DB407FEFACF8EB581938E8D9F8DE817FF
:1035A000F90779F71EBD0DB407FCF4C24B9BFBCFA6
:1035B0004598F9CF212CA2E03A2EC101A3960FB66F
:1035C000F894DEBF0FBECDBFCF91DF911F910F9159
:1035D000FF90EF90DF90CF90BF90AF909F908F9033
:1035E0007F906F905F904F903F902F9008958EB591
:1035F000CE0101966C8D7D8D43E050E00E94F32F4B
:10360000009771F4F101EE0FFF1FAA8DBB8DEA0F39
:10361000FB1F888D998D918380830894211C311C18
:10362000A88DB98D1196B98FA88F80E290E0A0E0A7
:10363000B0E0480E591E6A1E7B1EC80ED91EEA1E37
:10364000FB1E880E991EAA1EBB1EA88DB98DA05008
:10365000B24009F0F3CCF2E02F16310408F4ADCFFC
:10366000FEEF6F2EFFEF7F2E620C731C510108944A
:10367000A108B108CC24DD24E4E04E2E512C4C0EE0
:103680005D1ECE010B9699A388A3DE015396BBA3C2
:10369000AAA31FEF00E5A114B10409F470C2EA8CDB
:1036A000FB8CB1E08B2E912CD70112968D919C91C1
:1036B0001397BFEFBEBD0DB407FC06C04B9BFBCFFD
:1036C00045980DB407FEFACF0EBD0DB407FC06C039
:1036D0004B9BFBCF45980DB407FEFACF1EBC0DB433
:1036E00007FC06C04B9BFBCF45980DB407FEFACFF5
:1036F0001EBC0DB407FC06C04B9BFBCF45980DB418
:1037000007FEFACF1EBC0DB407FC06C04B9BFBCFD7
:1037100045980DB407FEFACFE8E0EEBD0DB407FC06
:1037200006C04B9BFBCF45980DB407FEFACFF5E9D9
:10373000FEBD0DB407FC06C04B9BFBCF45980DB4F6
:1037400007FEFACF1EBD0DB407FC06C04B9BFBCF96
:1037500045980DB407FEFACF1EBD0DB407FC06C098
:103760004B9BFBCF45980DB407FEFACF2EB527FD36
:10377000F3CF222319F02F3F09F09BCF880F991F19
:1037800082959295907F9827807F9827AC0160E082
:1037900070E08C899D89AE89BF89480F591F6A1FC7
:1037A0007B1F872F9927AA27BB27E82FCB01AA27A2
:1037B000BB27382FBB27A72F962F852F1EBD0DB4F3
:1037C00007FC06C04B9BFBCF45980DB407FEFACF14
:1037D00091E59EBD0DB407FC06C04B9BFBCF459801
:1037E0000DB407FEFACFEEBD0DB407FC06C04B9B2F
:1037F000FBCF45980DB407FEFACF3EBD0DB407FCD4
:1038000006C04B9BFBCF45980DB407FEFACF8EBD8B
:103810000DB407FC06C04B9BFBCF45980DB407FECB
:10382000FACF4EBD0DB407FC06C04B9BFBCF4598AD
:103830000DB407FEFACFA5E9AEBD0DB407FC06C076
:103840004B9BFBCF45980DB407FEFACF1EBD0DB4C0
:1038500007FC06C04B9BFBCF45980DB407FEFACF83
:103860001EBD0DB407FC06C04B9BFBCF45980DB4A5
:1038700007FEFACF2EB527FDF3CF222319F02F3FF5
:1038800009F09CCF1EBD0DB407FC06C04B9BFBCFBF
:1038900045980DB407FEFACF8EB58E3F99F7F20129
:1038A0001EBD0DB407FC06C04B9BFBCF45980DB465
:1038B00007FEFACF8EB5808388A199A1E817F90792
:1038C00011F03196EDCF1EBD0DB407FC06C04B9B29
:1038D000FBCF45980DB407FEFACF8EB51EBD0DB4D3
:1038E00007FC06C04B9BFBCF45980DB407FEFACFF3
:1038F0008EB5D7018D919C911EBD0DB407FC06C0FD
:103900004B9BFBCF45980DB407FEFACF0EBD0DB40F
:1039100007FC06C04B9BFBCF45980DB407FEFACFC2
:103920001EBC0DB407FC06C04B9BFBCF45980DB4E5
:1039300007FEFACF1EBC0DB407FC06C04B9BFBCFA5
:1039400045980DB407FEFACF1EBC0DB407FC06C0A7
:103950004B9BFBCF45980DB407FEFACFB8E0BEBD38
:103960000DB407FC06C04B9BFBCF45980DB407FE7A
:10397000FACFE5E9EEBD0DB407FC06C04B9BFBCFCB
:1039800045980DB407FEFACF1EBD0DB407FC06C066
:103990004B9BFBCF45980DB407FEFACF1EBD0DB46F
:1039A00007FC06C04B9BFBCF45980DB407FEFACF32
:1039B0002EB527FDF3CF222319F02F3F09F09CCF1E
:1039C000880F991F82959295907F9827807F9827DE
:1039D000AC0160E070E08C899D89AE89BF89480F99
:1039E000591F6A1F7B1F872F9927AA27BB27E82FFC
:1039F000CB01AA27BB27382FBB27A72F962F852FB0
:103A00001EBD0DB407FC06C04B9BFBCF45980DB403
:103A100007FEFACF91E59EBD0DB407FC06C04B9B97
:103A2000FBCF45980DB407FEFACFEEBD0DB407FCF1
:103A300006C04B9BFBCF45980DB407FEFACF3EBDA9
:103A40000DB407FC06C04B9BFBCF45980DB407FE99
:103A5000FACF8EBD0DB407FC06C04B9BFBCF45983B
:103A60000DB407FEFACF4EBD0DB407FC06C04B9B4C
:103A7000FBCF45980DB407FEFACFA5E9AEBD0DB456
:103A800007FC06C04B9BFBCF45980DB407FEFACF51
:103A90001EBD0DB407FC06C04B9BFBCF45980DB473
:103AA00007FEFACF1EBD0DB407FC06C04B9BFBCF33
:103AB00045980DB407FEFACF2EB527FDF3CF22238C
:103AC00019F02F3F09F09CCF1EBD0DB407FC06C0B6
:103AD0004B9BFBCF45980DB407FEFACF8EB58E3FBA
:103AE00099F7FE013C961EBD0DB407FC06C04B9B2A
:103AF000FBCF45980DB407FEFACF8EB580838AA11F
:103B00009BA1E817F90711F03196EDCF1EBD0DB45A
:103B100007FC06C04B9BFBCF45980DB407FEFACFC0
:103B20008EB51EBD0DB407FC06C04B9BFBCF459860
:103B30000DB407FEFACF8EB5C201BE01645F7F4FA0
:103B400048E050E00E94F32F97FF0EC0D701129675
:103B50002D913C9113978D919C91119713969C9365
:103B60008E9312972D933C930894811C911CE2E054
:103B7000F0E0EE0EFF1EA814B90408F095CD0894ED
:103B8000C11CD11C0894A108B1086C147D0408F074
:103B900082CD13CD8EB51EBD0DB407FC28CD4B9B39
:103BA000FBCF4598F9CF2F923F924F925F926F9241
:103BB0007F928F929F92AF92BF92CF92DF92EF92BD
:103BC000FF920F931F93DF93CF93CDB7DEB76E971E
:103BD0000FB6F894DEBF0FBECDBFF82EE92E162F1C
:103BE000042F5A8FA82EB92EC50160E071E00E9403
:103BF000D0171C01DE011996E5E0F1E08DE001909F
:103C00000D928150E1F781E06FEF71E00E94EA2EA2
:103C10002114310409F44AC5112309F0E3C39E01BC
:103C20002F5F3F4F3C8F2B8FCE0108969E8F8D8F3D
:103C3000CC24DD24E0E0F0E0EA0DFB1D80819181E1
:103C40003FEF40E558E065E93EBD0DB407FC06C016
:103C50004B9BFBCF45980DB407FEFACF4EBD0DB47C
:103C600007FC06C04B9BFBCF45980DB407FEFACF6F
:103C70001EBC0DB407FC06C04B9BFBCF45980DB492
:103C800007FEFACF1EBC0DB407FC06C04B9BFBCF52
:103C900045980DB407FEFACF1EBC0DB407FC06C054
:103CA0004B9BFBCF45980DB407FEFACF5EBD0DB41C
:103CB00007FC06C04B9BFBCF45980DB407FEFACF1F
:103CC0006EBD0DB407FC06C04B9BFBCF45980DB4F1
:103CD00007FEFACF3EBD0DB407FC06C04B9BFBCFE1
:103CE00045980DB407FEFACF3EBD0DB407FC06C0E3
:103CF0004B9BFBCF45980DB407FEFACF2EB527FDA1
:103D0000F3CF222319F02F3F09F09ECF880F991F80
:103D100082959295907F9827807F9827AC0160E0EC
:103D200070E080911F0890912008A0912108B09127
:103D30002208480F591F6A1F7B1F872F9927AA2720
:103D4000BB27F82FCB01AA27BB27E82FBB27A72F1C
:103D5000962F852F3FEF91E5A5E93EBD0DB407FCF9
:103D600006C04B9BFBCF45980DB407FEFACF9EBD16
:103D70000DB407FC06C04B9BFBCF45980DB407FE66
:103D8000FACFFEBD0DB407FC06C04B9BFBCF459898
:103D90000DB407FEFACFEEBD0DB407FC06C04B9B79
:103DA000FBCF45980DB407FEFACF8EBD0DB407FCCE
:103DB00006C04B9BFBCF45980DB407FEFACF4EBD16
:103DC0000DB407FC06C04B9BFBCF45980DB407FE16
:103DD000FACFAEBD0DB407FC06C04B9BFBCF459898
:103DE0000DB407FEFACF3EBD0DB407FC06C04B9BD9
:103DF000FBCF45980DB407FEFACF3EBD0DB407FCCE
:103E000006C04B9BFBCF45980DB407FEFACF2EB5ED
:103E100027FDF3CF222319F02F3F09F09ECF9FEF0C
:103E20009EBD0DB407FC06C04B9BFBCF45980DB45F
:103E300007FEFACF8EB58E3F99F7FE013996A0E1C5
:103E40008A2E912C8C0E9D1E9FEF9EBD0DB407FCFB
:103E500006C04B9BFBCF45980DB407FEFACF8EB53D
:103E60008083E815F90511F03196EFCF8FEF8EBD05
:103E70000DB407FC06C04B9BFBCF45980DB407FE65
:103E8000FACF8EB58FEF8EBD0DB407FC06C04B9BED
:103E9000FBCF45980DB407FEFACF8EB582E0BE0188
:103EA000675F7F4F0E94D42EEE24EA94FE2C3101EE
:103EB0000894610871081FEF70E5572E68E0462EE0
:103EC00055E9352E41E5242E83E064E071E00E943F
:103ED000D42E0E94002F853509F43DC1843409F4A5
:103EE00032C1833509F43FC1EC14FD0409F416C155
:103EF000F601EE0FFF1FEA0DFB1D808191811EBDB3
:103F00000DB407FC06C04B9BFBCF45980DB407FED4
:103F1000FACF5EBC0DB407FC06C04B9BFBCF4598A7
:103F20000DB407FEFACF1EBC0DB407FC06C04B9BB8
:103F3000FBCF45980DB407FEFACF1EBC0DB407FCAD
:103F400006C04B9BFBCF45980DB407FEFACF1EBCB5
:103F50000DB407FC06C04B9BFBCF45980DB407FE84
:103F6000FACF4EBC0DB407FC06C04B9BFBCF459867
:103F70000DB407FEFACF3EBC0DB407FC06C04B9B48
:103F8000FBCF45980DB407FEFACF1EBD0DB407FC5C
:103F900006C04B9BFBCF45980DB407FEFACF1EBD64
:103FA0000DB407FC06C04B9BFBCF45980DB407FE34
:103FB000FACF2EB527FDF3CF222319F02F3F09F0BA
:103FC0009ECF880F991F82959295907F9827807F2A
:103FD0009827AC0160E070E080911F089091200864
:103FE000A0912108B0912208480F591F6A1F7B1F1A
:103FF000872F9927AA27BB27E82FCB01AA27BB2702
:10400000382FBB27A72F962F852F1EBD0DB407FC79
:1040100006C04B9BFBCF45980DB407FEFACF2EBCD4
:104020000DB407FC06C04B9BFBCF45980DB407FEB3
:10403000FACFEEBD0DB407FC06C04B9BFBCF4598F5
:104040000DB407FEFACF3EBD0DB407FC06C04B9B76
:10405000FBCF45980DB407FEFACF8EBD0DB407FC1B
:1040600006C04B9BFBCF45980DB407FEFACF4EBD63
:104070000DB407FC06C04B9BFBCF45980DB407FE63
:10408000FACF3EBC0DB407FC06C04B9BFBCF459856
:104090000DB407FEFACF1EBD0DB407FC06C04B9B46
:1040A000FBCF45980DB407FEFACF1EBD0DB407FC3B
:1040B00006C04B9BFBCF45980DB407FEFACF2EB53B
:1040C00027FDF3CF222319F02F3F09F09ECF1EBD0D
:1040D0000DB407FC06C04B9BFBCF45980DB407FE03
:1040E000FACF8EB58E3F99F7FE0139961EBD0DB4FD
:1040F00007FC06C04B9BFBCF45980DB407FEFACFDB
:104100008EB58083E815F90559F03196EFCF8EB55D
:1041100082E0BE01675F7F4F0E94D42E7601D4CE2D
:104120001EBD0DB407FC06C04B9BFBCF45980DB4DC
:1041300007FEFACF8EB51EBD0DB407FCE8CF4B9B32
:10414000FBCF4598F9CF1C141D040CF0CDCE08947C
:10415000C108D108C9CEC614D70408F0C5CE08944A
:10416000C11CD11CC1CECC0CDD1CAC0CBD1CD501BE
:104170008D919C913FEF40E558E065E93EBD0DB45F
:1041800007FC06C04B9BFBCF45980DB407FEFACF4A
:104190004EBD0DB407FC06C04B9BFBCF45980DB43C
:1041A00007FEFACF1EBC0DB407FC06C04B9BFBCF2D
:1041B00045980DB407FEFACF1EBC0DB407FC06C02F
:1041C0004B9BFBCF45980DB407FEFACF1EBC0DB438
:1041D00007FC06C04B9BFBCF45980DB407FEFACFFA
:1041E0005EBD0DB407FC06C04B9BFBCF45980DB4DC
:1041F00007FEFACF6EBD0DB407FC06C04B9BFBCF8C
:1042000045980DB407FEFACF3EBD0DB407FC06C0BD
:104210004B9BFBCF45980DB407FEFACF3EBD0DB4C6
:1042200007FC06C04B9BFBCF45980DB407FEFACFA9
:104230002EB527FDF3CF222319F02F3F09F09ECF93
:10424000880F991F82959295907F9827807F982755
:10425000AC0160E070E080911F0890912008A0916F
:104260002108B0912208480F591F6A1F7B1F872F12
:104270009927AA27BB27F82FCB01AA27BB27E82F0E
:10428000BB27A72F962F852F3FEF91E5A5E93EBDD0
:104290000DB407FC06C04B9BFBCF45980DB407FE41
:1042A000FACF9EBD0DB407FC06C04B9BFBCF4598D3
:1042B0000DB407FEFACFFEBD0DB407FC06C04B9B44
:1042C000FBCF45980DB407FEFACFEEBD0DB407FC49
:1042D00006C04B9BFBCF45980DB407FEFACF8EBDB1
:1042E0000DB407FC06C04B9BFBCF45980DB407FEF1
:1042F000FACF4EBD0DB407FC06C04B9BFBCF4598D3
:104300000DB407FEFACFAEBD0DB407FC06C04B9B43
:10431000FBCF45980DB407FEFACF3EBD0DB407FCA8
:1043200006C04B9BFBCF45980DB407FEFACF3EBDB0
:104330000DB407FC06C04B9BFBCF45980DB407FEA0
:10434000FACF2EB527FDF3CF222319F02F3F09F026
:104350009ECF9FEF9EBD0DB407FC06C04B9BFBCFCD
:1043600045980DB407FEFACF8EB58E3F99F7EB8DC9
:10437000FC8D9FEF9EBD0DB407FC06C04B9BFBCF91
:1043800045980DB407FEFACF8EB580832D8D3E8DF6
:10439000E217F30711F03196EDCF8FEF8EBD0DB41C
:1043A00007FC06C04B9BFBCF45980DB407FEFACF28
:1043B0008EB58FEF8EBD0DB407FC06C04B9BFBCFB7
:1043C00045980DB407FEFACF8EB5802F9A8D9C01CB
:1043D000D901EB8DFC8D88E001900D928150E1F7C1
:1043E00081E06AC1C101A0E0B0E08E8B9F8BA88FF5
:1043F000B98F0097A105B10509F47BC140901F0852
:104400005090200860902108709022088F2D9E2DDA
:104410009C014901CC24DD2476019E012F5F3F4F92
:104420003C8F2B8FCE0108969E8F8D8F1FEFD4016E
:104430008D919C91BFEFBEBD0DB407FC06C04B9B98
:10444000FBCF45980DB407FEFACFE0E5EEBD0DB405
:1044500007FC06C04B9BFBCF45980DB407FEFACF77
:104460001EBC0DB407FC06C04B9BFBCF45980DB49A
:1044700007FEFACF1EBC0DB407FC06C04B9BFBCF5A
:1044800045980DB407FEFACF1EBC0DB407FC06C05C
:104490004B9BFBCF45980DB407FEFACFF8E0FEBD6D
:1044A0000DB407FC06C04B9BFBCF45980DB407FE2F
:1044B000FACF25E92EBD0DB407FC06C04B9BFBCF00
:1044C00045980DB407FEFACF1EBD0DB407FC06C01B
:1044D0004B9BFBCF45980DB407FEFACF1EBD0DB424
:1044E00007FC06C04B9BFBCF45980DB407FEFACFE7
:1044F0002EB527FDF3CF222319F02F3F09F09ACFD5
:10450000880F991F82959295907F9827807F982792
:10451000AC0160E070E0440D551D661D771D872FCE
:104520009927AA27BB27E82FCB01AA27BB27382F1B
:10453000BB27A72F962F852F1EBD0DB407FC06C0E5
:104540004B9BFBCF45980DB407FEFACF91E59EBD7E
:104550000DB407FC06C04B9BFBCF45980DB407FE7E
:10456000FACFEEBD0DB407FC06C04B9BFBCF4598C0
:104570000DB407FEFACF3EBD0DB407FC06C04B9B41
:10458000FBCF45980DB407FEFACF8EBD0DB407FCE6
:1045900006C04B9BFBCF45980DB407FEFACF4EBD2E
:1045A0000DB407FC06C04B9BFBCF45980DB407FE2E
:1045B000FACFA5E9AEBD0DB407FC06C04B9BFBCFFF
:1045C00045980DB407FEFACF1EBD0DB407FC06C01A
:1045D0004B9BFBCF45980DB407FEFACF1EBD0DB423
:1045E00007FC06C04B9BFBCF45980DB407FEFACFE6
:1045F0002EB527FDF3CF222319F02F3F09F09CCFD2
:104600001EBD0DB407FC06C04B9BFBCF45980DB4F7
:1046100007FEFACF8EB58E3F99F7EB8DFC8D1EBD50
:104620000DB407FC06C04B9BFBCF45980DB407FEAD
:10463000FACF8EB580832D8D3E8DE217F30711F0F2
:104640003196EDCF1EBD0DB407FC06C04B9BFBCFD2
:1046500045980DB407FEFACF8EB51EBD0DB407FC0C
:1046600006C04B9BFBCF45980DB407FEFACF8EB525
:104670008B8D9C8D602F7A8D48E050E00E94F32F47
:10468000009799F10894C11CD11CE11CF11C82E037
:1046900090E0880E991E8E899F89A88DB98DC816C5
:1046A000D906EA06FB0608F4C2CEC2CA82E061E27D
:1046B00072E00E94EA2E80E06E960FB6F894DEBF9C
:1046C0000FBECDBFCF91DF911F910F91FF90EF9063
:1046D000DF90CF90BF90AF909F908F907F906F9022
:1046E0005F904F903F902F900895F601EE0FFF1FBF
:1046F000A3CADE011196BC8FAB8FFE013896FE8FE8
:10470000ED8F96CA2F923F924F925F926F927F9257
:104710008F929F92AF92BF92CF92DF92EF92FF92D1
:104720000F931F93DF93CF93CDB7DEB76A970FB682
:10473000F894DEBF0FBECDBF998B888B7B8B6A8BC5
:104740005D8B4C8BA22E22243324412CE2E05E2E82
:104750006624772488249924CC24DD2476011FEF55
:10476000CE0108969A8F898FDC011896B88FAF8B8F
:104770004B99DDC21EBD0DB407FC06C04B9BFBCFA1
:1047800045980DB407FEFACFB0E5BEBD0DB407FCE9
:1047900006C04B9BFBCF45980DB407FEFACF1EBC5D
:1047A0000DB407FC06C04B9BFBCF45980DB407FE2C
:1047B000FACF1EBC0DB407FC06C04B9BFBCF45983F
:1047C0000DB407FEFACF1EBC0DB407FC06C04B9B10
:1047D000FBCF45980DB407FEFACFE1E0EEBD0DB476
:1047E00007FC06C04B9BFBCF45980DB407FEFACFE4
:1047F000F5E9FEBD0DB407FC06C04B9BFBCF459809
:104800000DB407FEFACF1EBD0DB407FC06C04B9BCE
:10481000FBCF45980DB407FEFACF1EBD0DB407FCC3
:1048200006C04B9BFBCF45980DB407FEFACF8EB563
:1048300087FDF3CF882319F08F3F09F09BCF20919C
:104840001F083091200840912108509122082C0D1A
:104850003D1D4E1D5F1D852F9927AA27BB27B82E0A
:10486000CA01AA27BB27082FBB27A52F942F832F68
:10487000F82F2E8B1EBD0DB407FC06C04B9BFBCF43
:1048800045980DB407FEFACF81E58EBD0DB407FC47
:1048900006C04B9BFBCF45980DB407FEFACFBEBCBC
:1048A0000DB407FC06C04B9BFBCF45980DB407FE2B
:1048B000FACF0EBD0DB407FC06C04B9BFBCF45984D
:1048C0000DB407FEFACFFEBD0DB407FC06C04B9B2E
:1048D000FBCF45980DB407FEFACF9E899EBD0DB45F
:1048E00007FC06C04B9BFBCF45980DB407FEFACFE3
:1048F000A5E9AEBD0DB407FC06C04B9BFBCF4598A8
:104900000DB407FEFACF1EBD0DB407FC06C04B9BCD
:10491000FBCF45980DB407FEFACF1EBD0DB407FCC2
:1049200006C04B9BFBCF45980DB407FEFACF8EB562
:1049300087FDF3CF882319F08F3F09F09BCF1EBD71
:104940000DB407FC06C04B9BFBCF45980DB407FE8A
:10495000FACF8EB58E3F99F71EBD0DB407FC06C089
:104960004B9BFBCF45980DB407FEFACF9EB51EBDFD
:104970000DB407FC06C04B9BFBCF45980DB407FE5A
:10498000FACF8EB51EBD0DB407FC06C04B9BFBCF06
:1049900045980DB407FEFACF8EB5992309F401C2EC
:1049A000953009F4FEC19E3209F4FBC1953E09F42D
:1049B000F8C1892F81548A3120F090539A3008F041
:1049C000F0C1BA01A901455F5F4F6F4F7F4F872F3D
:1049D0009927AA27BB27E82FCB01AA27BB27382F67
:1049E000BB27A72F962F852F1EBD0DB407FC06C031
:1049F0004B9BFBCF45980DB407FEFACFB1E5BEBD8A
:104A00000DB407FC06C04B9BFBCF45980DB407FEC9
:104A1000FACFEEBD0DB407FC06C04B9BFBCF45980B
:104A20000DB407FEFACF3EBD0DB407FC06C04B9B8C
:104A3000FBCF45980DB407FEFACF8EBD0DB407FC31
:104A400006C04B9BFBCF45980DB407FEFACF4EBD79
:104A50000DB407FC06C04B9BFBCF45980DB407FE79
:104A6000FACF95E99EBD0DB407FC06C04B9BFBCF6A
:104A700045980DB407FEFACF1EBD0DB407FC06C065
:104A80004B9BFBCF45980DB407FEFACF1EBD0DB46E
:104A900007FC06C04B9BFBCF45980DB407FEFACF31
:104AA0002EB527FDF3CF222319F02F3F09F09CCF1D
:104AB0001EBD0DB407FC06C04B9BFBCF45980DB443
:104AC00007FEFACF8EB58E3F99F71EBD0DB407FCD9
:104AD00006C04B9BFBCF45980DB407FEFACF9EB5A1
:104AE0001EBD0DB407FC06C04B9BFBCF45980DB413
:104AF00007FEFACF8EB51EBD0DB407FC06C04B9B5A
:104B0000FBCF45980DB407FEFACF8EB5892F8E7175
:104B100009F047C19F3009F444C11EBD0DB407FC24
:104B200006C04B9BFBCF45980DB407FEFACFA0E51E
:104B3000AEBD0DB407FC06C04B9BFBCF45980DB432
:104B400007FEFACF1EBC0DB407FC06C04B9BFBCF83
:104B500045980DB407FEFACF1EBC0DB407FC06C085
:104B60004B9BFBCF45980DB407FEFACF1EBC0DB48E
:104B700007FC06C04B9BFBCF45980DB407FEFACF50
:104B8000BCE0BEBD0DB407FC06C04B9BFBCF4598F7
:104B90000DB407FEFACFE5E9EEBD0DB407FC06C083
:104BA0004B9BFBCF45980DB407FEFACF1EBD0DB44D
:104BB00007FC06C04B9BFBCF45980DB407FEFACF10
:104BC0001EBD0DB407FC06C04B9BFBCF45980DB432
:104BD00007FEFACF8EB587FDF3CF882319F08F3FFC
:104BE00009F09BCF1EBD0DB407FC06C04B9BFBCF4D
:104BF00045980DB407FEFACF81E58EBD0DB407FCD4
:104C000006C04B9BFBCF45980DB407FEFACFBEBC48
:104C10000DB407FC06C04B9BFBCF45980DB407FEB7
:104C2000FACF0EBD0DB407FC06C04B9BFBCF4598D9
:104C30000DB407FEFACFFEBD0DB407FC06C04B9BBA
:104C4000FBCF45980DB407FEFACF9E899EBD0DB4EB
:104C500007FC06C04B9BFBCF45980DB407FEFACF6F
:104C6000A5E9AEBD0DB407FC06C04B9BFBCF459834
:104C70000DB407FEFACF1EBD0DB407FC06C04B9B5A
:104C8000FBCF45980DB407FEFACF1EBD0DB407FC4F
:104C900006C04B9BFBCF45980DB407FEFACF8EB5EF
:104CA00087FDF3CF882319F08F3F09F09BCF1EBDFE
:104CB0000DB407FC06C04B9BFBCF45980DB407FE17
:104CC000FACF8EB58E3F99F7FE0138961EBD0DB412
:104CD00007FC06C04B9BFBCF45980DB407FEFACFEF
:104CE0008EB581938F89988DE817F90779F7FE01C2
:104CF00035961EBD0DB407FC06C04B9BFBCF4598F7
:104D00000DB407FEFACF8EB58193A98DBA8DEA173F
:104D1000FB0779F7EA89FB89EF2B09F4B0C11EBDC7
:104D20000DB407FC97C04B9BFBCF4598F9CF60E0D3
:104D300072E0CB016A960FB6F894DEBF0FBECDBF0E
:104D4000CF91DF911F910F91FF90EF90DF90CF9067
:104D5000BF90AF909F908F907F906F905F904F909B
:104D60003F902F9008958EB5CE0105966889798978
:104D700043E050E00E94F32F009799F4AA2009F035
:104D8000B2C129813A818B819C818816990630F0C5
:104D90008815990531F42615370518F021013901D8
:104DA0004C010894211C311C80E290E0A0E0B0E0AE
:104DB000C80ED91EEA1EFB1E90E0291692E03906A5
:104DC00009F0D6CCA0E04A16A2E05A0631F0EC89F0
:104DD000FD89EF2B11F0AA2011F0B201AACF80E1DA
:104DE00048E050E060E070E00E94D902B201660F36
:104DF000771F62957295707F7627607F762780E0B7
:104E000090E020911F083091200840912108509196
:104E10002208620F731F841F951F0E944F0320E01A
:104E200030E09FEF9EBD0DB407FC04C04B9BFBCF51
:104E30004598F9CF8EB5EC89FD89E20FF31F808389
:104E40002F5F3F4F2830310569F70E94C0010E9453
:104E5000C001C3CF8EB58170880F880F880FAA89D3
:104E6000BB898C931EBD0DB407FC04C04B9BFBCFCC
:104E70004598F9CF8EB51EBD0DB407FC04C04B9B01
:104E8000FBCF4598F9CF8EB51EBD0DB407FC06C00B
:104E90004B9BFBCF45980DB407FEFACFB0E5BEBDE6
:104EA0000DB407FC06C04B9BFBCF45980DB407FE25
:104EB000FACF1EBC0DB407FC06C04B9BFBCF459838
:104EC0000DB407FEFACF1EBC0DB407FC06C04B9B09
:104ED000FBCF45980DB407FEFACF1EBC0DB407FCFE
:104EE00006C04B9BFBCF45980DB407FEFACFE4E01C
:104EF000EEBD0DB407FC06C04B9BFBCF45980DB42F
:104F000007FEFACFF5E9FEBD0DB407FC06C04B9BCA
:104F1000FBCF45980DB407FEFACF1EBD0DB407FCBC
:104F200006C04B9BFBCF45980DB407FEFACF1EBDC4
:104F30000DB407FC06C04B9BFBCF45980DB407FE94
:104F4000FACF8EB587FDF3CF882319F08F3F09F094
:104F50009BCF20911F08309120084091210850914B
:104F600022082A5E3F4F4F4F5F4F2C0D3D1D4E1DB7
:104F70005F1D852F9927AA27BB27E82FCA01AA27DB
:104F8000BB27782FBB27A52F942F832F1EBD0DB4D1
:104F900007FC06C04B9BFBCF45980DB407FEFACF2C
:104FA00091E59EBD0DB407FC06C04B9BFBCF459819
:104FB0000DB407FEFACFEEBD0DB407FC06C04B9B47
:104FC000FBCF45980DB407FEFACF7EBD0DB407FCAC
:104FD00006C04B9BFBCF45980DB407FEFACF8EBDA4
:104FE0000DB407FC06C04B9BFBCF45980DB407FEE4
:104FF000FACF2EBD0DB407FC06C04B9BFBCF4598E6
:105000000DB407FEFACFA5E9AEBD0DB407FC06C08E
:105010004B9BFBCF45980DB407FEFACF1EBD0DB4D8
:1050200007FC06C04B9BFBCF45980DB407FEFACF9B
:105030001EBD0DB407FC06C04B9BFBCF45980DB4BD
:1050400007FEFACF6EB567FDF3CF662319F06F3F09
:1050500009F09CCF1EBD0DB407FC06C04B9BFBCFD7
:1050600045980DB407FEFACF8EB58E3F99F71EBD59
:105070000DB407FC07C04B9BFBCF4598F9CF0E94AE
:10508000C001F0CE8EB589831EBD0DB407FC04C0EF
:105090004B9BFBCF4598F9CF8EB58A831EBD0DB4CF
:1050A00007FC04C04B9BFBCF4598F9CF8EB58B8393
:1050B0001EBD0DB407FC04C04B9BFBCF4598F9CF38
:1050C0008EB58C831EBD0DB407FC04C04B9BFBCF7B
:1050D0004598F9CF8EB51EBD0DB407FC44CE4B9B51
:1050E000FBCF4598F9CFCE0108966C897D8948E0C1
:1050F00050E00E94F32F009709F053CE42CECF929A
:10510000DF92EF92FF920F931F93DF93CF93CDB770
:10511000DEB766970FB6F894DEBF0FBECDBF5D9ABF
:1051200083E58CBD2A9A80E090E02FEF2EBD0DB470
:1051300007FC06C04B9BFBCF45980DB407FEFACF8A
:1051400001968A30910591F72A9880E090E02FEF40
:105150002EBD0DB407FC06C04B9BFBCF45980DB48C
:1051600007FEFACF01968230910591F78FEF8EBD41
:105170000DB407FC06C04B9BFBCF45980DB407FE52
:10518000FACF80E48EBD0DB407FC06C04B9BFBCF6D
:1051900045980DB407FEFACF1EBC0DB407FC06C03F
:1051A0004B9BFBCF45980DB407FEFACF1EBC0DB448
:1051B00007FC06C04B9BFBCF45980DB407FEFACF0A
:1051C0001EBC0DB407FC06C04B9BFBCF45980DB42D
:1051D00007FEFACF1EBC0DB407FC06C04B9BFBCFED
:1051E00045980DB407FEFACF85E98EBD0DB407FCD6
:1051F00006C04B9BFBCF45980DB407FEFACF8FEF4F
:105200008EBD0DB407FC06C04B9BFBCF45980DB47B
:1052100007FEFACF9FEF9EBD0DB407FC06C04B9B67
:10522000FBCF45980DB407FEFACF8EB5813099F7C4
:105230002A9A6FEF71E00E94EA2E9FEF27E735E987
:1052400049E62A989EBD0DB407FC06C04B9BFBCFD8
:1052500045980DB407FEFACF2EBD0DB407FC06C06D
:105260004B9BFBCF45980DB407FEFACF1EBC0DB487
:1052700007FC06C04B9BFBCF45980DB407FEFACF49
:105280001EBC0DB407FC06C04B9BFBCF45980DB46C
:1052900007FEFACF1EBC0DB407FC06C04B9BFBCF2C
:1052A00045980DB407FEFACF1EBC0DB407FC06C02E
:1052B0004B9BFBCF45980DB407FEFACF3EBD0DB416
:1052C00007FC06C04B9BFBCF45980DB407FEFACFF9
:1052D0009EBD0DB407FC06C04B9BFBCF45980DB49B
:1052E00007FEFACF9EBD0DB407FC06C04B9BFBCF5B
:1052F00045980DB407FEFACF8EB587FDF3CF8F3FEB
:1053000009F468C08E7F09F09CCF2A9A2A989EBD26
:105310000DB407FC06C04B9BFBCF45980DB407FEB0
:10532000FACF4EBD0DB407FC06C04B9BFBCF459892
:105330000DB407FEFACF1EBC0DB407FC06C04B9B94
:10534000FBCF45980DB407FEFACF1EBC0DB407FC89
:1053500006C04B9BFBCF45980DB407FEFACF1EBC91
:105360000DB407FC06C04B9BFBCF45980DB407FE60
:10537000FACF1EBC0DB407FC06C04B9BFBCF459873
:105380000DB407FEFACF3EBD0DB407FC06C04B9B23
:10539000FBCF45980DB407FEFACF9EBD0DB407FCB8
:1053A00006C04B9BFBCF45980DB407FEFACF9EBDC0
:1053B0000DB407FC06C04B9BFBCF45980DB407FE10
:1053C000FACF8EB587FDF3CF8823B1F08F3F11F070
:1053D0002A9A37CF20E030E0C90166960FB6F894DC
:1053E000DEBF0FBECDBFCF91DF911F910F91FF9018
:1053F000EF90DF90CF90089580E58CBD81E08DBD6A
:1054000080E145E050E060E070E00E94D90266E390
:1054100070E080E090E00E944F03FE01329657E07A
:10542000C52ED12CCC0EDD1E9FEF9EBD0DB407FC0A
:1054300006C04B9BFBCF45980DB407FEFACF8EB547
:105440008193EC15FD0589F70E94C0010E94C001FF
:105450008A81863421F48B81813409F45EC180E134
:1054600044E050E060E070E00E94D90266EC71E038
:1054700080E090E00E944F030E94C00190E0A0E015
:10548000B0E08093180890931908A0931A08B0937D
:105490001B080E94C00190E0A0E0B0E0BA2FA92F45
:1054A000982F8827209118083091190840911A08E0
:1054B00050911B08280F391F4A1F5B1F20931808A3
:1054C0003093190840931A0850931B080E94C0019A
:1054D00090E0A0E0B0E0DC0199278827209118082F
:1054E0003091190840911A0850911B08280F391F54
:1054F0004A1F5B1F209318083093190840931A081D
:1055000050931B080E94C0018091180890911908BF
:10551000A0911A08B0911B0829E0880F991FAA1FB3
:10552000BB1F2A95D1F78093180890931908A09370
:105530001A08B0931B080E94C0010E94C00180E1BC
:1055400043E050E060E070E00E94D90260911808EA
:105550007091190880911A0890911B08635F7F4F22
:105560008F4F9F4F0E944F030E94C0018983898102
:1055700080931408109223018981813051F090E0CA
:105580009F5F89818695898389818130C9F790934E
:1055900023010E94C001082F10E00E94C001F82ED4
:1055A0000E94C0010E94C0019F2D80E0800F911FCA
:1055B000A0E0B0E009E0880F991FAA1FBB1F0A9561
:1055C000D1F7209118083091190840911A0850918C
:1055D0001B08820F931FA41FB51F80931008909380
:1055E0001108A0931208B093130880E142E050E044
:1055F00060E070E00E94D90260911808709119086B
:1056000080911A0890911B086A5E7F4F8F4F9F4FC1
:105610000E944F030E94C00180930708109208085F
:105620000E94C001382F20E080910708909108085F
:10563000820F931F90930808809307080E94C0016F
:105640000E94C0018091070890910808A0E0B0E096
:105650001AE0880F991FAA1FBB1F1A95D1F7209136
:105660001008309111084091120850911308820FD0
:10567000931FA41FB51F80931F0890932008A09329
:105680002108B09322088050904CAF4FBF4F8093B9
:105690000C0890930D08A0930E08B0930F08FFE03C
:1056A000EF2EF12CEC0EFD1E82E191E060E070E047
:1056B000A70120E00E9482239C019093040880931C
:1056C000030800E02050324009F001E08BE291E055
:1056D000602FA7010E94D31D0023A1F58823D9F5CF
:1056E00020E080E091E06BE678E0A6010E94822352
:1056F00090931708809316088FEF80930908809382
:10570000150880E140E052E060E070E00E94D902BC
:105710001CBC5D9821E030E05FCE8C81843509F0BF
:105720009ECE8D81813309F09ACE8E81863309F029
:1057300096CE109218081092190810921A0810921A
:105740001B08FDCED601F70188E001900D92815033
:10575000E1F721E0C6CFD601F70188E001900D9274
:105760008150E1F7F6CF2F923F924F925F926F9266
:105770007F928F929F92AF92BF92CF92DF92EF92E1
:10578000FF920F931F93DF93CF9300D00F92CDB76B
:10579000DEB78CE284B980E387B98AB981E185B943
:1057A00080E288B989E48BB97894F999FECF81E0D9
:1057B00090E00E94093080931D0880911D08853C6F
:1057C00010F010921D0880911D088C3818F08BE89D
:1057D00080931D088FE080936C0082E080936800C6
:1057E0000E94072F81E06EEE71E00E94EA2E80E0B9
:1057F00090E0A0E0B0E09C01AD0181E090E0A0E08D
:10580000B0E04B99F8CFC901DA010196A11DB11D95
:10581000803020E0920728E0A20720E0B20759F785
:105820008CE687BD82E084BD11E015BD85BF8EE0AA
:105830008093690081E06FEF71E00E94EA2E0E9480
:105840007F28892B09F4FFCF10926C0810920B0867
:1058500010931E08109206081092050810920A086C
:105860001092240110922A011BE2812E11E0912E48
:1058700090922408809223080E946B0180916E0010
:10588000826080936E00E89AE99A1CBC81E060E136
:1058900072E00E94EA2EB0901C01BFEA6B2E712CC0
:1058A000AEE54A2EA1E05A2EAA24A394F8E13F2E99
:1058B000E8E32E2ECC24CA944F9988C15D9A4E9964
:1058C00087C180916B08882309F082C1319980C11A
:1058D0005C9880911E08882309F438C180916E007D
:1058E0008D7F80936E0030910A083F5F3F70309348
:1058F0000A08D0901D08D694D69460911E01E091BC
:105900001F01709120015091210140912201232F0C
:105910002E27809126018D25282B932F9627809165
:1059200025018D25982B2923932F972780912701D7
:105930008D25982B2923932F9527809128018D253C
:10594000982B2923932F9427809129018D25982B1B
:10595000292309F473C1F0E5FCBD4D2D50E04295BB
:105960005295507F5427407F5427430F511D5B832E
:105970004A83309123017A01032E02C0F694E79402
:105980000A94E2F7C70163E270E00E94CC2F262F51
:10599000809109086817B9F06093090840911408CC
:1059A00050E0415D5D4F02C0559547953A95E2F74D
:1059B000809116089091170865E278E003E20E9452
:1059C000FE0530912301C70163E270E00E94CC2FF5
:1059D000FC01EE0FFF1FEB5DF74F80819181029775
:1059E000AC0160E070E004C0440F551F661F771FD4
:1059F0003A95D2F78091140890E00197EA81FB81F3
:105A0000E823F923CF01A0E0B0E0480F591F6A1F37
:105A10007B1F29E0440F551F661F771F2A95D1F77A
:105A200080910C0890910D08A0910E08B0910F087C
:105A3000480F591F6A1F7B1F872F9927AA27BB274B
:105A4000E82FCB01AA27BB27382FBB27A72F962FDC
:105A5000852FCEBC0DB407FC06C04B9BFBCF4598F1
:105A60000DB407FEFACFF1E5FEBD0DB407FC06C08C
:105A70004B9BFBCF45980DB407FEFACFEEBD0DB49E
:105A800007FC06C04B9BFBCF45980DB407FEFACF31
:105A90003EBD0DB407FC06C04B9BFBCF45980DB433
:105AA00007FEFACF8EBD0DB407FC06C04B9BFBCFA3
:105AB00045980DB407FEFACF4EBD0DB407FC06C0E5
:105AC0004B9BFBCF45980DB407FEFACF25E92EBDC1
:105AD0000DB407FC06C04B9BFBCF45980DB407FEE9
