:100000000C94E6000C9468220C94D5010C94030126
:100010000C947F010C9403010C9403010C940301D4
:100020000C9403010C9403010C9403010C94030140
:100030000C9403010C9403010C9420220C940301F2
:100040000C9403010C9403010C9403010C94030120
:100050000C9403010C9403010C9403010C94030110
:100060000C9403010C9403010FED032196979A9BC6
:100070009D9E9FA6A7ABACADAEAFB2B3B4B5B6B7BD
:10008000B9BABBBCBDBEBFCBCDCECFD3D6D7D9DAE4
:10009000DBDCDDDEDFE5E6E7E9EAEBECEDEEEFF2F7
:1000A000F3F4F5F6F7F9FAFBFCFDFEFF00000000A3
:1000B0000000000000000000000000000000000040
:1000C0000000000000000000000000000000000030
:1000D0000000000000000000000000000000000020
:1000E0000000000000000000000000000000000010
:1000F0000000000000000000000000000000000000
:1001000000000000000000000000000000000000EF
:1001100000000000000000000000000000000000DF
:1001200000000000000000000000000000000000CF
:1001300000000000000000000000000000000000BF
:10014000000000010000020300040506000000009A
:1001500000000708000000090A0B0C0D00000E0F3C
:1001600010111213001415161718191A00000000A8
:10017000000000000000001B001C1D1E0000001FEE
:10018000000020210022232425262728000000002B
:1001900000292A2B002C2D2E2F3031320000333431
:1001A0003536373800393A3B3C3D3E3F000D0B09B0
:1001B000070503010E0C0A080604020F00020103E2
:1001C000000201030008040C0020103011241FBE9F
:1001D000CFEFD8E0DEBFCDBF11E0A0E0B1E0EAE0B4
:1001E000F6E402C005900D92AC30B107D9F718E0E3
:1001F000ACE0B1E001C01D92AB35B107E1F70E9460
:100200000B1F0C9403230C94000020E030E04EE51B
:1002100051E0249FF001259FF00D349FF00D112433
:10022000E55EFE4F80E090E01192019661E08E3530
:100230009607D1F72F5F3F4F2530310551F78FEFEC
:100240008093150180930E018093160180930F0116
:1002500080931701809310018093180180931101FE
:10026000809319018093120108952091F307309132
:10027000F4074CE02039340788F488E185B998E325
:1002800095B985B92F5F3F4F40E120313407C0F366
:1002900080E99CE09093F4078093F30708958EBD66
:1002A0000DB407FC06C04B9BFBCF45980DB407FE71
:1002B000FACF08958FEF8EBD0DB407FC06C04B9B9F
:1002C000FBCF45980DB407FEFACF8EB50895CF93B6
:1002D000DF93EC014115510579F020E030E0FE019B
:1002E000E20FF31FDB01A20FB31F8C9180832F5FFE
:1002F0003F4F2417350798F3DF91CF9108951F9250
:100300000F920FB60F9211242F938F939F93EF9319
:10031000FF934F9936C096B19F7080910D01981749
:1003200081F190930D019830B1F1943009F43BC004
:10033000923099F1913029F520E080910B08820FDD
:100340008770E82FE695F0E0E859FF4F24919093ED
:100350000D0180FF24C0922F9F7093FD986F8091B4
:100360000B08980F90930B0880910B08853C10F0B8
:1003700010920B0880910B088C3818F08BE8809352
:100380000B08FF91EF919F918F912F910F900FBECE
:100390000F901F90189522E0D0CF26E0CECF922F5D
:1003A00092959F70DACF24E0C8CF1F920F920FB6BC
:1003B0000F9211242F933F934F935F936F937F93EB
:1003C0008F939F93AF93BF93EF93FF9380E090E061
:1003D000A8E0B0E004C00197A109B10999F04B99D8
:1003E000FACFFF91EF91BF91AF919F918F917F9144
:1003F0006F915F914F913F912F910F900FBE0F9092
:100400001F901895F999FECF60910B0881E090E05C
:100410000E94F5224598E5CF982F8FEF8EBD0DB441
:1004200007FC06C04B9BFBCF45980DB407FEFACFE7
:10043000905C9EBD0DB407FC06C04B9BFBCF45985E
:100440000DB407FEFACF872F9927AA27BB278EBDA9
:100450000DB407FC06C04B9BFBCF45980DB407FEBF
:10046000FACFCB01AA27BB278EBD0DB407FC06C06F
:100470004B9BFBCF45980DB407FEFACFBB27A72FA8
:10048000962F852F8EBD0DB407FC06C04B9BFBCF6E
:1004900045980DB407FEFACF4EBD0DB407FC06C05B
:1004A0004B9BFBCF45980DB407FEFACF85E98EBD77
:1004B0000DB407FC06C04B9BFBCF45980DB407FE5F
:1004C000FACF8FEF8EBD0DB407FC06C04B9BFBCF60
:1004D00045980DB407FEFACF08959FEF9EBD0DB469
:1004E00007FC06C04B9BFBCF45980DB407FEFACF27
:1004F0008EB58F3F99F708959FEF9EBD0DB407FC11
:1005000006C04B9BFBCF45980DB407FEFACF8EB5C6
:1005100087FDF3CF08951F93182F105C872F99271D
:10052000AA27BB27F82FCB01AA27BB27E82FBB2779
:10053000A72F962F852F3FEF95E93EBD0DB407FC01
:1005400006C04B9BFBCF45980DB407FEFACF1EBDEE
:100550000DB407FC06C04B9BFBCF45980DB407FEBE
:10056000FACFFEBD0DB407FC06C04B9BFBCF4598F0
:100570000DB407FEFACFEEBD0DB407FC06C04B9BD1
:10058000FBCF45980DB407FEFACF8EBD0DB407FC26
:1005900006C04B9BFBCF45980DB407FEFACF4EBD6E
:1005A0000DB407FC06C04B9BFBCF45980DB407FE6E
:1005B000FACF9EBD0DB407FC06C04B9BFBCF459800
:1005C0000DB407FEFACF3EBD0DB407FC06C04B9B31
:1005D000FBCF45980DB407FEFACF3EBD0DB407FC26
:1005E00006C04B9BFBCF45980DB407FEFACF2EB546
:1005F00027FDF3CF222319F02F3F09F09ECF1F9143
:100600000895292F332744275527B22F9C014427CB
:100610005527A22F272F382F492F5527FFEF81E588
:1006200095E9FEBD0DB407FC06C04B9BFBCF45987A
:100630000DB407FEFACF8EBD0DB407FC06C04B9B70
:10064000FBCF45980DB407FEFACFBEBD0DB407FC35
:1006500006C04B9BFBCF45980DB407FEFACFAEBD4D
:100660000DB407FC06C04B9BFBCF45980DB407FEAD
:10067000FACF2EBD0DB407FC06C04B9BFBCF4598AF
:100680000DB407FEFACF6EBD0DB407FC06C04B9B40
:10069000FBCF45980DB407FEFACF9EBD0DB407FC05
:1006A00006C04B9BFBCF45980DB407FEFACFFEBDAD
:1006B0000DB407FC06C04B9BFBCF45980DB407FE5D
:1006C000FACFFEBD0DB407FC06C04B9BFBCF45988F
:1006D0000DB407FEFACFEEB5E7FDF3CFEE2319F028
:1006E000EF3F09F09ECF9FEF9EBD0DB407FC06C003
:1006F0004B9BFBCF45980DB407FEFACF8EB58E3FCE
:1007000099F708952F923F924F925F926F927F9246
:100710008F929F92AF92BF92CF92DF92EF92FF9211
:100720000F931F93CF93DF93E090FE07F090FF07A6
:1007300000910008109101089FEF20E532E045E9A3
:100740009EBD0DB407FC06C04B9BFBCF45980DB476
:1007500007FEFACF2EBD0DB407FC06C04B9BFBCFA6
:1007600045980DB407FEFACF1EBC0DB407FC06C0B9
:100770004B9BFBCF45980DB407FEFACF1EBC0DB4C2
:1007800007FC06C04B9BFBCF45980DB407FEFACF84
:100790003EBD0DB407FC06C04B9BFBCF45980DB486
:1007A00007FEFACF1EBC0DB407FC06C04B9BFBCF67
:1007B00045980DB407FEFACF4EBD0DB407FC06C038
:1007C0004B9BFBCF45980DB407FEFACF9EBD0DB4F1
:1007D00007FC06C04B9BFBCF45980DB407FEFACF34
:1007E0009EBD0DB407FC06C04B9BFBCF45980DB4D6
:1007F00007FEFACF8EB587FDF3CF882319F08F3F20
:1008000009F09ECF6090F5077090F60761147104AF
:1008100009F493C1882499243FEFE1E55E2E75E940
:10082000472E33243A945301CC24DD2469E0AA0CEA
:10083000BB1CCC1CDD1C6A95D1F758E5252E812FF9
:100840009927AA27BB27582FC801AA27BB27482FBB
:10085000BB27A12F902F8F2D3EBC0DB407FC06C0E7
:100860004B9BFBCF45980DB407FEFACF5EBC0DB491
:1008700007FC06C04B9BFBCF45980DB407FEFACF93
:100880005EBD0DB407FC06C04B9BFBCF45980DB475
:1008900007FEFACF4EBD0DB407FC06C04B9BFBCF45
:1008A00045980DB407FEFACF8EBD0DB407FC06C007
:1008B0004B9BFBCF45980DB407FEFACFEEBC0DB4B1
:1008C00007FC06C04B9BFBCF45980DB407FEFACF43
:1008D0004EBC0DB407FC06C04B9BFBCF45980DB436
:1008E00007FEFACF3EBD0DB407FC06C04B9BFBCF05
:1008F00045980DB407FEFACF3EBD0DB407FC06C007
:100900004B9BFBCF45980DB407FEFACF2EB527FDC4
:10091000F3CF222319F02F3F09F09ECF3EBD0DB437
:1009200007FC06C04B9BFBCF45980DB407FEFACFE2
:100930008EB58E3F99F7CBE1D1E0FE013EBD0DB4FF
:1009400007FC06C04B9BFBCF45980DB407FEFACFC2
:100950008EB5819383E0EB31F80781F73EBD0DB48E
:1009600007FC06C04B9BFBCF45980DB407FEFACFA2
:100970008EB53EBD0DB407FC06C04B9BFBCF459822
:100980000DB407FEFACF8EB52A9A2A98B801A701AE
:100990004A0D5B1D6C1D7D1D872F9927AA27BB273C
:1009A000F82FCB01AA27BB27E82FBB27A72F962F0D
:1009B000852F3EBD0DB407FC06C04B9BFBCF459871
:1009C0000DB407FEFACF2EBC0DB407FC06C04B9B3E
:1009D000FBCF45980DB407FEFACFFEBD0DB407FC62
:1009E00006C04B9BFBCF45980DB407FEFACFEEBD7A
:1009F0000DB407FC06C04B9BFBCF45980DB407FE1A
:100A0000FACF8EBD0DB407FC06C04B9BFBCF4598BB
:100A10000DB407FEFACF4EBD0DB407FC06C04B9BCC
:100A2000FBCF45980DB407FEFACF4EBC0DB407FCC2
:100A300006C04B9BFBCF45980DB407FEFACF3EBDD9
:100A40000DB407FC06C04B9BFBCF45980DB407FEC9
:100A5000FACF3EBD0DB407FC06C04B9BFBCF4598BB
:100A60000DB407FEFACF2EB527FDF3CF222319F0E0
:100A70002F3F09F09ECF3EBD0DB407FC06C04B9B37
:100A8000FBCF45980DB407FEFACF9EEF9EBD0DB487
:100A900007FC06C04B9BFBCF45980DB407FEFACF71
:100AA00088818EBD0DB407FC06C04B9BFBCF4598DB
:100AB0000DB407FEFACF2196A3E0CB31DA0781F718
:100AC0003EBD0DB407FC06C04B9BFBCF45980DB453
:100AD00007FEFACF3EBD0DB407FC06C04B9BFBCF13
:100AE00045980DB407FEFACF3EBD0DB407FC06C015
:100AF0004B9BFBCF45980DB407FEFACF8EB53EBD9C
:100B00000DB407FC06C04B9BFBCF45980DB407FE08
:100B1000FACF8EB58F3F99F72A9A2A980894811CAC
:100B2000911C8614970448F480E092E0A0E0B0E0C5
:100B3000E80EF91E0A1F1B1F82CEDF91CF911F9175
:100B40000F91FF90EF90DF90CF90BF90AF909F906C
:100B50008F907F906F905F904F903F902F9008956F
:100B60008F929F92AF92BF92CF92DF92EF92FF92BD
:100B70000F931F93CF93DF936B017C015A014901BF
:100B80009FEF20E532E045E99EBD0DB407FC06C0AD
:100B90004B9BFBCF45980DB407FEFACF2EBD0DB48D
:100BA00007FC06C04B9BFBCF45980DB407FEFACF60
:100BB0001EBC0DB407FC06C04B9BFBCF45980DB483
:100BC00007FEFACF1EBC0DB407FC06C04B9BFBCF43
:100BD00045980DB407FEFACF3EBD0DB407FC06C024
:100BE0004B9BFBCF45980DB407FEFACF1EBC0DB44E
:100BF00007FC06C04B9BFBCF45980DB407FEFACF10
:100C00004EBD0DB407FC06C04B9BFBCF45980DB401
:100C100007FEFACF9EBD0DB407FC06C04B9BFBCF71
:100C200045980DB407FEFACF9EBD0DB407FC06C073
:100C30004B9BFBCF45980DB407FEFACF8EB587FDD1
:100C4000F3CF882319F08F3F09F09ECFD701C6015B
:100C500080709E7F2B2F332744275527022F9D011D
:100C600044275527122F892F9A2FAB2FBB27982F58
:100C7000AFEF21E535E9AEBD0DB407FC06C04B9BD7
:100C8000FBCF45980DB407FEFACF2EBD0DB407FC7F
:100C900006C04B9BFBCF45980DB407FEFACF0EBDA7
:100CA0000DB407FC06C04B9BFBCF45980DB407FE67
:100CB000FACF1EBD0DB407FC06C04B9BFBCF459879
:100CC0000DB407FEFACF9EBD0DB407FC06C04B9BCA
:100CD000FBCF45980DB407FEFACF1EBC0DB407FC40
:100CE00006C04B9BFBCF45980DB407FEFACF3EBD27
:100CF0000DB407FC06C04B9BFBCF45980DB407FE17
:100D0000FACFAEBD0DB407FC06C04B9BFBCF459898
:100D10000DB407FEFACFAEBD0DB407FC06C04B9B69
:100D2000FBCF45980DB407FEFACF8EB587FDF3CF04
:100D3000882319F08F3F09F09ECFAFEFAEBD0DB401
:100D400007FC06C04B9BFBCF45980DB407FEFACFBE
:100D50008EB58E3F99F7CBE1D1E0AE01AFEFAEBDDE
:100D60000DB407FC06C04B9BFBCF45980DB407FEA6
:100D7000FACF8EB5FA018193AF01F3E04B315F07F3
:100D800071F78FEF8EBD0DB407FC06C04B9BFBCFF8
:100D900045980DB407FEFACF8EB58FEF8EBD0DB41A
:100DA00007FC06C04B9BFBCF45980DB407FEFACF5E
:100DB0008EB5B6017170655E7E4F8114910479F035
:100DC00020E030E0FB01E20FF31FD501A20FB31FBB
:100DD0008C9180832F5F3F4F2815390598F32A9A0D
:100DE0002A986FEF28E535E96EBD0DB407FC06C003
:100DF0004B9BFBCF45980DB407FEFACF2EBD0DB42B
:100E000007FC06C04B9BFBCF45980DB407FEFACFFD
:100E10000EBD0DB407FC06C04B9BFBCF45980DB42F
:100E200007FEFACF1EBD0DB407FC06C04B9BFBCFDF
:100E300045980DB407FEFACF9EBD0DB407FC06C061
:100E40004B9BFBCF45980DB407FEFACF1EBC0DB4EB
:100E500007FC06C04B9BFBCF45980DB407FEFACFAD
:100E60003EBD0DB407FC06C04B9BFBCF45980DB4AF
:100E700007FEFACF6EBD0DB407FC06C04B9BFBCF3F
:100E800045980DB407FEFACF6EBD0DB407FC06C041
:100E90004B9BFBCF45980DB407FEFACF8EB587FD6F
:100EA000F3CF882319F08F3F09F09ECF8FEF8EBDCF
:100EB0000DB407FC06C04B9BFBCF45980DB407FE55
:100EC000FACF8EEF8EBD0DB407FC06C04B9BFBCF57
:100ED00045980DB407FEFACF88818EBD0DB407FC8E
:100EE00006C04B9BFBCF45980DB407FEFACF219669
:100EF0004C175D0789F78FEF8EBD0DB407FC06C058
:100F00004B9BFBCF45980DB407FEFACF8FEF8EBDFC
:100F10000DB407FC06C04B9BFBCF45980DB407FEF4
:100F2000FACF8FEF8EBD0DB407FC06C04B9BFBCFF5
:100F300045980DB407FEFACF8EB59FEF9EBD0DB458
:100F400007FC06C04B9BFBCF45980DB407FEFACFBC
:100F50008EB58F3F99F72A9A2A98DF91CF911F91EA
:100F60000F91FF90EF90DF90CF90BF90AF909F9048
:100F70008F9008952F923F924F925F926F927F923F
:100F80008F929F92AF92BF92CF92DF92EF92FF9299
:100F90000F931F93DF93CF93CDB7DEB7A4970FB610
:100FA000F894DEBF0FBECDBFAC01FE0135969E01A9
:100FB0002B5D3F4F1192E217F307E1F720E030E09D
:100FC000E5E0F0E0EC0FFD1FE20FF31FDA01A20FE6
:100FD000B31F8C9180832F5F3F4F2830310581F7FD
:100FE0008EE48D8789E48E8783E48F8780E090E6A6
:100FF000A4E0B0E089A39AA3ABA3BCA320900D0802
:1010000030900E0840900F0850901008E0E0F0E09B
:101010003FEF60E5662E3EBD0DB407FC06C04B9B5E
:10102000FBCF45980DB407FEFACF6EBC0DB407FC9C
:1010300006C04B9BFBCF45980DB407FEFACF1EBCF4
:101040000DB407FC06C04B9BFBCF45980DB407FEC3
:10105000FACF1EBC0DB407FC06C04B9BFBCF4598D6
:101060000DB407FEFACF1EBC0DB407FC06C04B9BA7
:10107000FBCF45980DB407FEFACF21E02EBD0DB48D
:1010800007FC06C04B9BFBCF45980DB407FEFACF7B
:1010900085E98EBD0DB407FC06C04B9BFBCF459880
:1010A0000DB407FEFACF3EBD0DB407FC06C04B9B46
:1010B000FBCF45980DB407FEFACF3EBD0DB407FC3B
:1010C00006C04B9BFBCF45980DB407FEFACF8EB5FB
:1010D00087FDF3CF882319F08F3F09F09CCFCF0114
:1010E000880F991F82959295907F9827807F9827E7
:1010F0005C01CC24DD2486017501E20CF31C041D87
:10110000151D812F9927AA27BB27582FC801AA2769
:10111000BB27482FBB27A12F902F8F2D3EBD0DB48D
:1011200007FC06C04B9BFBCF45980DB407FEFACFDA
:1011300091E59EBD0DB407FC06C04B9BFBCF4598C7
:101140000DB407FEFACF5EBD0DB407FC06C04B9B85
:10115000FBCF45980DB407FEFACF4EBD0DB407FC8A
:1011600006C04B9BFBCF45980DB407FEFACF8EBD52
:101170000DB407FC06C04B9BFBCF45980DB407FE92
:10118000FACFEEBC0DB407FC06C04B9BFBCF4598D5
:101190000DB407FEFACFA5E9AEBD0DB407FC06C03D
:1011A0004B9BFBCF45980DB407FEFACF3EBD0DB467
:1011B00007FC06C04B9BFBCF45980DB407FEFACF4A
:1011C0003EBD0DB407FC06C04B9BFBCF45980DB44C
:1011D00007FEFACF2EB527FDF3CF222319F02F3FBC
:1011E00009F09CCF3EBD0DB407FC06C04B9BFBCF66
:1011F00045980DB407FEFACF8EB58E3F99F73EBDE8
:101200000DB407FC06C04B9BFBCF45980DB407FE01
:10121000FACF7EB43EBD0DB407FC06C04B9BFBCF9E
:1012200045980DB407FEFACF8EB53EBD0DB407FC50
:1012300006C04B9BFBCF45980DB407FEFACF8EB589
:10124000B801A701455F5F4F6F4F7F4F872F9927E9
:10125000AA27BB27882ECB01AA27BB27982EBB27FE
:10126000A72F962F852F3EBD0DB407FC06C04B9BC4
:10127000FBCF45980DB407FEFACFB1E5BEBD0DB466
:1012800007FC06C04B9BFBCF45980DB407FEFACF79
:101290008EBC0DB407FC06C04B9BFBCF45980DB42C
:1012A00007FEFACF9EBC0DB407FC06C04B9BFBCFDC
:1012B00045980DB407FEFACF8EBD0DB407FC06C0ED
:1012C0004B9BFBCF45980DB407FEFACF4EBD0DB436
:1012D00007FC06C04B9BFBCF45980DB407FEFACF29
:1012E00025E92EBD0DB407FC06C04B9BFBCF4598EE
:1012F0000DB407FEFACF3EBD0DB407FC06C04B9BF4
:10130000FBCF45980DB407FEFACF3EBD0DB407FCE8
:1013100006C04B9BFBCF45980DB407FEFACF2EB508
:1013200027FDF3CF222319F02F3F09F09CCF3EBDBC
:101330000DB407FC06C04B9BFBCF45980DB407FED0
:10134000FACF8EB58E3F99F73EBD0DB407FC06C0AF
:101350004B9BFBCF45980DB407FEFACF8EB53EBD33
:101360000DB407FC06C04B9BFBCF45980DB407FEA0
:10137000FACF9EB53EBD0DB407FC06C04B9BFBCF1C
:1013800045980DB407FEFACF9EB595EE791611F08B
:10139000772011F48F30E1F43196A2E0E030FA07C3
:1013A00008F439CEB2E0E030FB0709F4DFC1EE0FFC
:1013B000FF1FE295F295F07FFE27E07FFE275F0199
:1013C000CC24DD2482017101EA0CFB1C0C1D1D1DC7
:1013D000C801B701AE014B5F5F4F20E230E00E94D1
:1013E000B005E0900D08F0900E0800910F081091E4
:1013F00010088AE190E0A0E0B0E0E80EF91E0A1FB4
:101400001B1FEA0CFB1C0C1D1D1D82E090E0A0E0E0
:10141000B0E089839A83AB83BC83C09002088C2D93
:1014200090E0815D9D4FF09113010F2E02C09595C4
:1014300087950A94E2F7892B09F44BC1442455247B
:101440006090FE077090FF07809000089090010860
:10145000DD24DA9430E5332E22E0222EDEBC0DB4FA
:1014600007FC06C04B9BFBCF45980DB407FEFACF97
:101470003EBC0DB407FC06C04B9BFBCF45980DB49A
:1014800007FEFACF1EBC0DB407FC06C04B9BFBCF7A
:1014900045980DB407FEFACF1EBC0DB407FC06C07C
:1014A0004B9BFBCF45980DB407FEFACF1EBC0DB485
:1014B00007FC06C04B9BFBCF45980DB407FEFACF47
:1014C0002EBC0DB407FC06C04B9BFBCF45980DB45A
:1014D00007FEFACF95E99EBD0DB407FC06C04B9BF5
:1014E000FBCF45980DB407FEFACFDEBC0DB407FC68
:1014F00006C04B9BFBCF45980DB407FEFACFDEBC70
:101500000DB407FC06C04B9BFBCF45980DB407FEFE
:10151000FACF8EB587FDF3CF882319F08F3F09F0FE
:101520009DCF49815A816B817C81440F551F661F75
:10153000771F460D571D681D791D872F9927AA27EC
:10154000BB27E82FCB01AA27BB27382FBB27A72F04
:10155000962F852FDEBC0DB407FC06C04B9BFBCF3E
:1015600045980DB407FEFACFA1E5AEBD0DB407FC5A
:1015700006C04B9BFBCF45980DB407FEFACFEEBDDE
:101580000DB407FC06C04B9BFBCF45980DB407FE7E
:10159000FACF3EBD0DB407FC06C04B9BFBCF459870
:1015A0000DB407FEFACF8EBD0DB407FC06C04B9BF1
:1015B000FBCF45980DB407FEFACF4EBD0DB407FC26
:1015C00006C04B9BFBCF45980DB407FEFACFB5E99B
:1015D000BEBD0DB407FC06C04B9BFBCF45980DB4B8
:1015E00007FEFACFDEBC0DB407FC06C04B9BFBCF59
:1015F00045980DB407FEFACFDEBC0DB407FC06C05B
:101600004B9BFBCF45980DB407FEFACF2EB527FDB7
:10161000F3CF222319F02F3F09F09CCFDEBC0DB48D
:1016200007FC06C04B9BFBCF45980DB407FEFACFD5
:101630008EB58E3F99F7DEBC0DB407FC06C04B9B00
:10164000FBCF45980DB407FEFACF9EB5DEBC0DB4B6
:1016500007FC06C04B9BFBCF45980DB407FEFACFA5
:101660008EB5DEBC0DB407FC06C04B9BFBCF459886
:101670000DB407FEFACF2EB5DEBC0DB407FC06C0D4
:101680004B9BFBCF45980DB407FEFACF2EB5B82E75
:10169000AA249501290F311D2115310509F43FC0F8
:1016A00089819A81AB81BC810196A11DB11D89837D
:1016B0009A83AB83BC838C2D90E0815D9D4F0F2E70
:1016C00002C0959587950A94E2F74816590608F4E2
:1016D000C5CEC801B70149E051E022E030E00E94E8
:1016E000B0050E94820321E030E0C901A4960FB644
:1016F000F894DEBF0FBECDBFCF91DF911F910F9148
:10170000FF90EF90DF90CF90BF90AF909F908F9021
:101710007F906F905F904F903F902F900895089426
:10172000411C511CC801B701AE014F5F5F4F22E061
:1017300030E00E94B00589819A81AB81BC817C0137
:101740008D01EE0CFF1C001F111F6090FE077090B2
:10175000FF078090000890900108E60CF71C081D18
:10176000191DC0900208F09113019ECF20E030E0D7
:10177000BCCF2F923F924F925F926F927F928F9247
:101780009F92AF92BF92CF92DF92EF92FF920F9310
:101790001F93CF93DF93FC013B012A01C22E302E11
:1017A0009FEF20E532E045E99EBD0DB407FC06C081
:1017B0004B9BFBCF45980DB407FEFACF2EBD0DB461
:1017C00007FC06C04B9BFBCF45980DB407FEFACF34
:1017D0001EBC0DB407FC06C04B9BFBCF45980DB457
:1017E00007FEFACF1EBC0DB407FC06C04B9BFBCF17
:1017F00045980DB407FEFACF1EBC0DB407FC06C019
:101800004B9BFBCF45980DB407FEFACF3EBD0DB400
:1018100007FC06C04B9BFBCF45980DB407FEFACFE3
:101820004EBD0DB407FC06C04B9BFBCF45980DB4D5
:1018300007FEFACF9EBD0DB407FC06C04B9BFBCF45
:1018400045980DB407FEFACF9EBD0DB407FC06C047
:101850004B9BFBCF45980DB407FEFACF8EB587FDA5
:10186000F3CF882319F08F3F09F09ECF40910D08E8
:1018700050910E0860910F0870911008465E5F4FFE
:101880006F4F7F4FEE0FFF1FE295F295F07FFE271F
:10189000E07FFE27CF01AA2797FDA095BA2F480F1A
:1018A000591F6A1F7B1F872F9927AA27BB27F82F4D
:1018B000CB01AA27BB27E82FBB27A72F962F852F61
:1018C0003FEF91E5A5E93EBD0DB407FC06C04B9B7B
:1018D000FBCF45980DB407FEFACF9EBD0DB407FCB3
:1018E00006C04B9BFBCF45980DB407FEFACFFEBD5B
:1018F0000DB407FC06C04B9BFBCF45980DB407FE0B
:10190000FACFEEBD0DB407FC06C04B9BFBCF45984C
:101910000DB407FEFACF8EBD0DB407FC06C04B9B7D
:10192000FBCF45980DB407FEFACF4EBD0DB407FCB2
:1019300006C04B9BFBCF45980DB407FEFACFAEBD5A
:101940000DB407FC06C04B9BFBCF45980DB407FEBA
:10195000FACF3EBD0DB407FC06C04B9BFBCF4598AC
:101960000DB407FEFACF3EBD0DB407FC06C04B9B7D
:10197000FBCF45980DB407FEFACF2EB527FDF3CF68
:10198000222319F02F3F09F09ECF9FEF9EBD0DB48B
:1019900007FC06C04B9BFBCF45980DB407FEFACF62
:1019A0008EB58E3F99F78FEF8EBD0DB407FC06C044
:1019B0004B9BFBCF45980DB407FEFACF9EB58FEF3A
:1019C0008EBD0DB407FC06C04B9BFBCF45980DB4F4
:1019D00007FEFACF8EB5382F20E0E901C90FD11DDF
:1019E0008FEF8EBD0DB407FC06C04B9BFBCF459817
:1019F0000DB407FEFACF8EB58FEF8EBD0DB407FC88
:101A000006C04B9BFBCF45980DB407FEFACF8EB5B1
:101A1000CC2019F4F301D183C0838090FE0790900D
:101A2000FF07A0900008B090010800E010E03FEF31
:101A300021E5222E0415150508F0CBC00F5F1F4FBE
:101A4000C801632D70E00E94DA22D62EAE0160E05C
:101A500070E0440F551F661F771F480D591D6A1D02
:101A60007B1D872F9927AA27BB27F82FCB01AA27F1
:101A7000BB27E82FBB27A72F962F852F3EBD0DB480
:101A800007FC06C04B9BFBCF45980DB407FEFACF71
:101A90002EBC0DB407FC06C04B9BFBCF45980DB484
:101AA00007FEFACFFEBD0DB407FC06C04B9BFBCF73
:101AB00045980DB407FEFACFEEBD0DB407FC06C085
:101AC0004B9BFBCF45980DB407FEFACF8EBD0DB4EE
:101AD00007FC06C04B9BFBCF45980DB407FEFACF21
:101AE0004EBD0DB407FC06C04B9BFBCF45980DB413
:101AF00007FEFACF95E99EBD0DB407FC06C04B9BCF
:101B0000FBCF45980DB407FEFACF3EBD0DB407FCE0
:101B100006C04B9BFBCF45980DB407FEFACF3EBDE8
:101B20000DB407FC06C04B9BFBCF45980DB407FED8
:101B3000FACF2EB527FDF3CF222319F02F3F09F05E
:101B40009DCF3EBD0DB407FC06C04B9BFBCF459817
:101B50000DB407FEFACF8EB58E3F99F73EBD0DB49A
:101B600007FC06C04B9BFBCF45980DB407FEFACF90
:101B70009EB53EBD0DB407FC06C04B9BFBCF459800
:101B80000DB407FEFACF8EB5F82EEE24E701C90F8B
:101B9000D11D3EBD0DB407FC06C04B9BFBCF459845
:101BA0000DB407FEFACF8EB53EBD0DB407FC06C0DE
:101BB0004B9BFBCF45980DB407FEFACF8EB5DC14D6
:101BC00009F480C0EFEFC73FDE0718F4CD1408F02A
:101BD00031CF9FEF20E532E045E99EBD0DB407FC13
:101BE00006C04B9BFBCF45980DB407FEFACF2EBD28
:101BF0000DB407FC06C04B9BFBCF45980DB407FE08
:101C0000FACF1EBC0DB407FC06C04B9BFBCF45981A
:101C10000DB407FEFACF1EBC0DB407FC06C04B9BEB
:101C2000FBCF45980DB407FEFACF3EBD0DB407FCBF
:101C300006C04B9BFBCF45980DB407FEFACF1EBCE8
:101C40000DB407FC06C04B9BFBCF45980DB407FEB7
:101C5000FACF4EBD0DB407FC06C04B9BFBCF459899
:101C60000DB407FEFACF9EBD0DB407FC06C04B9B1A
:101C7000FBCF45980DB407FEFACF9EBD0DB407FC0F
:101C800006C04B9BFBCF45980DB407FEFACF8EB52F
:101C900087FDF3CF882319F08F3F09F09ECFDF91A6
:101CA000CF911F910F91FF90EF90DF90CF90BF9059
:101CB000AF909F908F907F906F905F904F903F90EC
:101CC0002F900895C801632D70E00E94DA22FC0174
:101CD000EE0FFF1FE60DF71DD183C08373CF2F9248
:101CE0003F924F925F926F927F928F929F92AF92AC
:101CF000BF92CF92DF92EF92FF920F931F93DF93E9
:101D0000CF93CDB7DEB72A970FB6F894DEBF0FBEDC
:101D1000CDBF8BE193E05D9A2FEF209303082093D2
:101D2000F7078B839C83FC014FEF419323E0E13362
:101D3000F207D9F783E0809331038CEF809332036D
:101D4000409333033FE3309334039FEC9093350388
:101D500023EF209336038093370340933803309367
:101D6000390390933A0320933B0380933C0385ED22
:101D700080933D039AEA90933E0386E980933F0364
:101D80008EED80934803909349038BEE80934A0332
:101D90007A968FEF819333E0E035F307D9F785ED3D
:101DA000809350039AEA909351038DEA80935203F3
:101DB0008EED8093AA049093AB048BEE8093AC04D9
:101DC000EDEAF4E08FEF819394E0EB3BF907D9F76C
:101DD00011923BE1A32E35E0B32EEA15FB05C1F7C6
:101DE00080E140E052E060E070E00E948B0233242A
:101DF00088249924B0911301BE83E0910208ED83F9
:101E0000FF24FA948BB1F0E28F278BB9232C269410
:101E10002AEA222AC401880F991F9A83898366249B
:101E20007724932D9A6A9F83AEEFA325A887862DEA
:101E3000F301E455FE4FE4904E2C552460FCFDC2A6
:101E40008695F401E80FF11DFA87E9876F010E808E
:101E500002C0D694C7940A94E2F7C60162E170E02A
:101E60000E94C622262F809103086817E1F0609334
:101E70000308FD814F2F50E0495E5E4F0E8002C087
:101E8000559547950A94E2F78091F1079091F207F2
:101E90006BE175E002E10E94B90B209113012E83E2
:101EA000309102083D83C60162E170E00E94C622C3
:101EB000FC01EE0FFF1FE55EFA4F808191810297D2
:101EC000AC0160E070E00E8004C0440F551F661F37
:101ED000771F0A94D2F7AD818A2F90E00197E985A8
:101EE000FA85E823F923CF01A0E0B0E0480F591F9D
:101EF0006A1F7B1F19E0440F551F661F771F1A9535
:101F0000D1F78091FA079091FB07A091FC07B0915F
:101F1000FD07480F591F6A1F7B1F872F9927AA2784
:101F2000BB27E82FCB01AA27BB27382FBB27A72F1A
:101F3000962F852FFEBC0DB407FC06C04B9BFBCF34
:101F400045980DB407FEFACFF1E5FEBD0DB407FCD0
:101F500006C04B9BFBCF45980DB407FEFACFEEBDF4
:101F60000DB407FC06C04B9BFBCF45980DB407FE94
:101F7000FACF3EBD0DB407FC06C04B9BFBCF459886
:101F80000DB407FEFACF8EBD0DB407FC06C04B9B07
:101F9000FBCF45980DB407FEFACF4EBD0DB407FC3C
:101FA00006C04B9BFBCF45980DB407FEFACF25E941
:101FB0002EBD0DB407FC06C04B9BFBCF45980DB45E
:101FC00007FEFACFFEBC0DB407FC06C04B9BFBCF4F
:101FD00045980DB407FEFACFFEBC0DB407FC06C051
:101FE0004B9BFBCF45980DB407FEFACF2EB527FDCE
:101FF000F3CF222319F02F3F09F09CCFFEBC0DB484
:1020000007FC06C04B9BFBCF45980DB407FEFACFEB
:102010008EB58E3F99F7EBE1F1E0FEBC0DB407FC05
:1020200006C04B9BFBCF45980DB407FEFACF8EB58B
:10203000819333E0EB31F30781F7FEBC0DB407FC6D
:1020400006C04B9BFBCF45980DB407FEFACF8EB56B
:10205000FEBC0DB407FC06C04B9BFBCF45980DB4EE
:1020600007FEFACF8EB50BE111E08FEF80934003AE
:102070009EEF9093410320924203AF81A0934303CC
:10208000C201969587958A6A809344038E2D8A6A49
:102090008093450398859E25892F86958A6A80932B
:1020A00046039A6A90934703680120E030E050E0CD
:1020B00016C090E0862B892B5827E52FF0E0E459D5
:1020C000FF4FE491D901AD5ABC4FEC932F5F3F4FC6
:1020D0000894C11CD11C582F2635310561F1D60159
:1020E000EC91F0E0E370F070E054FE4F6491E6E5AF
:1020F000F0E0CE0EDF1ED601EC918AEA9FEFC80E0B
:10210000D91EF0E0E370F070EC53FE4F849124355B
:10211000310578F6ACEAB0E0CA0EDB1ED601EC91D0
:10212000A4E5BFEFCA0EDB1EF0E0E370F070E853E9
:10213000FE4F9491BFCF982F20E030E0F801E20FDE
:10214000F31F8081869586959827E92FF0E0E45962
:10215000FF4FE491D901A755BC4FEC932F5F3F4F40
:10216000982FB1E020303B0749F7E82FF0E0E45921
:10217000FF4FE491E093A904E981FA814E0E5F1EBE
:1021800062010E8002C0D694C7940A94E2F7C60199
:1021900063E270E00E94C622262F8091F70768173D
:1021A000E1F06093F707FD814F2F50E0415D5D4FF7
:1021B0000E8002C0559547950A94E2F78091040875
:1021C0009091050863E178E003E20E94B90B209149
:1021D00013012E83309102083D832A9A2A98C60162
:1021E00063E270E00E94C622FC01EE0FFF1FED5E6D
:1021F000F74F808191810297AC0160E070E00E8022
:1022000004C0440F551F661F771F0A94D2F7AD8193
:102210008A2F90E0019748225922C201A0E0B0E045
:10222000480F591F6A1F7B1F89E0440F551F661F07
:10223000771F8A95D1F78091FA079091FB07A091BB
:10224000FC07B091FD07480F591F6A1F7B1F872F9E
:102250009927AA27BB27E82FCB01AA27BB27382F0E
:10226000BB27A72F962F852FFEBC0DB407FC06C0F9
:102270004B9BFBCF45980DB407FEFACFB8E5BEBD2A
:102280000DB407FC06C04B9BFBCF45980DB407FE71
:10229000FACFEEBD0DB407FC06C04B9BFBCF4598B3
:1022A0000DB407FEFACF3EBD0DB407FC06C04B9B34
:1022B000FBCF45980DB407FEFACF8EBD0DB407FCD9
:1022C00006C04B9BFBCF45980DB407FEFACF4EBD21
:1022D0000DB407FC06C04B9BFBCF45980DB407FE21
:1022E000FACFF5E9FEBD0DB407FC06C04B9BFBCF52
:1022F00045980DB407FEFACFFEBC0DB407FC06C02E
:102300004B9BFBCF45980DB407FEFACFFEBC0DB436
:1023100007FC06C04B9BFBCF45980DB407FEFACFD8
:102320002EB527FDF3CF222319F02F3F09F09CCFC4
:10233000FEBC0DB407FC06C04B9BFBCF45980DB40B
:1023400007FEFACF2EEF2EBD0DB407FC06C04B9B47
:10235000FBCF45980DB407FEFACF8B819C819C0181
:10236000F90180818EBD0DB407FC06C04B9BFBCFED
:1023700045980DB407FEFACF3196AE16BF0689F721
:1023800030E135B9FEBC0DB407FC06C04B9BFBCF5A
:1023900045980DB407FEFACFFEBC0DB407FC06C08D
:1023A0004B9BFBCF45980DB407FEFACFFEBC0DB496
:1023B00007FC06C04B9BFBCF45980DB407FEFACF38
:1023C0008EB5FEBC0DB407FC06C04B9BFBCF4598F9
:1023D0000DB407FEFACF8EB58F3F99F72A9A2A9847
:1023E0000894611C711C80E16816710409F01FCD0E
:1023F0003394A8E0B0E08A0E9B1EB3E23B1609F0CE
:1024000001CD0E9405015D982A960FB6F894DEBFB3
:102410000FBECDBFCF91DF911F910F91FF90EF9035
:10242000DF90CF90BF90AF909F908F907F906F90F4
:102430005F904F903F902F9008950BE112E015CEE2
:10244000CF92DF92EF92FF920F931F93CF93DF9380
:10245000182FD62EC42EC42FD0E0C295D295D07F8F
:10246000DC27C07FDC27C60FD11D309113017E0110
:10247000032E02C0F694E7940A94E2F7C70163E2E0
:1024800070E00E94C622262F80916E008D7F80937F
:102490006E0080E58CBD8091F7076817B9F06093F6
:1024A000F7074091020850E0415D5D4F02C055952D
:1024B00047953A95E2F7809104089091050863E109
:1024C00078E003E20E94B90B309113012A9A2A980E
:1024D000C70163E270E00E94C622FC01EE0FFF1FFD
:1024E000ED5EF74F808191810297AC0160E070E072
:1024F00004C0440F551F661F771F3A95D2F780918D
:10250000020890E00197C823D923CE01A0E0B0E0F3
:10251000480F591F6A1F7B1F89E0440F551F661F14
:10252000771F8A95D1F78091FA079091FB07A091C8
:10253000FC07B091FD07480F591F6A1F7B1F872FAB
:102540009927AA27BB27F82FCB01AA27BB27E82F5B
:10255000BB27A72F962F852F3FEF98E5A5E93EBD16
:102560000DB407FC06C04B9BFBCF45980DB407FE8E
:10257000FACF9EBD0DB407FC06C04B9BFBCF459820
:102580000DB407FEFACFFEBD0DB407FC06C04B9B91
:10259000FBCF45980DB407FEFACFEEBD0DB407FC96
:1025A00006C04B9BFBCF45980DB407FEFACF8EBDFE
:1025B0000DB407FC06C04B9BFBCF45980DB407FE3E
:1025C000FACF4EBD0DB407FC06C04B9BFBCF459820
:1025D0000DB407FEFACFAEBD0DB407FC06C04B9B91
:1025E000FBCF45980DB407FEFACF3EBD0DB407FCF6
:1025F00006C04B9BFBCF45980DB407FEFACF3EBDFE
:102600000DB407FC06C04B9BFBCF45980DB407FEED
:10261000FACF2EB527FDF3CF222319F02F3F09F073
:102620009ECF8FEF8EBD0DB407FC06C04B9BFBCF3A
:1026300045980DB407FEFACF8EEF8EBD0DB407FCA2
:1026400006C04B9BFBCF45980DB407FEFACF80E048
:1026500090E02FEF2EBD0DB407FC06C04B9BFBCFC7
:1026600045980DB407FEFACF01968631910591F792
:1026700083E08EBD0DB407FC06C04B9BFBCF459895
:102680000DB407FEFACF8CEF8EBD0DB407FC06C06B
:102690004B9BFBCF45980DB407FEFACF8FEF8EBD55
:1026A0000DB407FC06C04B9BFBCF45980DB407FE4D
:1026B000FACF8FE38EBD0DB407FC06C04B9BFBCF5A
:1026C00045980DB407FEFACF8FEC8EBD0DB407FC14
:1026D00006C04B9BFBCF45980DB407FEFACF83EFA6
:1026E0008EBD0DB407FC06C04B9BFBCF45980DB4C7
:1026F00007FEFACF8CEF8EBD0DB407FC06C04B9BD6
:10270000FBCF45980DB407FEFACF8FEF8EBD0DB409
:1027100007FC06C04B9BFBCF45980DB407FEFACFD4
:102720008FE38EBD0DB407FC06C04B9BFBCF4598D5
:102730000DB407FEFACF8FEC8EBD0DB407FC06C0BA
:102740004B9BFBCF45980DB407FEFACF83EF8EBDB0
:102750000DB407FC06C04B9BFBCF45980DB407FE9C
:10276000FACF8CEF8EBD0DB407FC06C04B9BFBCFA0
:1027700045980DB407FEFACF85ED8EBD0DB407FC6C
:1027800006C04B9BFBCF45980DB407FEFACF8AEAF3
:102790008EBD0DB407FC06C04B9BFBCF45980DB416
:1027A00007FEFACF86E98EBD0DB407FC06C04B9B31
:1027B000FBCF45980DB407FEFACF8FEF8EBD0DB459
:1027C00007FC06C04B9BFBCF45980DB407FEFACF24
:1027D0008EEF8EBD0DB407FC06C04B9BFBCF45981A
:1027E0000DB407FEFACF8C2D86958A6A8EBD0DB486
:1027F00007FC06C04B9BFBCF45980DB407FEFACFF4
:102800008C2D8A6A8EBD0DB407FC06C04B9BFBCF96
:1028100045980DB407FEFACF8D2D86958A6A8EBD38
:102820000DB407FC06C04B9BFBCF45980DB407FECB
:10283000FACF8D2D8A6A8EBD0DB407FC06C04B9B66
:10284000FBCF45980DB407FEFACF9EEF9D259C2542
:10285000892F86958A6A8EBD0DB407FC06C04B9BF6
:10286000FBCF45980DB407FEFACF9A6A9EBD0DB412
:1028700007FC06C04B9BFBCF45980DB407FEFACF73
:102880008EED8EBD0DB407FC06C04B9BFBCF45986B
:102890000DB407FEFACF8AEA8EBD0DB407FC06C060
:1028A0004B9BFBCF45980DB407FEFACF8BEE8EBD48
:1028B0000DB407FC06C04B9BFBCF45980DB407FE3B
:1028C000FACF8FEF8EBD0DB407FC06C04B9BFBCF3C
:1028D00045980DB407FEFACF8FEF8EBD0DB407FCFF
:1028E00006C04B9BFBCF45980DB407FEFACF8FEF88
:1028F0008EBD0DB407FC06C04B9BFBCF45980DB4B5
:1029000007FEFACF8FEF8EBD0DB407FC06C04B9BC0
:10291000FBCF45980DB407FEFACF8FEF8EBD0DB4F7
:1029200007FC06C04B9BFBCF45980DB407FEFACFC2
:10293000212F30E08EE591E0289FF001299FF00DD6
:10294000389FF00D1124E55EFE4F20E030E08081DD
:102950008EBD0DB407FC06C04B9BFBCF45980DB454
:1029600007FEFACF2F5F3F4F319681E02D353807B4
:1029700071F780E090E02FEF2EBD0DB407FC06C08C
:102980004B9BFBCF45980DB407FEFACF01968E30D6
:10299000910591F780E090E01EBC0DB407FC06C0E5
:1029A0004B9BFBCF45980DB407FEFACF01968036BE
:1029B000910591F78FEF8EBD0DB407FC06C04B9BC0
:1029C000FBCF45980DB407FEFACF8FEF8EBD0DB447
:1029D00007FC06C04B9BFBCF45980DB407FEFACF12
:1029E0008FEF8EBD0DB407FC06C04B9BFBCF459807
:1029F0000DB407FEFACF8EB59FEF9EBD0DB407FC58
:102A000006C04B9BFBCF45980DB407FEFACF8EB5A1
:102A10008F3F99F72A9A2A981CBC80916E00826099
:102A200080936E00DF91CF911F910F91FF90EF90F7
:102A3000DF90CF90089560910E016F3F89F48091EF
:102A40000F018F3F91F4809110018F3F71F48091BD
:102A500011018F3F51F4809112018F3F31F408959D
:102A600080E0409115010E9420128FEF80930E01AB
:102A70008093150110921D0160910F016F3F29F0A5
:102A800081E0409116010E9420128FEF80930F0188
:102A90008093160110927B02609110016F3F29F024
:102AA00082E0409117010E9420128FEF8093100165
:102AB000809317011092D903609111016F3F29F0A3
:102AC00083E0409118010E9420128FEF8093110142
:102AD0008093180110923705609112016F3F29F021
:102AE00084E0409119010E9420128FEF809312011F
:102AF0008093190110929506109214018BE191E0D8
:102B00009093120880931108089540911401A42F06
:102B1000B0E08FEA90E0A89FF001A99FF00DB89F68
:102B2000F00D1124EE0FFF1FE35EFE4F80818D3A02
:102B300061F150E08FEA90E0489FF001499FF00D6D
:102B4000589FF00D1124EE0FFF1FE35EFE4F8081B2
:102B5000863909F008958EE591E0489FF001499F7C
:102B6000F00D589FF00D1124E55EFE4F878190E037
:102B700085759070880F991F20852575282B2093C7
:102B80000C0181E080931A01089580911A01882335
:102B900071F59091F807FD01E25FFE4F90838091FF
:102BA0000B08AB5EBE4F869586958C939F3081F166
:102BB0009D3071F1892F8F5F8F708093F8074430BB
:102BC00059F14F5F40931401242F30E08EE591E0DE
:102BD000BC01269FC001279F900D369F900D1124A8
:102BE000855E9E4F9093120880931108A2CF80912A
:102BF0000C018093F80710921A018F3009F099CFD9
:102C00000E94350181E080930C084091140191CF1E
:102C1000892F8E5F8F70D1CF0E9435010E941B15C6
:102C200081E080930C084091140183CF2F923F9252
:102C30004F925F926F927F928F929F92AF92BF92CC
:102C4000CF92DF92EF92FF920F931F93DF93CF9378
:102C5000CDB7DEB72E970FB6F894DEBF0FBECDBF4F
:102C60009A8789877C876B875E874D8722243324E8
:102C7000412CE2E05E2E6624772488249924A090DB
:102C80000D08B0900E08C0900F08D0901008EFEF1C
:102C9000EEBD0DB407FC06C04B9BFBCF45980DB4B1
:102CA00007FEFACF20E52EBD0DB407FC06C04B9BF6
:102CB000FBCF45980DB407FEFACF1EBC0DB407FC40
:102CC00006C04B9BFBCF45980DB407FEFACF1EBC48
:102CD0000DB407FC06C04B9BFBCF45980DB407FE17
:102CE000FACF1EBC0DB407FC06C04B9BFBCF45982A
:102CF0000DB407FEFACF31E03EBD0DB407FC06C0AF
:102D00004B9BFBCF45980DB407FEFACF45E94EBD6E
:102D10000DB407FC06C04B9BFBCF45980DB407FED6
:102D2000FACFEEBD0DB407FC06C04B9BFBCF459818
:102D30000DB407FEFACFEEBD0DB407FC06C04B9BE9
:102D4000FBCF45980DB407FEFACF8EB587FDF3CFC4
:102D5000882319F08F3F09F09BCFC101880F991F7D
:102D600082959295907F9827807F98279C01442791
:102D700037FD4095542F2D833E834F83588779012B
:102D80008A01EA0CFB1C0C1D1D1D812F9927AA2707
:102D9000BB27682FC801AA27BB27382FBB27A12F25
:102DA000902F8F2DEEBD0DB407FC06C04B9BFBCFC3
:102DB00045980DB407FEFACF41E54EBD0DB407FCB2
:102DC00006C04B9BFBCF45980DB407FEFACF6EBDF6
:102DD0000DB407FC06C04B9BFBCF45980DB407FE16
:102DE000FACF3EBD0DB407FC06C04B9BFBCF459808
:102DF0000DB407FEFACF8EBD0DB407FC06C04B9B89
:102E0000FBCF45980DB407FEFACFEEBC0DB407FC1E
:102E100006C04B9BFBCF45980DB407FEFACF55E992
:102E20005EBD0DB407FC06C04B9BFBCF45980DB4AF
:102E300007FEFACFEEBD0DB407FC06C04B9BFBCFDF
:102E400045980DB407FEFACFEEBD0DB407FC06C0E1
:102E50004B9BFBCF45980DB407FEFACF2EB527FD4F
:102E6000F3CF222319F02F3F09F09CCFEEBD0DB414
:102E700007FC06C04B9BFBCF45980DB407FEFACF6D
:102E80008EB58E3F99F7EEBD0DB407FC06C04B9B87
:102E9000FBCF45980DB407FEFACF9EB5EEBD0DB43D
:102EA00007FC06C04B9BFBCF45980DB407FEFACF3D
:102EB0008EB5EEBD0DB407FC06C04B9BFBCF45980D
:102EC0000DB407FEFACF8EB5992309F4CDC1953024
:102ED00009F4CAC19E3209F4C7C1953E09F4C4C1C0
:102EE000892F81548A3120F090539A3008F0BCC168
:102EF000B801A701455F5F4F6F4F7F4F872F99271D
:102F0000AA27BB27F82FCB01AA27BB27382FBB271F
:102F1000A72F962F852FEEBD0DB407FC06C04B9B47
:102F2000FBCF45980DB407FEFACF91E59EBD0DB4D9
:102F300007FC06C04B9BFBCF45980DB407FEFACFAC
:102F4000FEBD0DB407FC06C04B9BFBCF45980DB4EE
:102F500007FEFACF3EBD0DB407FC06C04B9BFBCF6E
:102F600045980DB407FEFACF8EBD0DB407FC06C020
:102F70004B9BFBCF45980DB407FEFACF4EBD0DB469
:102F800007FC06C04B9BFBCF45980DB407FEFACF5C
:102F9000A5E9AEBD0DB407FC06C04B9BFBCF459821
:102FA0000DB407FEFACFEEBD0DB407FC06C04B9B77
:102FB000FBCF45980DB407FEFACFEEBD0DB407FC6C
:102FC00006C04B9BFBCF45980DB407FEFACF2EB53C
:102FD00027FDF3CF222319F02F3F09F09CCFEEBD40
:102FE0000DB407FC06C04B9BFBCF45980DB407FE04
:102FF000FACF8EB58E3F99F7EEBD0DB407FC06C033
:103000004B9BFBCF45980DB407FEFACF9EB5EEBDA6
:103010000DB407FC06C04B9BFBCF45980DB407FED3
:10302000FACF8EB5EEBD0DB407FC06C04B9BFBCFAF
:1030300045980DB407FEFACF8EB5892F8E7109F031
:1030400013C19F3009F410C1EEBD0DB407FC06C0DA
:103050004B9BFBCF45980DB407FEFACFB0E5BEBD44
:103060000DB407FC06C04B9BFBCF45980DB407FE83
:10307000FACF1EBC0DB407FC06C04B9BFBCF459896
:103080000DB407FEFACF1EBC0DB407FC06C04B9B67
:10309000FBCF45980DB407FEFACF1EBC0DB407FC5C
:1030A00006C04B9BFBCF45980DB407FEFACF24E03A
:1030B0002EBD0DB407FC06C04B9BFBCF45980DB44D
:1030C00007FEFACF35E93EBD0DB407FC06C04B9BA9
:1030D000FBCF45980DB407FEFACFEEBD0DB407FC4B
:1030E00006C04B9BFBCF45980DB407FEFACFEEBD53
:1030F0000DB407FC06C04B9BFBCF45980DB407FEF3
:10310000FACF8EB587FDF3CF882319F08F3F09F0F2
:103110009BCFB801A701485F5F4F6F4F7F4F872F4D
:103120009927AA27BB27F82FCB01AA27BB27382F1F
:10313000BB27A72F962F852FEEBD0DB407FC06C029
:103140004B9BFBCF45980DB407FEFACF91E59EBD92
:103150000DB407FC06C04B9BFBCF45980DB407FE92
:10316000FACFFEBD0DB407FC06C04B9BFBCF4598C4
:103170000DB407FEFACF3EBD0DB407FC06C04B9B55
:10318000FBCF45980DB407FEFACF8EBD0DB407FCFA
:1031900006C04B9BFBCF45980DB407FEFACF4EBD42
:1031A0000DB407FC06C04B9BFBCF45980DB407FE42
:1031B000FACFA5E9AEBD0DB407FC06C04B9BFBCF13
:1031C00045980DB407FEFACFEEBD0DB407FC06C05E
:1031D0004B9BFBCF45980DB407FEFACFEEBD0DB467
:1031E00007FC06C04B9BFBCF45980DB407FEFACFFA
:1031F0002EB527FDF3CF222319F02F3F09F09CCFE6
:10320000EEBD0DB407FC06C04B9BFBCF45980DB43B
:1032100007FEFACF8EB58E3F99F7EEBD0DB407FCD1
:10322000EBC04B9BFBCF4598F9CF8EB5A985BA85EE
:103230008C918F15C9F411968C9111978017A1F478
:1032400012968C91811781F429813A818B819C811E
:103250008816990630F08815990531F4261537053A
:1032600018F0210139014C010894211C311CB0E0F7
:103270002B16B2E03B0609F00BCD20E0421622E00F
:10328000520609F472C04D855E85452B09F46DC068
:103290009FEF20E538E045E99EBD0DB407FC04C072
:1032A0004B9BFBCF4598F9CF2EBD0DB407FC04C056
:1032B0004B9BFBCF4598F9CF1EBC0DB407FC04C057
:1032C0004B9BFBCF4598F9CF1EBC0DB407FC04C047
:1032D0004B9BFBCF4598F9CF1EBC0DB407FC04C037
:1032E0004B9BFBCF4598F9CF3EBD0DB407FC04C006
:1032F0004B9BFBCF4598F9CF4EBD0DB407FC04C0E6
:103300004B9BFBCF4598F9CF9EBD0DB407FC07C082
:103310004B9BFBCF4598F9CF8EB587FF40C09EBD34
:103320000DB407FCF9CF4B9BFBCF4598F9CF8EB579
:10333000ED85FE85E20FF31F80832F5F3F4F28301E
:10334000310509F0FFC18FEF8EBD02C04B9933C22A
:103350000DB407FEFBCF8EB58FEF8EBD02C04B992B
:103360002EC20DB407FEFBCF8EB5C2012E960FB64E
:10337000F894DEBF0FBECDBFCF91DF911F910F91AB
:10338000FF90EF90DF90CF90BF90AF909F908F9085
:103390007F906F905F904F903F902F90089588237B
:1033A00019F08F3F09F078CFC201880F991F8295DD
:1033B0009295907F9827807F9827AC0160E070E01D
:1033C0004A0D5B1D6C1D7D1D872F9927AA27BB27E2
:1033D000E82FCB01AA27BB27382FBB27A72F962F73
:1033E000852F9FEFF1E5A5E99EBD0DB407FC51C106
:1033F0004B9BFBCF4598F9CFFEB4EEBD0DB407FC57
:1034000004C04B9BFBCF4598F9CF0EB5EEBD0DB474
:1034100007FC04C04B9BFBCF4598F9CF1EB52B850D
:103420003C85232B09F42CC1EEBD0DB407FC04C070
:103430004B9BFBCF4598F9CF8EB581708295807FED
:10344000AB85BC858C93A0900D08B0900E08C09001
:103450000F08D0901008EEBD0DB407FC04C04B9BC4
:10346000FBCF4598F9CF8EB5EEBD0DB407FC04C077
:103470004B9BFBCF4598F9CF8EB5EEBD0DB407FC45
:1034800006C04B9BFBCF45980DB407FEFACFB0E5C5
:10349000BEBD0DB407FC06C04B9BFBCF45980DB4D9
:1034A00007FEFACF1EBC0DB407FC06C04B9BFBCF3A
:1034B00045980DB407FEFACF1EBC0DB407FC06C03C
:1034C0004B9BFBCF45980DB407FEFACF1EBC0DB445
:1034D00007FC06C04B9BFBCF45980DB407FEFACF07
:1034E00024E02EBD0DB407FC06C04B9BFBCF4598D6
:1034F0000DB407FEFACF35E93EBD0DB407FC06C09A
:103500004B9BFBCF45980DB407FEFACFEEBD0DB433
:1035100007FC06C04B9BFBCF45980DB407FEFACFC6
:10352000EEBD0DB407FC06C04B9BFBCF45980DB418
:1035300007FEFACF8EB587FDF3CF882319F08F3FB2
:1035400009F09BCF86E190E0A0E0B0E0A80EB91EA4
:10355000CA1EDB1E4D815E816F8178854A0D5B1D21
:103560006C1D7D1D8AEE9FEFAFEFBFEFA80EB91E59
:10357000CA1EDB1E872F9927AA27BB27F82FCB014E
:10358000AA27BB27382FBB27A72F962F852FEEBD45
:103590000DB407FC06C04B9BFBCF45980DB407FE4E
:1035A000FACF91E59EBD0DB407FC06C04B9BFBCF47
:1035B00045980DB407FEFACFFEBD0DB407FC06C05A
:1035C0004B9BFBCF45980DB407FEFACF3EBD0DB423
:1035D00007FC06C04B9BFBCF45980DB407FEFACF06
:1035E0008EBD0DB407FC06C04B9BFBCF45980DB4B8
:1035F00007FEFACF4EBD0DB407FC06C04B9BFBCFB8
:1036000045980DB407FEFACFA5E9AEBD0DB407FC91
:1036100006C04B9BFBCF45980DB407FEFACFEEBD1D
:103620000DB407FC06C04B9BFBCF45980DB407FEBD
:10363000FACFEEBD0DB407FC06C04B9BFBCF4598FF
:103640000DB407FEFACF2EB527FDF3CF222319F0D4
:103650002F3F09F09CCFEEBD0DB407FC06C04B9B7D
:10366000FBCF45980DB407FEFACF8EB58E3F99F784
:10367000EEBD0DB407FC6EC04B9BFBCF4598F9CF58
:10368000EEBD02C04B9999C00DB407FEFBCF8EB5BD
:10369000E2CEFEBD0DB407FC04C04B9BFBCF4598AA
:1036A000F9CFEEBD0DB407FC04C04B9BFBCF459892
:1036B000F9CF3EBD0DB407FC04C04B9BFBCF459832
:1036C000F9CF8EBD0DB407FC04C04B9BFBCF4598D2
:1036D000F9CF4EBD0DB407FC04C04B9BFBCF459802
:1036E000F9CFAEBD0DB407FC04C04B9BFBCF459892
:1036F000F9CF9EBD0DB407FC07C04B9BFBCF45988F
:10370000F9CF2EB527FF08C09EBD0DB407FCF9CF39
:103710004B9BFBCF4598F9CF222319F02F3F09F09F
:1037200063CE9FEF9EBD0DB407FC06C04B9BFBCF45
:1037300045980DB407FEFACF8EB58E3F99F720E07D
:1037400030E09FEF9EBD0DB407FCF1CD4B9BFBCF4E
:103750004598F9CF8EB58983EEBD0DB407FC04C042
:103760004B9BFBCF4598F9CF8EB58A83EEBD0DB448
:1037700007FC04C04B9BFBCF4598F9CF8EB58B83DC
:10378000EEBD0DB407FC04C04B9BFBCF4598F9CFB1
:103790008EB58C83EEBD0DB407FC04C04B9BFBCFF4
:1037A0004598F9CF8EB5EEBD0DB407FC3ECD4B9BD1
:1037B000FBCF4598F9CF4598CBCD459865CF459837
:1037C000D0CDCF92DF92FF920F931F93DF93CF93D1
:1037D000CDB7DEB72E970FB6F894DEBF0FBECDBFC4
:1037E0005D9A83E58CBD2A9A80E090E02FEF2EBD94
:1037F0000DB407FC06C04B9BFBCF45980DB407FEEC
:10380000FACF01968A30910591F72A9880E090E0EE
:103810002FEF2EBD0DB407FC06C04B9BFBCF459888
:103820000DB407FEFACF01968230910591F78FEF24
:103830008EBD0DB407FC06C04B9BFBCF45980DB465
:1038400007FEFACF80E48EBD0DB407FC06C04B9B8B
:10385000FBCF45980DB407FEFACF1EBC0DB407FC94
:1038600006C04B9BFBCF45980DB407FEFACF1EBC9C
:103870000DB407FC06C04B9BFBCF45980DB407FE6B
:10388000FACF1EBC0DB407FC06C04B9BFBCF45987E
:103890000DB407FEFACF1EBC0DB407FC06C04B9B4F
:1038A000FBCF45980DB407FEFACF85E98EBD0DB468
:1038B00007FC06C04B9BFBCF45980DB407FEFACF23
:1038C0008FEF8EBD0DB407FC06C04B9BFBCF459818
:1038D0000DB407FEFACF9FEF9EBD0DB407FC06C0E6
:1038E0004B9BFBCF45980DB407FEFACF8EB58130C8
:1038F00099F72A9A9FEF27E735E949E62A989EBD6E
:103900000DB407FC06C04B9BFBCF45980DB407FEDA
:10391000FACF2EBD0DB407FC06C04B9BFBCF4598DC
:103920000DB407FEFACF1EBC0DB407FC06C04B9BBE
:10393000FBCF45980DB407FEFACF1EBC0DB407FCB3
:1039400006C04B9BFBCF45980DB407FEFACF1EBCBB
:103950000DB407FC06C04B9BFBCF45980DB407FE8A
:10396000FACF1EBC0DB407FC06C04B9BFBCF45989D
:103970000DB407FEFACF3EBD0DB407FC06C04B9B4D
:10398000FBCF45980DB407FEFACF9EBD0DB407FCE2
:1039900006C04B9BFBCF45980DB407FEFACF9EBDEA
:1039A0000DB407FC06C04B9BFBCF45980DB407FE3A
:1039B000FACF8EB587FDF3CF8F3F09F468C08E7FB5
:1039C00009F09CCF2A9A2A989EBD0DB407FC06C028
:1039D0004B9BFBCF45980DB407FEFACF4EBD0DB4FF
:1039E00007FC06C04B9BFBCF45980DB407FEFACFF2
:1039F0001EBC0DB407FC06C04B9BFBCF45980DB415
:103A000007FEFACF1EBC0DB407FC06C04B9BFBCFD4
:103A100045980DB407FEFACF1EBC0DB407FC06C0D6
:103A20004B9BFBCF45980DB407FEFACF1EBC0DB4DF
:103A300007FC06C04B9BFBCF45980DB407FEFACFA1
:103A40003EBD0DB407FC06C04B9BFBCF45980DB4A3
:103A500007FEFACF9EBD0DB407FC06C04B9BFBCF03
:103A600045980DB407FEFACF9EBD0DB407FC06C005
:103A70004B9BFBCF45980DB407FEFACF8EB587FD63
:103A8000F3CF8823A9F08F3F11F02A9A37CF20E097
:103A900030E0C9012E960FB6F894DEBF0FBECDBF41
:103AA000CF91DF911F910F91FF90DF90CF900895FC
:103AB00080E58CBD81E08DBD80E145E050E060E0B7
:103AC00070E00E948B0266E370E080E090E00E946C
:103AD0000103FE01329647E0C42ED12CCC0EDD1E30
:103AE0009FEF9EBD0DB407FC06C04B9BFBCF4598D6
:103AF0000DB407FEFACF8EB58193EC15FD0589F75D
:103B00000E945A010E945A018A81863421F48B81D5
:103B1000813409F441C180E144E050E060E070E0AC
:103B20000E948B0266EC71E080E090E00E9401034D
:103B30000E945A0190E0A0E0B0E0809306089093C4
:103B40000708A0930808B09309080E945A0190E062
:103B5000A0E0B0E0BA2FA92F982F8827209106085F
:103B6000309107084091080850910908280F391F23
:103B70004A1F5B1F209306083093070840930808EC
:103B8000509309080E945A0190E0A0E0B0E0DC01E7
:103B90009927882720910608309107084091080846
:103BA00050910908280F391F4A1F5B1F20930608F0
:103BB0003093070840930808509309080E945A015F
:103BC0008091060890910708A0910808B091090813
:103BD00009E0880F991FAA1FBB1F0A95D1F7809390
:103BE000060890930708A0930808B09309080E945C
:103BF0005A010E945A0180E143E050E060E070E029
:103C00000E948B0260910608709107088091080855
:103C100090910908635F7F4F8F4F9F4F0E94010370
:103C20000E945A01898389818093020810921301AE
:103C30008981813051F090E09F5F898186958983E9
:103C400089818130C9F7909313010E945A01082F8E
:103C500010E00E945A01F82E0E945A010E945A0157
:103C60009F2D80E0800F911FA0E0B0E019E0880F49
:103C7000991FAA1FBB1F1A95D1F7209106083091F2
:103C800007084091080850910908820F931FA41F4C
:103C9000B51F8093FE079093FF07A0930008B09391
:103CA000010880E142E050E060E070E00E948B0299
:103CB00060910608709107088091080890910908A2
:103CC0006A5E7F4F8F4F9F4F0E9401030E945A01EF
:103CD0008093F5071092F6070E945A01382F20E0D2
:103CE0008091F5079091F607820F931F9093F60746
:103CF0008093F5070E945A010E945A018091F507AE
:103D00009091F607A0E0B0E0FAE0880F991FAA1F93
:103D1000BB1FFA95D1F72091FE073091FF07409124
:103D2000000850910108820F931FA41FB51F8093B4
:103D30000D0890930E08A0930F08B09310088050C0
:103D4000904CAF4FBF4F8093FA079093FB07A0931F
:103D5000FC07B093FD0780E091E069E578E040E082
:103D600050E00E9416169C01909305088093040869
:103D70002050324031F18FEF8093F7078093030892
:103D800080E140E052E060E070E00E948B021CBCE9
:103D90005D9821E030E07DCE8C81843509F0BBCE8A
:103DA0008D81813309F0B7CE8E81863309F0B3CE91
:103DB000109206081092070810920808109209083D
:103DC0001ACF84E091E060E070E0A6010E94161630
:103DD0009C019093F2078093F1072050324009F440
:103DE00056CEC6010E94BA07892B09F450CE80E056
:103DF00091E069E578E040E050E00E9416169C01F1
:103E000090930508809304082050324009F43FCE77
:103E10000E946F0EB0CF2F923F924F925F926F929F
:103E20007F928F929F92AF92BF92CF92DF92EF924A
:103E3000FF920F931F93DF93CF9300D00F92CDB7D4
:103E4000DEB780E185B980E288B988E48BB98CE27D
:103E500084B980E387B98AB97894F999FECF81E073
:103E600090E00E94ED2280930B0880910B08853C26
:103E700010F010920B0880910B088C3818F08BE82A
:103E800080930B088FE080936C0082E08093680041
:103E900080E090E0A0E0B0E09C01AD0181E090E026
:103EA000A0E0B0E04B99F8CFC901DA010196A11D5D
:103EB000B11D803020E0920728E0A20720E0B20781
:103EC00059F78CE687BD82E084BD11E015BD85BF42
:103ED0008EE0809369000E94E11B892B09F4FFCFDB
:103EE00010925A081092F90710930C081092F407D8
:103EF0001092F3071092F8071092140110921A0111
:103F00001BE1812E11E0912E9092120880921108EF
:103F10000E94050180916E00826080936E00E89A95
:103F2000E99A1CBCB0900C01BFEA6B2E712CAEE577
:103F30004A2EA1E05A2EAA24A394F8E13F2EE8E3EA
:103F40002E2ECC24CA944F9988C15D9A4E9987C170
:103F500080915908882309F082C1319980C15C9809
:103F600080910C08882309F438C180916E008D7F00
:103F700080936E003091F8073F5F3F703093F807F1
:103F8000D0900B08D694D69460910E01E0910F0169
:103F9000709110015091110140911201232F2E2791
:103FA000809116018D25282B932F9627809115013E
:103FB0008D25982B2923932F9727809117018D25E5
:103FC000982B2923932F9527809118018D25982BC5
:103FD0002923932F9427809119018D25982B29232C
:103FE00009F473C1F0E5FCBD4D2D50E042955295AA
:103FF000507F5427407F5427430F511D5B834A83D2
:10400000309113017A01032E02C0F694E7940A94CA
:10401000E2F7C70163E270E00E94C622262F80917A
:10402000F7076817B9F06093F7074091020850E06E
:10403000415D5D4F02C0559547953A95E2F78091F5
:1040400004089091050863E178E003E20E94B90B4F
:1040500030911301C70163E270E00E94C622FC01A7
:10406000EE0FFF1FED5EF74F808191810297AC014B
:1040700060E070E004C0440F551F661F771F3A953B
:10408000D2F78091020890E00197EA81FB81E82352
:10409000F923CF01A0E0B0E0480F591F6A1F7B1F32
:1040A00029E0440F551F661F771F2A95D1F780918D
:1040B000FA079091FB07A091FC07B091FD07480F0C
:1040C000591F6A1F7B1F872F9927AA27BB27E82F15
:1040D000CB01AA27BB27382FBB27A72F962F852FC9
:1040E000CEBC0DB407FC06C04B9BFBCF45980DB46E
:1040F00007FEFACFF1E5FEBD0DB407FC06C04B9BF1
:10410000FBCF45980DB407FEFACFEEBD0DB407FC0A
:1041100006C04B9BFBCF45980DB407FEFACF3EBDC2
:104120000DB407FC06C04B9BFBCF45980DB407FEB2
:10413000FACF8EBD0DB407FC06C04B9BFBCF459854
:104140000DB407FEFACF4EBD0DB407FC06C04B9B65
:10415000FBCF45980DB407FEFACF25E92EBD0DB46F
:1041600007FC06C04B9BFBCF45980DB407FEFACF6A
:10417000CEBC0DB407FC06C04B9BFBCF45980DB4DD
:1041800007FEFACFCEBC0DB407FC06C04B9BFBCF9D
:1041900045980DB407FEFACF2EB527FDF3CF2223A5
:1041A00019F02F3F09F09CCFCEBC0DB407FC06C020
:1041B0004B9BFBCF45980DB407FEFACF8EB58E3FD3
:1041C00099F71092F4071092F30710920C081CBC98
:1041D00080916E00826080936E0080910A0888232F
:1041E00009F4B1CE10920A0820911401A22FB0E078
:1041F000A69DF001A79DF00DB69DF00D1124EE0FC8
:10420000FF1FE35EFE4F80818D3A59F130E0269D1D
:10421000F001279DF00D369DF00D1124EE0FFF1FCC
:10422000E35EFE4F8081863909F08DCE249DF0013A
:10423000259DF00D349DF00D1124E55EFE4F878124
:1042400090E085759070880F991FB08455E5B52270
:10425000B82AA0921A014F9B78CE5D9874CE5C9AD2
:104260007FCE80911A01882309F061C09091F807F0
:10427000FD01E25FFE4F908380910B08AB5EBE4F65
:10428000869586958C939F3009F472C09D3009F411
:104290006FC0892F8F5F8F708093F807243009F4E7
:1042A00074C02F5F20931401822F90E0AC01449DD5
:1042B000C001459D900D549D900D1124855E9E4F2B
:1042C0009093120880931108A1CF6F3F49F4EF3FFC
:1042D00039F47F3F29F45F3F19F44F3F09F482CE50
:1042E0007EE0E72E71E0F72E05E111E04DE151E0AF
:1042F0005B834A8390E06F3F39F0892FF80140815A
:1043000099830E9420129981F701C1927F01F801DF
:10431000C1928F01EA81FB8110829F5FE25AFE4FBA
:10432000FB83EA83953041F1F7016081E4CFB092DD
:10433000F80710921A015FE0B51609F067CF809177
:10434000F3079091F407ECE080399E0770F435B8DC
:1043500025B835B80196F0E180319F07C8F340E9F0
:104360005CE05093F4074093F307A0920C084ECF03
:10437000892F8E5F8F7090CF109214019092120847
:10438000809211083091F8072DCE8091F30790911B
:10439000F4073CE08039930770F435B825B835B898
:1043A000019640E180319407C8F380E99CE0909346
:1043B000F4078093F3077EE0E72E71E0F72EF70114
:1043C00005C0319631E0E331F30779F280818F3F08
:1043D000C1F305E111E0EDE1F1E0FB83EA8390E058
:1043E000F70160816F3F39F0892FF801408199838F
:1043F0000E9420129981F701C1927F01F801C192B8
:104400008F01EA81FB8110829F5FE25AFE4FFB839E
:10441000EA83953029F71092140190921208809245
:10442000110820E0A2CF28E100002A95E9F70197C2
:10443000D1F708950000000000000000000008957A
:10444000AF93AFB7AF93A0915A08A062A8B9BF933A
:104450002F9320E0EFDFB0910C08BB2351F0A0E2D6
:10446000A8B920935A082F91BF91AF91AFBFAF91D8
:104470001895A0E2A8B9A8E3A5B9A3B1A0712A2F05
:10448000A8E1A5B9A091F307B091F4071196A09304
:10449000F307B093F407A03999F4BC3089F4A1E094
:1044A000A0930C08CF93DF93C0E7B8E3D8E1A8E06E
:1044B000B5B9D5B9AA95E1F7CA95C9F7DF91CF91FA
:1044C00020935A082F91BF91AF91AFBFAF9118952C
:1044D0002F932FB72F934F9955C03F933091F907E2
:1044E00023B122702327E1F323B122702093F9072F
:1044F00028E02A95F1F700004F935F936F937F9325
:104500008F93EF93FF9360E0E0911108F091120810
:104510003DE541E00DC05091F90773B17270752708
:10452000E1F373B172707093F9077EE07A95F1F759
:1045300027E081E079B17470D1F400007EE17A95D2
:10454000F1F773B172705091F9077093F9077527FD
:1045500076950000880F872B2A9561F7853D09F431
:1045600061E06030C1F2819331504040A1F651E0EA
:1045700050930A08FF91EF918F917F916F915F9116
:104580004F913F912F912FBF2F911895AA1BBB1BC5
:1045900051E107C0AA1FBB1FA617B70710F0A61B43
:1045A000B70B881F991F5A95A9F780959095BC0164
:1045B000CD01089597FB092E07260AD077FD04D078
:1045C000E5DF06D000201AF4709561957F4F0895BD
:1045D000F6F7909581959F4F0895F999FECF92BD7A
:1045E00081BDF89A992780B50895262FF999FECFB5
:1045F0001FBA92BD81BD20BD0FB6F894FA9AF99A00
:0A4600000FBE01960895F894FFCF55
:0C460A004E49430044534B00FEFFFF00EC
:00000001FF
