:100000000C9471000C94A00D0C94AB040C948E0015
:100010000C9434020C948E000C948E000C948E0080
:100020000C948E000C948E000C948E000C948E0018
:100030000C948E000C948E000C94580D0C948E0031
:100040000C948E000C948E000C948E000C948E00F8
:100050000C948E000C948E000C948E000C948E00E8
:100060000C948E000C948E000FED0321000D0B09F3
:10007000070503010E0C0A080604020F2020534452
:1000800049534B205D5B204C4344202000202046F8
:100090004150504C45322032303138202000202051
:1000A00020204E4F204449534B2020202020005335
:1000B000454C454354204E494320494D4147450056
:1000C000204449534B20494E534552544544202027
:1000D000002046494C45204E4F5420464F554E4433
:1000E000200011241FBECFEFD8E0DEBFCDBF11E04E
:1000F000A0E0B1E0E6E5F2E202C005900D92AC337B
:10010000B107D9F718E0ACE3B1E001C01D92AD38FA
:10011000B107E1F70E94390B0C9429110C940000EF
:1001200020E030E04EE551E0249FF001259FF00DE6
:10013000349FF00D1124E55BFE4F80E090E01192BA
:10014000019661E08E359607D1F72F5F3F4F25303E
:10015000310551F780E090E02FEFFC01E25CFE4FAB
:100160002083FC01EB5BFE4F2083019685309105D7
:10017000A1F7089520912508309126084CE02039F8
:10018000340788F488E185B998E395B985B92F5F7C
:100190003F4F40E120313407C0F380E99CE0909369
:1001A00026088093250808958EBD0DB407FC06C06F
:1001B0004B9BFBCF45980DB407FEFACF08958FEF08
:1001C0008EBD0DB407FC06C04B9BFBCF45980DB40C
:1001D00007FEFACF8EB508950E94DF008F3FE1F74A
:1001E0000895DF92EF92FF920F931F93D82E7A011A
:1001F0008B018FEF0E94D4008D2D805C0E94D40073
:10020000812F9927AA27BB270E94D400C801AA27BB
:10021000BB270E94D400BB27A12F902F8F2D0E94B7
:10022000D4008E2D0E94D40085E90E94D4008FEF67
:100230000E94D4001F910F91FF90EF90DF900895DE
:100240000E94DF0087FDFCCF0895DF92EF92FF92BE
:100250000F931F93D82E7A018B018D2DB801A70122
:100260000E94F1000E942001882311F08F3FA9F71E
:100270001F910F91FF90EF90DF900895AB01BC01AB
:1002800081E10E9425010E94DF008E3FE1F7089581
:10029000EF92FF920F931F93CF93DF937C01EB01BB
:1002A00080E148E050E060E070E00E942501EE0C43
:1002B000FF1CE294F29430EFF322FE24E322FE24AA
:1002C00000E010E080913F0890914008A091410823
:1002D000B0914208E80EF91E0A1F1B1FC801B701A2
:1002E0000E943E0110E00E94DF0089931F5F1830DA
:1002F000D1F70E94DF000E94DF00DF91CF911F91B4
:100300000F91FF90EF9008956F927F928F929F923E
:10031000AF92BF92CF92DF92EF92FF920F931F9313
:10032000CF93DF936C013B014A01B22EA02E80E1F6
:1003300042E050E060E070E00E94250160913F08DB
:10034000709140088091410890914208665E7F4F0D
:100350008F4F9F4FCC0CDD1CC294D294E0EFDE2275
:10036000DC24CE22DC24EE24D7FCE094FE2C6C0DA1
:100370007D1D8E1D9F1D0E943E010E94DF00082FE3
:1003800010E00E94DF00382F20E0020F131F0E94B0
:10039000DF000E94DF00BB2019F4F301118300830A
:1003A000EE24FF2408C0FFEF073F1F0708F046C0F8
:1003B000BC1408F443C0E814F90408F03FC00894E2
:1003C000E11CF11CC7016A2D70E00E94120EC62EBE
:1003D000B80180E090E0660F771F881F991F209179
:1003E0003008309131084091320850913308620F43
:1003F000731F841F951F0E943E010E94DF00082F7B
:1004000010E00E94DF00D82FC0E00C0F1D1F0E94DB
:10041000DF000E94DF00CB1431F6C7016A2D70E0C7
:100420000E94120EFC01EE0FFF1FE60DF71D118357
:100430000083FFEF073F1F0708F4BACF80E140E0D9
:1004400052E060E070E00E942501DF91CF911F91A2
:100450000F91FF90EF90DF90CF90BF90AF909F9063
:100460008F907F906F9008951F920F920FB60F920A
:1004700011242F938F939F93EF93FF934F9936C03F
:1004800096B19F7080913D01981781F190933D0145
:100490009830B1F1943009F43BC0923099F1913029
:1004A00029F520E080913D08820F8770E82FE695BE
:1004B000F0E0E859FF4F249190933D0180FF24C064
:1004C000922F9F7093FD986F80913D08980F9093A5
:1004D0003D0880913D08853C10F010923D088091C8
:1004E0003D088C3818F08BE880933D08FF91EF9120
:1004F0009F918F912F910F900FBE0F901F90189585
:1005000022E0D0CF26E0CECF922F92959F70DACF07
:1005100024E0C8CFBF92CF92DF92EF92FF920F9369
:100520001F93CF93DF93B82ED62EC42EC42FD0E0C6
:10053000C295D295D07FDC27C07FDC27C60FD11DA6
:10054000309143017E01032E02C0F694E7940A9491
:10055000E2F7C70163E270E00E94FE0D262F809152
:100560006E008D7F80936E0080E58CBD80912908A0
:100570006817B9F0609329084091340850E0415D54
:100580005D4F02C0559547953A95E2F78091360840
:100590009091370865E478E003E20E94840130918D
:1005A00043012A9A2A98C70163E270E00E94FE0D77
:1005B000FC01EE0FFF1FEB5BF74F40815181425072
:1005C000504060E070E004C0440F551F661F771F65
:1005D0003A95D2F78091340890E00197C823D92347
:1005E000CE01A0E0B0E0480F591F6A1F7B1FF9E061
:1005F000440F551F661F771FFA95D1F780912C087D
:1006000090912D08A0912E08B0912F08480F591FE6
:100610006A1F7B1F88E10E9425018FEF0E94D40092
:100620008EEF0E94D400C0E0D0E08FEF0E94D40093
:100630002196C631D105C9F783E00E94D4008CEF22
:100640000E94D4008FEF0E94D4008FE30E94D40058
:100650008FEC0E94D40083EF0E94D4008CEF0E94A4
:10066000D4008FEF0E94D4008FE30E94D4008FEC5F
:100670000E94D40083EF0E94D4008CEF0E94D4002B
:1006800085ED0E94D4008AEA0E94D40086E90E9487
:10069000D4008FEF0E94D4008EEF0E94D4008C2DE6
:1006A00086958A6A0E94D4008C2D8A6A0E94D400A2
:1006B0008D2D86958A6A0E94D4008D2D8A6A0E94AB
:1006C000D4001EEF1D251C25812F86958A6A0E9465
:1006D000D400812F8A6A0E94D4008EED0E94D4003B
:1006E0008AEA0E94D4008BEE0E94D4008FEF0E9411
:1006F000D4008FEF0E94D4008FEF0E94D4008FEFC0
:100700000E94D4008FEF0E94D4002B2D30E08EE5A4
:1007100091E0289FE001299FD00D389FD00D112432
:10072000C55BDE4F00E010E089910E94D4000F5FAE
:100730001F4F81E00D351807B9F7C0E0D0E08FEF0B
:100740000E94D4002196CE30D105C9F700E010E018
:1007500080E00E94D4000F5F1F4F00361105C1F7E3
:100760008FEF0E94D4008FEF0E94D4000E94DF0020
:100770000E94EC002A9A2A981CBC80916E0082602C
:1007800080936E00DF91CF911F910F91FF90EF90BA
:10079000DF90CF90BF900895AF92BF92DF92EF921B
:1007A000FF920F931F93DF93CF930F92CDB7DEB7D6
:1007B0000EE3A02E01E0B02EF50180818F3F81F481
:1007C000319681E0E334F807C1F70F90CF91DF91C4
:1007D0001F910F91FF90EF90DF90BF90AF90089521
:1007E00015E4E12E11E0F12E0DE411E090E0DD249E
:1007F000DA94F50160816F3F39F0892FF70140816C
:1008000099830E948A029981F501D1925F01F701D3
:10081000D1927F01F80110829F5F025A1E4F9530DE
:1008200041F7109244018BE491E090934408809347
:100830004308CBCF40914401A42FB0E08FEA90E071
:10084000A89FF001A99FF00DB89FF00D1124EE0FA5
:10085000FF1FE35BFE4F80818D3A61F150E08FEA2C
:1008600090E0489FF001499FF00D589FF00D112432
:10087000EE0FFF1FE35BFE4F8081863909F008957C
:100880008EE591E0489FF001499FF00D589FF00DD3
:100890001124E55BFE4F878190E085759070880F8D
:1008A000991F20852575282B20933C0181E080939A
:1008B0004A01089580914A01882371F590912A0890
:1008C000FD01E25CFE4F908380913D08AB5BBE4F23
:1008D000869586958C939F3081F19D3071F1892F9B
:1008E0008F5F8F7080932A08443059F14F5F409397
:1008F0004401242F30E08EE591E0BC01269FC00129
:10090000279F900D369F900D1124855B9E4F9093ED
:10091000440880934308A2CF80913C0180932A0829
:1009200010924A018F3009F099CF0E94BA0081E0FD
:1009300080933E084091440191CF892F8E5F8F7044
:10094000D1CF0E94BA000E94CC0381E080933E0880
:100950004091440183CF1F920F920FB60F92112442
:100960002F933F934F935F936F937F938F939F93B7
:10097000AF93BF93EF93FF9380E090E0A0E0B0E0EF
:100980000BC00196A11DB11D803020E0920728E028
:10099000A20720E0B20799F04B99F3CFFF91EF91B6
:1009A000BF91AF919F918F917F916F915F914F9187
:1009B0003F912F910F900FBE0F901F901895F999AE
:1009C000FECF60913D0881E090E00E944410459880
:1009D000E5CF4F925F926F927F928F929F92AF92EC
:1009E000BF92CF92DF92EF92FF920F931F93CF931C
:1009F000DF936B017C01742E652E522E432E80E115
:100A000040E052E060E070E00E942501812C6EEF32
:100A1000962E6FEFA62E6FEFB62E8C209D20AE2067
:100A2000BF20C501B4010E943E010BE411E0E801C2
:100A30000E94DF00899383E0CB34D807C9F70E9476
:100A4000DF000E94DF0096013170255B3E4FC90137
:100A5000672D762D452D542D0E94320E2A9A2A9804
:100A600088E1B501A4010E9425018FEF0E94D40006
:100A70008EEF0E94D400F80181918F010E94D40072
:100A8000F3E00B341F07B9F78FEF0E94D4008FEF0C
:100A90000E94D4000E94DF000E94EC002A9A2A984B
:100AA000DF91CF911F910F91FF90EF90DF90CF904A
:100AB000BF90AF909F908F907F906F905F904F907E
:100AC00008952F923F924F925F926F927F928F92F2
:100AD0009F92AF92BF92CF92DF92EF92FF920F93CD
:100AE0001F93DF93CF93CDB7DEB765970FB6F8941A
:100AF000DEBF0FBECDBF9D8B8C8B4B01AA24BB24C8
:100B000044245524CC24DD2476013E010894611C44
:100B1000711C4B99F4C080E141E050E060E070E06E
:100B20000E94250160913F08709140088091410822
:100B3000909142086C0D7D1D8E1D9F1D0E943E01EF
:100B40000E94DF00182F0E94DF000E94DF001123A7
:100B500009F469C0153009F466C01E3209F463C097
:100B6000153E09F460C0812F81548A3120F0105362
:100B70001A3008F058C060913F0870914008809189
:100B8000410890914208655F7F4F8F4F9F4F6C0DDA
:100B90007D1D8E1D9F1D0E943E010E94DF00182FAB
:100BA0000E94DF000E94DF00812F8E71E1F51F306F
:100BB000D1F180E143E050E060E070E00E94250167
:100BC00060913F08709140088091410890914208DF
:100BD000685F7F4F8F4F9F4F6C0D7D1D8E1D9F1D3A
:100BE0000E943E010E94DF0089830E94DF008A8309
:100BF0000E94DF008B830E94DF000E94DF00C301A0
:100C0000B40143E050E00E94250E009761F4F20128
:100C1000EE0FFF1F8C899D89E80FF91FB182A0821A
:100C20000894411C511C0894A11CB11C80E290E066
:100C3000A0E0B0E0C80ED91EEA1EFB1E90E0A91687
:100C400092E0B90609F065CFA2E04A16510408F413
:100C500059C0FEEF2F2EFFEF3F2E240C351C6201F2
:100C60000894C108D10866247724E4E08E2E912CE4
:100C70008C0E9D1E7CE0A72EB12CAC0EBD1EC114A7
:100C8000D10499F10C891D89B1E0EB2EF12C08C03B
:100C90000894E11CF11C0E5F1F4FCE14DF0428F1F5
:100CA000F80182819381B4010E944801D8018D919D
:100CB0009C91B5010E944801C401B50148E050E093
:100CC0000E94250E97FFE4CFF801228133818081B5
:100CD000918193838283318320830894E11CF11CEA
:100CE0000E5F1F4FCE14DF04D8F60894611C711CF0
:100CF0000894C108D1082614370408F603C0412C13
:100D0000A2E05A2EC20165960FB6F894DEBF0FBE60
:100D1000CDBFCF91DF911F910F91FF90EF90DF90AA
:100D2000CF90BF90AF909F908F907F906F905F908B
:100D30004F903F902F9008952F923F924F925F9245
:100D40006F927F928F929F92AF92BF92CF92DF92DB
:100D5000EF92FF920F931F93DF93CF93CDB7DEB740
:100D600068970FB6F894DEBF0FBECDBF9B8B8A8B02
:100D70007D8B6C8B5F8B4E8B288FAA24BB24412CE0
:100D800022E0522E198A188A66247724CC24DD2486
:100D9000760198E0292E312C2C0E3D1E88E0882EFD
:100DA000912C820C931C4B99EBC080E141E050E008
:100DB00060E070E00E94250160913F08709140085A
:100DC00080914108909142086C0D7D1D8E1D9F1DE4
:100DD0000E943E010E94DF00182F0E94DF000E9447
:100DE000DF00112309F4ADC0153009F4AAC01E328A
:100DF00009F4A7C0153E09F4A4C0812F81548A319B
:100E000020F010531A3008F09CC060913F08709198
:100E100040088091410890914208655F7F4F8F4F55
:100E20009F4F6C0D7D1D8E1D9F1D0E943E010E94D7
:100E3000DF00182F0E94DF000E94DF00812F8E71DB
:100E400009F07FC01F3009F47CC080E14CE050E025
:100E500060E070E00E94250160913F0870914008B9
:100E600080914108909142086C0D7D1D8E1D9F1D43
:100E70000E943E0181010E94DF00D8018D938D0107
:100E8000A815B905C1F70E94DF008D830E94DF001D
:100E90008E830E94DF008F83EC89FD89EF2B09F49C
:100EA000A1C00E94DF008170880F880F880FAC8975
:100EB000BD898C930E94DF000E94DF0080E144E046
:100EC00050E060E070E00E94250160913F08709161
:100ED000400880914108909142086A5E7F4F8F4F91
:100EE0009F4F6C0D7D1D8E1D9F1D0E943E010E9417
:100EF000DF0089830E94DF008A830E94DF008B83EA
:100F00000E94DF008C830E94DF000E94DF00CE0180
:100F100005966A897B8943E050E00E94250E009780
:100F200081F4B88DBB2309F047C029813A818B81B8
:100F30009C816816790608F450C08615970509F457
:100F400046C00894A11CB11C80E290E0A0E0B0E093
:100F5000C80ED91EEA1EFB1E90E0A91692E0B90643
:100F600009F021CFA0E04A16A2E05A0639F0EE8936
:100F7000FF89EF2B19F0F88DFF23B9F1B20102C000
:100F800060E072E0CB0168960FB6F894DEBF0FBE4A
:100F9000CDBFCF91DF911F910F91FF90EF90DF9028
:100FA000CF90BF90AF909F908F907F906F905F9009
:100FB0004F903F902F900895C1016E897F8948E03E
:100FC00050E00E94250E009709F0BBCFAECFE88914
:100FD000F9892E173F0708F4B4CF2501398B288BE8
:100FE0003C01AFCF0E94DF0065CF80E148E050E0D8
:100FF00060E070E00E942501B201660F771F6295E4
:101000007295707F7627607F762780E090E0209150
:101010003F08309140084091410850914208620FCA
:10102000731F841F951F0E943E0100E010E00E9484
:10103000DF00EE89FF89E00FF11F80830F5F1F4FF4
:1010400008301105A1F70E94DF000E94DF00B20105
:1010500099CF2F923F924F925F926F927F928F9291
:101060009F92AF92BF92CF92DF92EF92FF920F9337
:101070001F93DF93CF93CDB7DEB769970FB6F89480
:10108000DEBF0FBECDBF182F092FF62E488F598F08
:10109000A82EB92EC50160E071E00E9461059F8B0A
:1010A0008E8B69E0262E312C2C0E3D1ED101E5E001
:1010B000F1E08DE001900D928150E1F781E06FEA5F
:1010C00070E00E941D0D8E899F89892B09F4B2C0A2
:1010D000FF2009F4A6C0EE89FF893F0188249924E6
:1010E000611471048104910409F49BC0812F902F35
:1010F0009C016901EE24FF2487012E010894411C04
:10110000511C0FC00894E11CF11C011D111D82E04F
:1011100090E0C80ED91EE614F7040805190508F07A
:1011200084C0F60180819181B2010E944801C20110
:10113000688D798D48E050E00E94250E009711F7E8
:101140008701F701EE0FFF1FEA0DFB1D80819181E2
:10115000B1010E94480182E0B1010E94070DEE2416
:10116000EA94FE2CCE88DF880894C108D10883E079
:1011700064E071E00E94070D0E94330D8535E9F0AF
:101180008434A9F08335F9F0E016F10671F0F80126
:10119000EE0FFF1FEA0DFB1D80819181B1010E94BE
:1011A000480182E0B1010E94070D7801E0CF1016DE
:1011B000110654F701501040E7CF0C151D0520F71C
:1011C0000F5F1F4FE1CF000F111FA00EB11EF501E1
:1011D00080819181B2010E944801888D998D9C0186
:1011E000D901F20188E001900D928150E1F781E090
:1011F00069960FB6F894DEBF0FBECDBFCF91DF91D9
:101200001F910F91FF90EF90DF90CF90BF90AF9024
:101210009F908F907F906F905F904F903F902F9016
:1012200008952E010894411C511C00E010E0E0E0FC
:10123000F0E08ACF82E061ED70E00E941D0D80E059
:10124000D7CFCF92DF92EF92FF920F931F93DF934E
:10125000CF93CDB7DEB766970FB6F894DEBF0FBE5B
:10126000CDBF5D9A83E58CBD2A9A00E010E08FEF38
:101270000E94D4000F5F1F4F0A301105C1F72A9852
:101280008FEF0E94D4008FEF0E94D40080E040E0F6
:1012900050E060E070E00E94F1000E94DF008130C9
:1012A000E1F72A9A6FEA70E00E941D0D2A9887E301
:1012B00040E050E060E070E00E94F1000E942001F8
:1012C0008F3F99F08E7F91F72A9A2A9889E240E021
:1012D00050E060E070E00E94F1000E94200188234D
:1012E000B1F08F3F11F02A9AE1CF20E030E0C90140
:1012F00066960FB6F894DEBF0FBECDBFCF91DF91DB
:101300001F910F91FF90EF90DF90CF90089580E5AF
:101310008CBD81E08DBD80E145E050E060E070E093
:101320000E94250166E370E080E090E00E943E01AB
:101330008E010E5F1F4F37E0C32ED12CCC0EDD1E69
:101340000E94DF00F80181938F01EC15FD05C1F7C4
:101350000E94DF000E94DF008A818634A9F48B811D
:10136000813491F48C81843579F48D81813361F4F9
:101370008E81863349F41092380810923908109201
:101380003A0810923B0870C080E144E050E060E011
:1013900070E00E94250166EC71E080E090E00E9420
:1013A0003E010E94DF0090E0A0E0B0E080933808AA
:1013B00090933908A0933A08B0933B080E94DF004D
:1013C00090E0A0E0B0E0BA2FA92F982F88272091B5
:1013D00038083091390840913A0850913B08280F5D
:1013E000391F4A1F5B1F20933808309339084093F8
:1013F0003A0850933B080E94DF0090E0A0E0B0E084
:10140000DC019927882720913808309139084091CC
:101410003A0850913B08280F391F4A1F5B1F209341
:1014200038083093390840933A0850933B080E949B
:10143000DF008091380890913908A0913A08B09166
:101440003B0819E0880F991FAA1FBB1F1A95D1F7F7
:101450008093380890933908A0933A08B0933B08DA
:101460000E94DF000E94DF0080E143E050E060E086
:1014700070E00E94250160913808709139088091D0
:101480003A0890913B08635F7F4F8F4F9F4F0E94B8
:101490003E010E94DF008983898180933408109285
:1014A00043018981813051F090E09F5F8981869569
:1014B000898389818130C9F7909343010E94DF00BD
:1014C000082F10E00E94DF00F82E0E94DF000E942B
:1014D000DF009F2D80E0800F911FA0E0B0E0F9E0D9
:1014E000880F991FAA1FBB1FFA95D1F720913808C2
:1014F0003091390840913A0850913B08820F931F70
:10150000A41FB51F8093300890933108A093320830
:10151000B093330880E142E050E060E070E00E9468
:101520002501609138087091390880913A089091AE
:101530003B086A5E7F4F8F4F9F4F0E943E010E9483
:10154000DF0080932708109228080E94DF00382FC0
:1015500020E08091270890912808820F931F909394
:101560002808809327080E94DF000E94DF008091F6
:10157000270890912808A0E0B0E0EAE0880F991FC2
:10158000AA1FBB1FEA95D1F720913008309131088E
:101590004091320850913308820F931FA41FB51F4A
:1015A00080933F0890934008A0934108B09342086D
:1015B0008050904CAF4FBF4F80932C0890932D08D4
:1015C000A0932E08B0932F087FE0E72EF12CEC0EAD
:1015D000FD1E82E191E060E070E0A70120E00E9442
:1015E0009C06909324088093230810E0F2E080305A
:1015F0009F0709F011E08BE491E0612FA7010E94A1
:101600002908112369F5882311F520E080E091E095
:101610006BE878E0A6010E949C069C019093370835
:10162000809336082050324009F45FCE8FEF8093CC
:1016300029088093350880E140E052E060E070E0E6
:101640000E9425011CBC5D9821E030E050CED601FF
:10165000F70188E001900D928150E1F721E0D6CFAB
:10166000D601F70188E001900D928150E1F721E069
:10167000CDCF7F928F929F92AF92BF92CF92DF9207
:10168000EF92FF920F931F93DF93CF93CDB7DEB707
:1016900061970FB6F894DEBF0FBECDBF5E01089410
:1016A000A11CB11CD501E9E2F1E081E101900D92AC
:1016B0008150E1F78CE284B980E387B98AB981E18E
:1016C00085B980E288B989E48BB97894F999FECF1D
:1016D00081E090E00E943C1080933D0880913D089D
:1016E000853C10F010923D0880913D088C3818F030
:1016F0008BE880933D088FE080936C0082E08093BC
:1017000068000E943A0D28EE33E043EA52E0CA0135
:101710000197F1F721503040D1F781E06CE770E09C
:101720000E941D0D82E06DE870E00E941D0D20E119
:1017300037E243EA52E0CA010197F1F72150304005
:10174000D1F780E064E071E00E94070D81E06EE96E
:1017500070E00E941D0D80E090E0A0E0B0E09C01F0
:10176000AD0181E090E0A0E0B0E04B99F8CFC90175
:10177000DA010196A11DB11D803020E0920728E01A
:10178000A20720E0B20759F78CE687BD82E084BD4E
:1017900011E015BD85BF8EE08093690081E06FEA9E
:1017A00070E00E941D0D0E942109892B09F4FFCFD2
:1017B00010928C0810922B0810933E081092260865
:1017C0001092250810922A081092440110924A01A2
:1017D0008BE491E090934408809343080E9490002A
:1017E00080916E00826080936E00E89AE99A1CBC3A
:1017F00081E060EC70E00E941D0D10E0E6E18E2EAD
:10180000E1E09E2E70E5772E4F99F2C05D9A4E99D9
:10181000F1C080918B08882309F0ECC03199EAC0AF
:101820005C9880913E08882309F4D7C080916E00AF
:101830008D7F80936E0030912A083F5F3F70309318
:101840002A0800913D080695069520913F0123271F
:10185000809146018027282B90913E01932780910B
:1018600045018027982B292390914001932780914F
:1018700047018027982B292390914101932780913C
:1018800048018027982B2923809142013827809195
:1018900049018027382B232309F4AEC00117F9F042
:1018A00000D000D000D0EDB7FEB73196ADB7BEB7CF
:1018B0001296BC92AE921197938282820483158213
:1018C0000E943B0E8DB79EB706960FB6F8949EBF4A
:1018D0000FBE8DBF81E0B5010E94070D102F7CBCAB
:1018E000E02EFF24E294F29460EFF622FE24E6223A
:1018F000FE2480912A08E80EF11C30914301670113
:10190000032E02C0D694C7940A94E2F7C60163E29C
:1019100070E00E94FE0D262F809129086817B9F00B
:10192000609329084091340850E0415D5D4F02C04A
:10193000559547953A95E2F780913608909137088A
:1019400065E478E003E20E94840130914301C6011E
:1019500063E270E00E94FE0DFC01EE0FFF1FEB5BE7
:10196000F74F608171816250704080E090E004C068
:10197000660F771F881F991F3A95D2F72091340878
:1019800030E021503040E222F322970140E050E065
:10199000620F731F841F951F49E0660F771F881F12
:1019A000991F4A95D1F720912C0830912D0840912C
:1019B0002E0850912F08620F731F841F951F0E94DD
:1019C0003E01109226081092250810923E081CBC79
:1019D00080916E00826080936E0080913C08882325
:1019E00009F412CF10923C080E941A044F9B0ECFAC
:1019F0005D980ACF5C9A15CF0E94CC034FCF982FE9
:101A00008091C00085FFFCCF9093C6000895982F69
:101A1000FB018091C00085FFFCCF9093C6009081B0
:101A2000992351F08091C00085FFFCCF9093C600B0
:101A3000918131969923B1F70895982FFB018091F8
:101A4000C00085FFFCCF9093C6009491992351F07C
:101A500031968091C00085FFFCCF9093C600949191
:101A60009923B1F708958091C00087FFFCCF809142
:101A7000C60008951092C5008EEA8093C40088E1E4
:101A80008093C1008EE08093C20080E06BE371E040
:101A90000E94070D089528E100002A95E9F70197B3
:101AA000D1F7089500000000000000000000089534
:101AB000AF93AFB7AF93A0918C08A062A8B9BF93C2
:101AC0002F9320E0EFDFB0913E08BB2351F0A0E25E
:101AD000A8B920938C082F91BF91AF91AFBFAF9160
:101AE0001895A0E2A8B9A8E3A5B9A3B1A0712A2FBF
:101AF000A8E1A5B9A0912508B09126081196A09358
:101B00002508B0932608A03999F4BC3089F4A1E0E7
:101B1000A0933E08CF93DF93C0E7B8E3D8E1A8E0F5
:101B2000B5B9D5B9AA95E1F7CA95C9F7DF91CF91B3
:101B300020938C082F91BF91AF91AFBFAF911895B3
:101B40002F932FB72F934F9955C03F9330912B0868
:101B500023B122702327E1F323B1227020932B08B5
:101B600028E02A95F1F700004F935F936F937F93DE
:101B70008F93EF93FF9360E0E0914308F091440866
:101B80003DE541E00DC050912B0873B1727075278F
:101B9000E1F373B1727070932B087EE07A95F1F7E0
:101BA00027E081E079B17470D1F400007EE17A958C
:101BB000F1F773B1727050912B0870932B08752751
:101BC00076950000880F872B2A9561F7853D09F4EB
:101BD00061E06030C1F2819331504040A1F651E0A4
:101BE00050933C08FF91EF918F917F916F915F919E
:101BF0004F913F912F912FBF2F911895AA1BBB1B7F
:101C000051E107C0AA1FBB1FA617B70710F0A61BFC
:101C1000B70B881F991F5A95A9F780959095BC011D
:101C2000CD01089597FB092E07260AD077FD04D031
:101C3000E5DF06D000201AF4709561957F4F089576
:101C4000F6F7909581959F4F0895FB01DC0104C044
:101C50008D910190801921F441505040C8F7881BA4
:101C6000990B0895FB01DC0102C001900D924150D7
:101C70005040D8F70895AEE0B0E0E1E4FEE00C9407
:101C800000110D891E8986E08C831A8309838FEFEA
:101C90009FE79E838D839E01275E3F4FCE01019675
:101CA0006F89788DA9010E945F0E2F813885020F00
:101CB000131FF80110822E96E4E00C941C11ABE087
:101CC000B0E0E5E6FEE00C94F2103C012B015A0175
:101CD000FC0117821682838181FD03C06FEF7FEFC5
:101CE000C6C19AE0892E1E010894211C311CF30103
:101CF0002381F20123FD859123FF81912F01882308
:101D000009F4B2C1853239F423FD859123FF819115
:101D10002F01853229F490E0B3010E946810E7CFCB
:101D2000982FFF24EE249924FFE1FF15D0F09B3279
:101D300069F09C3228F4903259F0933291F40EC03D
:101D40009D3249F0903369F441E024C052E0F52A15
:101D500084E0F82A28C098E0F92A25C0E0E1FE2AAC
:101D600022C0F7FC29C0892F80538A3070F4F6FE18
:101D700005C0989C902C1124980E15C0E89CE02C6E
:101D80001124E80EF0E2FF2A0EC09E3229F4F6FC80
:101D90006BC140E4F42A07C09C3619F450E8F52AD8
:101DA00002C0983649F4F20123FD959123FF9191E9
:101DB0002F01992309F0B8CF892F8554833018F06B
:101DC0008052833038F444E050E0A40EB51E5FE347
:101DD00059830FC0933631F0933779F0933509F07A
:101DE00056C020C0F5018081898342E050E0A40EF6
:101DF000B51E610101E010E012C0F501C080D18084
:101E0000F6FC03C06FEF7FEF02C0692D70E042E087
:101E100050E0A40EB51EC6010E945D108C015FE764
:101E2000F52214C0F501C080D180F6FC03C06FEF2D
:101E30007FEF02C0692D70E042E050E0A40EB51EB5
:101E4000C6010E9452108C0150E8F52AF3FE07C02B
:101E50001AC080E290E0B3010E946810EA948E2DCF
:101E600090E008171907A8F30EC0F601F7FC85915A
:101E7000F7FE81916F0190E0B3010E946810E110BC
:101E8000EA94015010400115110579F7EAC0943623
:101E900011F0993669F5F7FE08C0F501208131810E
:101EA0004281538184E090E00AC0F50180819181F4
:101EB0009C01442737FD4095542F82E090E0A80E06
:101EC000B91E9FE6F92257FF09C0509540953095FD
:101ED00021953F4F4F4F5F4FE0E8FE2ACA01B901FD
:101EE000A1012AE030E00E949410D82ED21840C000
:101EF000953729F41F2D1F7E2AE030E01DC01F2DCD
:101F0000197F9F3661F0903720F4983509F0ACC006
:101F10000FC0903739F0983709F0A6C004C028E008
:101F200030E00AC0106114FD146020E130E004C00C
:101F300014FD166020E132E017FF08C0F501608152
:101F400071818281938144E050E008C0F501808175
:101F50009181BC0180E090E042E050E0A40EB51E0B
:101F6000A1010E949410D82ED2188FE7F82EF122EA
:101F7000F6FE0BC05EEFF522D91438F4F4FE07C06C
:101F8000F2FC05C08FEEF82202C01D2D01C0192DF4
:101F9000F4FE0DC0FE01ED0DF11D8081803319F4BA
:101FA00099EEF92208C01F5FF2FE05C003C08F2D15
:101FB000867809F01F5F0F2DF3FC14C0F0FE0FC0F0
:101FC0001E1510F09D2C0BC09D2C9E0C911A1E2DE1
:101FD00006C080E290E0B3010E9468101F5F1E15EA
:101FE000C0F304C01E1510F4E11A01C0EE2404FF72
:101FF0000FC080E390E0B3010E94681002FF1DC093
:1020000001FD03C088E790E00EC088E590E00BC0BA
:10201000802F867891F001FF02C08BE201C080E240
:10202000F7FC8DE290E0B3010E94681006C080E3E7
:1020300090E0B3010E9468109A94D914C0F3DA9426
:10204000F101ED0DF11D808190E0B3010E94681057
:10205000DD20A9F706C080E290E0B3010E9468107D
:10206000EA94EE20C1F743CEF30166817781CB017C
:102070002B96E2E10C940E11F999FECF92BD81BD31
:10208000F89A992780B50895262FF999FECF1FBA9F
:1020900092BD81BD20BD0FB6F894FA9AF99A0FBE91
:1020A00001960895FC010590615070400110D8F729
:1020B000809590958E0F9F1F0895FC016150704090
:1020C00001900110D8F7809590958E0F9F1F08956D
:1020D0000F931F93CF93DF938C01EB018B8181FFD3
:1020E0001BC082FF0DC02E813F818C819D812817EE
:1020F000390764F4E881F9810193F983E88306C024
:10210000E885F985802F0995892B31F48E819F818F
:1021100001969F838E8302C00FEF1FEFC801DF91EE
:10212000CF911F910F910895FA01AA27283051F1FC
:10213000203181F1E8946F936E7F6E5F7F4F8F4FF8
:102140009F4FAF4FB1E03ED0B4E03CD0670F781F57
:10215000891F9A1FA11D680F791F8A1F911DA11D3C
:102160006A0F711D811D911DA11D20D009F4689475
:102170003F912AE0269F11243019305D3193DEF61D
:10218000CF010895462F4770405D4193B3E00FD0D3
:10219000C9F7F6CF462F4F70405D4A3318F0495DBE
:1021A00031FD4052419302D0A9F7EACFB4E0A695A1
:1021B0009795879577956795BA95C9F700976105C3
:1021C000710508959B01AC010A2E06945795479519
:1021D00037952795BA95C9F7620F731F841F951F0E
:1021E000A01D08952F923F924F925F926F927F921F
:1021F0008F929F92AF92BF92CF92DF92EF92FF9217
:102200000F931F93CF93DF93CDB7DEB7CA1BDB0BC2
:102210000FB6F894DEBF0FBECDBF09942A88398867
:1022200048885F846E847D848C849B84AA84B9846E
:10223000C884DF80EE80FD800C811B81AA81B9817A
:10224000CE0FD11D0FB6F894DEBF0FBECDBFED018E
:062250000895F894FFCF91
:102256004E4943000066696C656E616D652E4E4998
:1022660043004254460020545241434B202325301C
:1022760032642E30302020200020545241434B201F
:0C2286002330302E303020202000FE00DD
:00000001FF
