:100000000C9471000C94A50D0C9488040C948E0033
:100010000C942E020C948E000C948E000C948E0086
:100020000C948E000C948E000C948E000C948E0018
:100030000C948E000C948E000C945D0D0C948E002C
:100040000C948E000C948E000C948E000C948E00F8
:100050000C948E000C948E000C948E000C948E00E8
:100060000C948E000C948E000FED0321000D0B09F3
:10007000070503010E0C0A080604020F2020534452
:1000800049534B205D5B204C4344202000202046F8
:100090004150504C45322032303138202000202051
:1000A00020204E4F204449534B2020202020005335
:1000B000454C454354204E494320494D4147450056
:1000C000204449534B20494E534552544544202027
:1000D000002046494C45204E4F5420464F554E4433
:1000E000200011241FBECFEFD8E0DEBFCDBF11E04E
:1000F000A0E0B1E0E0E6F2E202C005900D92A83483
:10010000B107D9F714E0A8E4B1E001C01D92A93706
:10011000B107E1F70E94160B0C942E110C9400000D
:1001200020E030E04EE551E0249FF001259FF00DE6
:10013000349FF00D1124EF5AFE4F80E090E01192B1
:10014000019661E08E359607D1F72F5F3F4F223041
:10015000310551F78FEF80934A0180934E018093D0
:100160004B0180934F0108952091110430911204A6
:100170004CE02039340788F488E185B998E395B9D3
:1001800085B92F5F3F4F40E120313407C0F380E94C
:100190009CE0909312048093110408958EBD0DB4D9
:1001A00007FC06C04B9BFBCF45980DB407FEFACF6A
:1001B00008958FEF8EBD0DB407FC06C04B9BFBCF9F
:1001C00045980DB407FEFACF8EB508950E94D90068
:1001D0008F3FE1F70895DF92EF92FF920F931F9305
:1001E000D82E7A018B018FEF0E94CE008D2D805C7E
:1001F0000E94CE00812F9927AA27BB270E94CE00FC
:10020000C801AA27BB270E94CE00BB27A12F902F91
:100210008F2D0E94CE008E2D0E94CE0085E90E9477
:10022000CE008FEF0E94CE001F910F91FF90EF90B4
:10023000DF9008950E94D90087FDFCCF0895DF92DA
:10024000EF92FF920F931F93D82E7A018B018D2D81
:10025000B801A7010E94EB000E941A01882311F047
:100260008F3FA9F71F910F91FF90EF90DF900895B6
:10027000AB01BC0181E10E941F010E94D9008E3FA9
:10028000E1F70895EF92FF920F931F93CF93DF93BF
:100290007C01EB0180E148E050E060E070E00E940A
:1002A0001F01EE0CFF1CE294F29430EFF322FE24C7
:1002B000E322FE2400E010E080912B0490912C04B6
:1002C000A0912D04B0912E04E80EF91E0A1F1B1FE9
:1002D000C801B7010E94380110E00E94D90089933B
:1002E0001F5F1830D1F70E94D9000E94D900DF911A
:1002F000CF911F910F91FF90EF9008956F927F9291
:100300008F929F92AF92BF92CF92DF92EF92FF9225
:100310000F931F93CF93DF936C013B014A01B22EE1
:10032000A02E80E142E050E060E070E00E941F01FA
:1003300060912B0470912C0480912D0490912E04D7
:10034000665E7F4F8F4F9F4FCC0CDD1CC294D294C2
:10035000E0EFDE22DC24CE22DC24EE24D7FCE09485
:10036000FE2C6C0D7D1D8E1D9F1D0E9438010E946C
:10037000D900082F10E00E94D900382F20E0020F8A
:10038000131F0E94D9000E94D900BB2019F4F30169
:1003900011830083EE24FF2408C0FFEF073F1F07EF
:1003A00008F046C0BC1408F443C0E814F90408F08F
:1003B0003FC00894E11CF11CC7016A2D70E00E9447
:1003C000170EC62EB80180E090E0660F771F881FD9
:1003D000991F20911C0430911D0440911E045091DE
:1003E0001F04620F731F841F951F0E9438010E9413
:1003F000D900082F10E00E94D900D82FC0E00C0FC0
:100400001D1F0E94D9000E94D900CB1431F6C701EC
:100410006A2D70E00E94170EFC01EE0FFF1FE60D23
:10042000F71D11830083FFEF073F1F0708F4BACFC2
:1004300080E140E052E060E070E00E941F01DF9147
:10044000CF911F910F91FF90EF90DF90CF90BF90D1
:10045000AF909F908F907F906F9008951F920F9212
:100460000FB60F9211242F938F939F93EF93FF93C7
:100470004F9936C096B19F7080914901981781F1CC
:10048000909349019830B1F1943009F43BC0923017
:1004900099F1913029F520E080912904820F87702D
:1004A000E82FE695F0E0E859FF4F24919093490139
:1004B00080FF24C0922F9F7093FD986F8091290434
:1004C000980F9093290480912904853C10F0109294
:1004D0002904809129048C3818F08BE88093290432
:1004E000FF91EF919F918F912F910F900FBE0F90E1
:1004F0001F90189522E0D0CF26E0CECF922F929574
:100500009F70DACF24E0C8CFBF92CF92DF92EF92F4
:10051000FF920F931F93CF93DF93B82ED62EC42E46
:10052000C42FD0E0C295D295D07FDC27C07FDC27D6
:10053000C60FD11D30914C017E01032E02C0F694EE
:10054000E7940A94E2F7C70163E270E00E94030EA9
:10055000262F80916E008D7F80936E0080E58CBD8C
:10056000809115046817B9F0609315044091200438
:1005700050E0415D5D4F02C0559547953A95E2F7D1
:10058000809122049091230461E374E003E20E94CD
:100590007E0130914C012A9A2A98C70163E270E0EB
:1005A0000E94030EFC01EE0FFF1FEF5CFB4F40812A
:1005B00051814250504060E070E004C0440F551F2C
:1005C000661F771F3A95D2F78091200490E001973B
:1005D000C823D923CE01A0E0B0E0480F591F6A1FFD
:1005E0007B1FF9E0440F551F661F771FFA95D1F75F
:1005F0008091180490911904A0911A04B0911B04E1
:10060000480F591F6A1F7B1F88E10E941F018FEF4F
:100610000E94CE008EEF0E94CE00C0E0D0E08FEFAF
:100620000E94CE002196C631D105C9F783E00E9411
:10063000CE008CEF0E94CE008FEF0E94CE008FE3A1
:100640000E94CE008FEC0E94CE0083EF0E94CE006D
:100650008CEF0E94CE008FEF0E94CE008FE30E94AD
:10066000CE008FEC0E94CE0083EF0E94CE008CEF74
:100670000E94CE0085ED0E94CE008AEA0E94CE0044
:1006800086E90E94CE008FEF0E94CE008EEF0E947E
:10069000CE008C2D86958A6A0E94CE008C2D8A6AA7
:1006A0000E94CE008D2D86958A6A0E94CE008D2DE7
:1006B0008A6A0E94CE001EEF1D251C25812F86957B
:1006C0008A6A0E94CE00812F8A6A0E94CE008EED37
:1006D0000E94CE008AEA0E94CE008BEE0E94CE00DD
:1006E0008FEF0E94CE008FEF0E94CE008FEF0E940E
:1006F000CE008FEF0E94CE008FEF0E94CE002B2DF8
:1007000030E08EE591E0289FE001299FD00D389FD1
:10071000D00D1124CF5ADE4F00E010E089910E94E5
:10072000CE000F5F1F4F81E00D351807B9F7C0E00D
:10073000D0E08FEF0E94CE002196CE30D105C9F7D0
:1007400000E010E080E00E94CE000F5F1F4F0036F7
:100750001105C1F78FEF0E94CE008FEF0E94CE00EF
:100760000E94D9000E94E6002A9A2A981CBC809117
:100770006E00826080936E00DF91CF911F910F9188
:10078000FF90EF90DF90CF90BF90089560914A0165
:100790006F3F29F480914B018F3F31F4089580E041
:1007A00040914E010E9484028FEF80934A01809312
:1007B0004E011092530160914B016F3F29F081E08F
:1007C00040914F010E9484028FEF80934B018093F0
:1007D0004F011092B10210924D0181E591E090938A
:1007E000300480932F0408951F9310914D01A12F81
:1007F000B0E08FEA90E0A89FF001A99FF00DB89FAC
:10080000F00D1124EE0FFF1FED5AFE4F80818D3A3F
:1008100069F1412F50E08FEA90E0489FF001499F35
:10082000F00D589FF00D1124EE0FFF1FED5AFE4FF3
:1008300080818639C9F48EE591E0489FF001499F97
:10084000F00D589FF00D1124EF5AFE4F878190E074
:1008500085759070880F991F20852575282B20930A
:10086000480181E0809350011F91089580915001CB
:10087000882381F590911604FD01E65BFE4F90837D
:1008800080912904A25BBE4F869586958C939F30FC
:1008900091F19D3081F1892F8F5F8F7080931604C5
:1008A000113069F1412F4F5F40934D01242F30E00B
:1008B0008EE591E0BC01269FC001279F900D369FD9
:1008C000900D11248F5A9E4F9093300480932F04E3
:1008D000142F9FCF809148018093160410925001ED
:1008E0008F3009F096CF0E94B40081E080932A04F3
:1008F00010914D018ECF892F8E5F8F70CFCF0E94C8
:10090000B4000E94C60310932A0410914D0181CFB8
:100910001F920F920FB60F9211242F933F934F9374
:100920005F936F937F938F939F93AF93BF93EF9357
:10093000FF9380E090E0A0E0B0E00BC00196A11D25
:10094000B11D803020E0920728E0A20720E0B20726
:1009500099F04B99F3CFFF91EF91BF91AF919F9198
:100960008F917F916F915F914F913F912F910F9058
:100970000FBE0F901F901895F999FECF6091290432
:1009800081E090E00E9449104598E5CF4F925F9238
:100990006F927F928F929F92AF92BF92CF92DF928F
:1009A000EF92FF920F931F93CF93DF936B017C0124
:1009B000742E652E522E432E80E140E052E060E01E
:1009C00070E00E941F01812C2EEF922E2FEFA22E9D
:1009D0002FEFB22E8C209D20AE20BF20C501B40188
:1009E0000E94380101E511E0E8010E94D9008993D5
:1009F00083E0C135D807C9F70E94D9000E94D90009
:100A0000960131702F5A3E4FC901672D762D452D25
:100A1000542D0E94370E2A9A2A9888E1B501A40124
:100A20000E941F018FEF0E94CE008EEF0E94CE0029
:100A3000F80181918F010E94CE00F3E001351F077C
:100A4000B9F78FEF0E94CE008FEF0E94CE000E9478
:100A5000D9000E94E6002A9A2A98DF91CF911F912F
:100A60000F91FF90EF90DF90CF90BF90AF909F904D
:100A70008F907F906F905F904F9008952F923F924C
:100A80004F925F926F927F928F929F92AF92BF929E
:100A9000CF92DF92EF92FF920F931F93DF93CF934A
:100AA000CDB7DEB765970FB6F894DEBF0FBECDBFEA
:100AB0009D8B8C8B4B01AA24BB2444245524CC242D
:100AC000DD2476013E010894611C711C4B99F4C031
:100AD00080E141E050E060E070E00E941F01609121
:100AE0002B0470912C0480912D0490912E046C0D98
:100AF0007D1D8E1D9F1D0E9438010E94D900182F58
:100B00000E94D9000E94D900112309F469C0153050
:100B100009F466C01E3209F463C0153E09F460C0D2
:100B2000812F81548A3120F010531A3008F058C0B8
:100B300060912B0470912C0480912D0490912E04CF
:100B4000655F7F4F8F4F9F4F6C0D7D1D8E1D9F1DCD
:100B50000E9438010E94D900182F0E94D9000E94DB
:100B6000D900812F8E71E1F51F30D1F180E143E092
:100B700050E060E070E00E941F0160912B047091D2
:100B80002C0480912D0490912E04685F7F4F8F4F2D
:100B90009F4F6C0D7D1D8E1D9F1D0E9438010E9470
:100BA000D90089830E94D9008A830E94D9008B834F
:100BB0000E94D9000E94D900C301B40143E050E073
:100BC0000E942A0E009761F4F201EE0FFF1F8C893C
:100BD0009D89E80FF91FB182A0820894411C511C25
:100BE0000894A11CB11C80E290E0A0E0B0E0C80E27
:100BF000D91EEA1EFB1E90E0A91692E0B90609F084
:100C000065CFA2E04A16510408F459C05EEF252EC4
:100C10005FEF352E240C351C62010894C108D10801
:100C20006624772444E0842E912C8C0E9D1E3CE09B
:100C3000A32EB12CAC0EBD1EC114D10499F10C89A8
:100C40001D8971E0E72EF12C08C00894E11CF11C0D
:100C50000E5F1F4FCE14DF0428F1F80182819381CB
:100C6000B4010E944201D8018D919C91B5010E946E
:100C70004201C401B50148E050E00E942A0E97FFEE
:100C8000E4CFF80122813381808191819383828333
:100C9000318320830894E11CF11C0E5F1F4FCE149A
:100CA000DF04D8F60894611C711C0894C108D108AF
:100CB0002614370408F603C0412C62E0562EC20108
:100CC00065960FB6F894DEBF0FBECDBFCF91DF9112
:100CD0001F910F91FF90EF90DF90CF90BF90AF905A
:100CE0009F908F907F906F905F904F903F902F904C
:100CF00008952F923F924F925F926F927F928F92C0
:100D00009F92AF92BF92CF92DF92EF92FF920F939A
:100D10001F93DF93CF93CDB7DEB768970FB6F894E4
:100D2000DEBF0FBECDBF9B8B8A8B7D8B6C8B5F8BA9
:100D30004E8B288FAA24BB24412C82E0582E198A7E
:100D4000188A66247724CC24DD24760108E0202E3E
:100D5000312C2C0E3D1E18E0812E912C820C931C00
:100D60004B99EBC080E141E050E060E070E00E9410
:100D70001F0160912B0470912C0480912D0490919F
:100D80002E046C0D7D1D8E1D9F1D0E9438010E943A
:100D9000D900182F0E94D9000E94D900112309F40C
:100DA000ADC0153009F4AAC01E3209F4A7C0153E23
:100DB00009F4A4C0812F81548A3120F010531A30D5
:100DC00008F09CC060912B0470912C0480912D043C
:100DD00090912E04655F7F4F8F4F9F4F6C0D7D1D4F
:100DE0008E1D9F1D0E9438010E94D900182F0E945D
:100DF000D9000E94D900812F8E7109F07FC01F3069
:100E000009F47CC080E14CE050E060E070E00E94BA
:100E10001F0160912B0470912C0480912D049091FE
:100E20002E046C0D7D1D8E1D9F1D0E9438018101B9
:100E30000E94D900D8018D938D01A815B905C1F77D
:100E40000E94D9008D830E94D9008E830E94D90010
:100E50008F83EC89FD89EF2B09F4A1C00E94D90092
:100E60008170880F880F880FAC89BD898C930E9490
:100E7000D9000E94D90080E144E050E060E070E0D9
:100E80000E941F0160912B0470912C0480912D040D
:100E900090912E046A5E7F4F8F4F9F4F6C0D7D1D8A
:100EA0008E1D9F1D0E9438010E94D90089830E94D7
:100EB000D9008A830E94D9008B830E94D9008C8339
:100EC0000E94D9000E94D900CE0105966A897B89CB
:100ED00043E050E00E942A0E009781F4B88DBB23B6
:100EE00009F047C029813A818B819C816816790677
:100EF00008F450C08615970509F446C00894A11C53
:100F0000B11C80E290E0A0E0B0E0C80ED91EEA1E5D
:100F1000FB1E90E0A91692E0B90609F021CFA0E0EF
:100F20004A16A2E05A0639F0EE89FF89EF2B19F034
:100F3000F88DFF23B9F1B20102C060E072E0CB018D
:100F400068960FB6F894DEBF0FBECDBFCF91DF918C
:100F50001F910F91FF90EF90DF90CF90BF90AF90D7
:100F60009F908F907F906F905F904F903F902F90C9
:100F70000895C1016E897F8948E050E00E942A0EE1
:100F8000009709F0BBCFAECFE889F9892E173F074C
:100F900008F4B4CF2501398B288B3C01AFCF0E94D8
:100FA000D90065CF80E148E050E060E070E00E9449
:100FB0001F01B201660F771F62957295707F7627C9
:100FC000607F762780E090E020912B0430912C0404
:100FD00040912D0450912E04620F731F841F951FA2
:100FE0000E94380100E010E00E94D900EE89FF89DC
:100FF000E00FF11F80830F5F1F4F08301105A1F72D
:101000000E94D9000E94D900B20199CF2F923F923D
:101010004F925F926F927F928F929F92AF92BF9208
:10102000CF92DF92EF92FF920F931F93DF93CF93B4
:10103000CDB7DEB769970FB6F894DEBF0FBECDBF50
:10104000182F092FF62E488F598FA82EB92EC501BB
:1010500060E071E00E943E059F8B8E8B49E0242E5C
:10106000312C2C0E3D1ED101E5E0F1E08DE0019028
:101070000D928150E1F781E06FEA70E00E94220D4D
:101080008E899F89892B09F4B2C0FF2009F4A6C07C
:10109000EE89FF893F018824992461147104810439
:1010A000910409F49BC0812F902F9C016901EE24CB
:1010B000FF2487012E010894411C511C0FC0089485
:1010C000E11CF11C011D111D82E090E0C80ED91E2B
:1010D000E614F7040805190508F084C0F6018081BC
:1010E0009181B2010E944201C201688D798D48E070
:1010F00050E00E942A0E009711F78701F701EE0FCA
:10110000FF1FEA0DFB1D80819181B1010E94420108
:1011100082E0B1010E940C0DEE24EA94FE2CCE88F0
:10112000DF880894C108D10883E064E071E00E9480
:101130000C0D0E94380D8535E9F08434A9F0833513
:10114000F9F0E016F10671F0F801EE0FFF1FEA0D5D
:10115000FB1D80819181B1010E94420182E0B101B9
:101160000E940C0D7801E0CF1016110654F70150C3
:101170001040E7CF0C151D0520F70F5F1F4FE1CF83
:10118000000F111FA00EB11EF50180819181B201E7
:101190000E944201888D998D9C01D901F20188E05D
:1011A00001900D928150E1F781E069960FB6F894B5
:1011B000DEBF0FBECDBFCF91DF911F910F91FF908A
:1011C000EF90DF90CF90BF90AF909F908F907F90E7
:1011D0006F905F904F903F902F9008952E0108944C
:1011E000411C511C00E010E0E0E0F0E08ACF82E01A
:1011F00061ED70E00E94220D80E0D7CFCF92DF92A8
:10120000EF92FF920F931F93DF93CF93CDB7DEB78B
:1012100066970FB6F894DEBF0FBECDBF5D9A83E52B
:101220008CBD2A9A00E010E08FEF0E94CE000F5F85
:101230001F4F0A301105C1F72A988FEF0E94CE0088
:101240008FEF0E94CE0080E040E050E060E070E070
:101250000E94EB000E94D9008130E1F72A9A6FEAE0
:1012600070E00E94220D2A9887E340E050E060E0A1
:1012700070E00E94EB000E941A018F3F99F08E7F70
:1012800091F72A9A2A9889E240E050E060E070E005
:101290000E94EB000E941A018823B1F08F3F11F0E9
:1012A0002A9AE1CF20E030E0C90166960FB6F894A3
:1012B000DEBF0FBECDBFCF91DF911F910F91FF9089
:1012C000EF90DF90CF90089580E58CBD81E08DBDDB
:1012D00080E145E050E060E070E00E941F0166E3BD
:1012E00070E080E090E00E9438018E010E5F1F4F99
:1012F00087E0C82ED12CCC0EDD1E0E94D900F8014B
:1013000081938F01EC15FD05C1F70E94D9000E9461
:10131000D9008A818634A9F48B81813491F48C813F
:10132000843579F48D81813361F48E81863349F47B
:10133000109224041092250410922604109227047F
:1013400070C080E144E050E060E070E00E941F0166
:1013500066EC71E080E090E00E9438010E94D900C4
:1013600090E0A0E0B0E08093240490932504A09343
:101370002604B09327040E94D90090E0A0E0B0E0DA
:10138000BA2FA92F982F8827209124043091250463
:101390004091260450912704280F391F4A1F5B1FD4
:1013A000209324043093250440932604509327046B
:1013B0000E94D90090E0A0E0B0E0DC0199278827E6
:1013C0002091240430912504409126045091270453
:1013D000280F391F4A1F5B1F2093240430932504D4
:1013E00040932604509327040E94D900809124043E
:1013F00090912504A0912604B0912704E9E0880F7C
:10140000991FAA1FBB1FEA95D1F7809324049093DC
:101410002504A0932604B09327040E94D9000E94BB
:10142000D90080E143E050E060E070E00E941F01DD
:1014300060912404709125048091260490912704E2
:10144000635F7F4F8F4F9F4F0E9438010E94D900EA
:10145000898389818093200410924C018981813095
:1014600051F090E09F5F89818695898389818130E1
:10147000C9F790934C010E94D900082F10E00E94F8
:10148000D900F82E0E94D9000E94D9009F2D80E03B
:10149000800F911FA0E0B0E079E0880F991FAA1F8C
:1014A000BB1F7A95D1F720912404309125044091F7
:1014B000260450912704820F931FA41FB51F809309
:1014C0001C0490931D04A0931E04B0931F0480E19C
:1014D00042E050E060E070E00E941F01609124044F
:1014E0007091250480912604909127046A5E7F4FB5
:1014F0008F4F9F4F0E9438010E94D90080931304A0
:10150000109214040E94D900382F20E08091130417
:1015100090911404820F931F9093140480931304EA
:101520000E94D9000E94D900809113049091140464
:10153000A0E0B0E06AE0880F991FAA1FBB1F6A9560
:10154000D1F720911C0430911D0440911E0450914C
:101550001F04820F931FA41FB51F80932B04909329
:101560002C04A0932D04B0932E048050904CAF4FC8
:10157000BF4F8093180490931904A0931A04B0935A
:101580001B045FE0E52EF12CEC0EFD1E82E191E0E4
:1015900060E070E0A70120E00E94790690931004BB
:1015A00080930F0410E0F2E080309F0709F011E013
:1015B00081E591E0612FA7010E940608112369F5DA
:1015C000882311F520E080E091E067E774E0A60150
:1015D0000E9479069C01909323048093220420505A
:1015E000324009F45FCE8FEF80931504809321047D
:1015F00080E140E052E060E070E00E941F011CBC0E
:101600005D9821E030E050CED601F70188E00190EE
:101610000D928150E1F721E0D6CFD601F70188E0A5
:1016200001900D928150E1F721E0CDCF4F925F9272
:101630007F928F929F92AF92BF92CF92DF92EF9262
:10164000FF920F931F93DF93CF93CDB7DEB76D97C4
:101650000FB6F894DEBF0FBECDBFFDE0AF2EB12CAC
:10166000AC0EBD1ED501E9E2F1E081E101900D92E1
:101670008150E1F72E010894411C511CD201EBE38B
:10168000F1E08CE001900D928150E1F78CE284B999
:1016900080E387B98AB981E185B980E288B989E4B4
:1016A0008BB97894F999FECF81E090E00E944110C7
:1016B0008093290480912904853C10F0109229041C
:1016C000809129048C3818F08BE8809329048FE0EE
:1016D00080936C0082E0809368000E943F0D28EEAA
:1016E00033E043EA52E0CA010197F1F7215030405C
:1016F000D1F781E06CE770E00E94220D82E06DE896
:1017000070E00E94220D20E137E243EA52E0CA0174
:101710000197F1F721503040D1F780E064E071E0AB
:101720000E940C0D81E06EE970E00E94220D80E0C5
:1017300090E0A0E0B0E09C01AD0181E090E0A0E08D
:10174000B0E04B99F8CFC901DA010196A11DB11D96
:10175000803020E0920728E0A20720E0B20759F786
:101760008CE687BD82E084BD11E015BD85BF8EE0AB
:101770008093690081E06FEA70E00E94220D0E9470
:10178000FE08892B09F4FFCF1092780410921704F9
:1017900010932A041092120410921104109216044D
:1017A00010924D011092500181E591E09093300428
:1017B00080932F040E94900080916E00826080933D
:1017C0006E00E89AE99A1CBC81E060EC70E00E942F
:1017D000220D10E0E6E18E2EE1E09E2E70E5772EE0
:1017E0004F990BC15D9A4E990AC180917704882365
:1017F00009F005C1319903C15C9880912A048823BE
:1018000009F4F0C080916E008D7F80936E0030915E
:1018100016043F5F3F70309316040091290406952B
:10182000069520914B01232780914F018027282B7B
:1018300090914A01932780914E018027982B29236C
:1018400090914C019327809150018027982B292358
:1018500090914D019327809151018027982B292346
:1018600080914E013827809152018027382B232305
:1018700009F4C7C00117C1F18091290420912904FE
:101880004DB75EB7485050400FB6F8945EBF0FBEDC
:101890004DBFEDB7FEB73196ADB7BEB71296BC924D
:1018A000AE92119793828282869586958483158263
:1018B00030E023703070C901880F991F820F931F89
:1018C000840D951D978386830E94400E4DB75EB7A9
:1018D000485F5F4F0FB6F8945EBF0FBE4DBF81E00B
:1018E000B5010E940C0D102F7CBCE02EFF24E29469
:1018F000F29450EFF522FE24E522FE248091160496
:10190000E80EF11C30914C016701032E02C0D69401
:10191000C7940A94E2F7C60163E270E00E94030EE6
:10192000262F809115046817B9F060931504409133
:10193000200450E0415D5D4F02C0559547953A95B2
:10194000E2F7809122049091230461E374E003E2C2
:101950000E947E0130914C01C60163E270E00E945A
:10196000030EFC01EE0FFF1FEF5CFB4F60817181E6
:101970006250704080E090E004C0660F771F881FBF
:10198000991F3A95D2F72091200430E02150304041
:10199000E222F322970140E050E0620F731F841FA0
:1019A000951F29E0660F771F881F991F2A95D1F789
:1019B000209118043091190440911A0450911B048D
:1019C000620F731F841F951F0E943801109212042A
:1019D0001092110410922A041CBC80916E00826047
:1019E00080936E0080912804882309F4F9CE109228
:1019F00028040E94F4034F9BF5CE5D98F1CE5C9ACB
:101A0000FCCE0E94C60336CF982F8091C00085FF80
:101A1000FCCF9093C6000895982FFB018091C000E1
:101A200085FFFCCF9093C6009081992351F080915F
:101A3000C00085FFFCCF9093C60091813196992319
:101A4000B1F70895982FFB018091C00085FFFCCF6E
:101A50009093C6009491992351F031968091C000E3
:101A600085FFFCCF9093C60094919923B1F7089518
:101A70008091C00087FFFCCF8091C600089510922E
:101A8000C5008EEA8093C40088E18093C1008EE097
:101A90008093C20080E067E471E00E940C0D08951D
:101AA00028E100002A95E9F70197D1F70895000091
:101AB00000000000000000000895AF93AFB7AF939F
:101AC000A0917804A062A8B9BF932F9320E0EFDF24
:101AD000B0912A04BB2351F0A0E2A8B92093780466
:101AE0002F91BF91AF91AFBFAF911895A0E2A8B968
:101AF000A8E3A5B9A3B1A0712A2FA8E1A5B9A09127
:101B00001104B09112041196A0931104B093120421
:101B1000A03999F4BC3089F4A1E0A0932A04CF93B2
:101B2000DF93C0E7B8E3D8E1A8E0B5B9D5B9AA9585
:101B3000E1F7CA95C9F7DF91CF91209378042F91EF
:101B4000BF91AF91AFBFAF9118952F932FB72F9340
:101B50004F9955C03F933091170423B1227023272A
:101B6000E1F323B122702093170428E02A95F1F7BE
:101B700000004F935F936F937F938F93EF93FF9347
:101B800060E0E0912F04F09130043DE541E00DC0AC
:101B90005091170473B172707527E1F373B17270CD
:101BA000709317047EE07A95F1F727E081E079B130
:101BB0007470D1F400007EE17A95F1F773B1727020
:101BC0005091170470931704752776950000880FBD
:101BD000872B2A9561F7853D09F461E06030C1F2F9
:101BE000819331504040A1F651E050932804FF9179
:101BF000EF918F917F916F915F914F913F912F91D5
:101C00002FBF2F911895AA1BBB1B51E107C0AA1F1C
:101C1000BB1FA617B70710F0A61BB70B881F991F8D
:101C20005A95A9F780959095BC01CD01089597FB31
:101C3000092E07260AD077FD04D0E5DF06D0002064
:101C40001AF4709561957F4F0895F6F790958195F8
:101C50009F4F0895FB01DC0104C08D910190801914
:101C600021F441505040C8F7881B990B0895FB019F
:101C7000DC0102C001900D9241505040D8F7089508
:101C8000AEE0B0E0E6E4FEE00C9405110D891E899B
:101C900086E08C831A8309838FEF9FE79E838D8371
:101CA0009E01275E3F4FCE0101966F89788DA90175
:101CB0000E94640E2F813885020F131FF8011082D5
:101CC0002E96E4E00C942111ABE0B0E0EAE6FEE0F1
:101CD0000C94F7103C012B015A01FC01178216826B
:101CE000838181FD03C06FEF7FEFC6C19AE0892E2B
:101CF0001E010894211C311CF3012381F20123FDF4
:101D0000859123FF81912F01882309F4B2C1853287
:101D100039F423FD859123FF81912F01853229F428
:101D200090E0B3010E946D10E7CF982FFF24EE24BE
:101D30009924FFE1FF15D0F09B3269F09C3228F422
:101D4000903259F0933291F40EC09D3249F09033A5
:101D500069F441E024C052E0F52A84E0F82A28C062
:101D600098E0F92A25C0E0E1FE2A22C0F7FC29C04C
:101D7000892F80538A3070F4F6FE05C0989C902C11
:101D80001124980E15C0E89CE02C1124E80EF0E216
:101D9000FF2A0EC09E3229F4F6FC6BC140E4F42AFF
:101DA00007C09C3619F450E8F52A02C0983649F469
:101DB000F20123FD959123FF91912F01992309F0C1
:101DC000B8CF892F8554833018F08052833038F48F
:101DD00044E050E0A40EB51E5FE359830FC0933674
:101DE00031F0933779F0933509F056C020C0F501F2
:101DF0008081898342E050E0A40EB51E610101E0BC
:101E000010E012C0F501C080D180F6FC03C06FEF76
:101E10007FEF02C0692D70E042E050E0A40EB51ED5
:101E2000C6010E9462108C015FE7F52214C0F50123
:101E3000C080D180F6FC03C06FEF7FEF02C0692D38
:101E400070E042E050E0A40EB51EC6010E9457109B
:101E50008C0150E8F52AF3FE07C01AC080E290E03A
:101E6000B3010E946D10EA948E2D90E008171907B7
:101E7000A8F30EC0F601F7FC8591F7FE81916F0182
:101E800090E0B3010E946D10E110EA9401501040FF
:101E90000115110579F7EAC0943611F0993669F504
:101EA000F7FE08C0F501208131814281538184E031
:101EB00090E00AC0F501808191819C01442737FDA3
:101EC0004095542F82E090E0A80EB91E9FE6F922BB
:101ED00057FF09C050954095309521953F4F4F4F82
:101EE0005F4FE0E8FE2ACA01B901A1012AE030E013
:101EF0000E949910D82ED21840C0953729F41F2D72
:101F00001F7E2AE030E01DC01F2D197F9F3661F033
:101F1000903720F4983509F0ACC00FC0903739F0F5
:101F2000983709F0A6C004C028E030E00AC010616C
:101F300014FD146020E130E004C014FD166020E1BF
:101F400032E017FF08C0F5016081718182819381C1
:101F500044E050E008C0F50180819181BC0180E03F
:101F600090E042E050E0A40EB51EA1010E9499103D
:101F7000D82ED2188FE7F82EF122F6FE0BC05EEFB6
:101F8000F522D91438F4F4FE07C0F2FC05C08FEE38
:101F9000F82202C01D2D01C0192DF4FE0DC0FE0156
:101FA000ED0DF11D8081803319F499EEF92208C0FE
:101FB0001F5FF2FE05C003C08F2D867809F01F5FFA
:101FC0000F2DF3FC14C0F0FE0FC01E1510F09D2C59
:101FD0000BC09D2C9E0C911A1E2D06C080E290E035
:101FE000B3010E946D101F5F1E15C0F304C01E15C3
:101FF00010F4E11A01C0EE2404FF0FC080E390E06A
:10200000B3010E946D1002FF1DC001FD03C088E7EF
:1020100090E00EC088E590E00BC0802F867891F0AC
:1020200001FF02C08BE201C080E2F7FC8DE290E08C
:10203000B3010E946D1006C080E390E0B3010E94DE
:102040006D109A94D914C0F3DA94F101ED0DF11DDD
:10205000808190E0B3010E946D10DD20A9F706C0D9
:1020600080E290E0B3010E946D10EA94EE20C1F787
:1020700043CEF30166817781CB012B96E2E10C948C
:102080001311F999FECF92BD81BDF89A992780B5B9
:102090000895262FF999FECF1FBA92BD81BD20BDAC
:1020A0000FB6F894FA9AF99A0FBE01960895FC01BA
:1020B0000590615070400110D8F7809590958E0F73
:1020C0009F1F0895FC016150704001900110D8F7E6
:1020D000809590958E0F9F1F08950F931F93CF9318
:1020E000DF938C01EB018B8181FF1BC082FF0DC050
:1020F0002E813F818C819D812817390764F4E88106
:10210000F9810193F983E88306C0E885F985802F7A
:102110000995892B31F48E819F8101969F838E834F
:1021200002C00FEF1FEFC801DF91CF911F910F91F8
:102130000895FA01AA27283051F1203181F1E8945D
:102140006F936E7F6E5F7F4F8F4F9F4FAF4FB1E0AA
:102150003ED0B4E03CD0670F781F891F9A1FA11DA5
:10216000680F791F8A1F911DA11D6A0F711D811DA6
:10217000911DA11D20D009F468943F912AE0269F6B
:1021800011243019305D3193DEF6CF010895462FCA
:102190004770405D4193B3E00FD0C9F7F6CF462FAB
:1021A0004F70405D4A3318F0495D31FD4052419314
:1021B00002D0A9F7EACFB4E0A695979587957795D1
:1021C0006795BA95C9F700976105710508959B0158
:1021D000AC010A2E06945795479537952795BA95E1
:1021E000C9F7620F731F841F951FA01D08952F92BA
:1021F0003F924F925F926F927F928F929F92AF9297
:10220000BF92CF92DF92EF92FF920F931F93CF93E3
:10221000DF93CDB7DEB7CA1BDB0B0FB6F894DEBF7A
:102220000FBECDBF09942A88398848885F846E84A0
:102230007D848C849B84AA84B984C884DF80EE80EA
:10224000FD800C811B81AA81B981CE0FD11D0FB6F3
:10225000F894DEBF0FBECDBFED010895F894FFCF17
:102260004E4943000066696C656E616D652E4E498E
:1022700043004254460020545241434B2023253012
:1022800032642E25732020200020545241434B20DD
:102290002330302E303020202000FE303000323508
:0822A000003530003735000065
:00000001FF
